{
  "contractName": "EphereFootballerERC721",
  "abi": [
    {
      "inputs": [
        {
          "internalType": "uint256",
          "name": "maxSupply",
          "type": "uint256"
        }
      ],
      "stateMutability": "nonpayable",
      "type": "constructor"
    },
    {
      "anonymous": false,
      "inputs": [
        {
          "indexed": true,
          "internalType": "address",
          "name": "owner",
          "type": "address"
        },
        {
          "indexed": true,
          "internalType": "address",
          "name": "approved",
          "type": "address"
        },
        {
          "indexed": true,
          "internalType": "uint256",
          "name": "tokenId",
          "type": "uint256"
        }
      ],
      "name": "Approval",
      "type": "event"
    },
    {
      "anonymous": false,
      "inputs": [
        {
          "indexed": true,
          "internalType": "address",
          "name": "owner",
          "type": "address"
        },
        {
          "indexed": true,
          "internalType": "address",
          "name": "operator",
          "type": "address"
        },
        {
          "indexed": false,
          "internalType": "bool",
          "name": "approved",
          "type": "bool"
        }
      ],
      "name": "ApprovalForAll",
      "type": "event"
    },
    {
      "anonymous": false,
      "inputs": [
        {
          "indexed": false,
          "internalType": "address",
          "name": "account",
          "type": "address"
        }
      ],
      "name": "Paused",
      "type": "event"
    },
    {
      "anonymous": false,
      "inputs": [
        {
          "indexed": true,
          "internalType": "bytes32",
          "name": "role",
          "type": "bytes32"
        },
        {
          "indexed": true,
          "internalType": "bytes32",
          "name": "previousAdminRole",
          "type": "bytes32"
        },
        {
          "indexed": true,
          "internalType": "bytes32",
          "name": "newAdminRole",
          "type": "bytes32"
        }
      ],
      "name": "RoleAdminChanged",
      "type": "event"
    },
    {
      "anonymous": false,
      "inputs": [
        {
          "indexed": true,
          "internalType": "bytes32",
          "name": "role",
          "type": "bytes32"
        },
        {
          "indexed": true,
          "internalType": "address",
          "name": "account",
          "type": "address"
        },
        {
          "indexed": true,
          "internalType": "address",
          "name": "sender",
          "type": "address"
        }
      ],
      "name": "RoleGranted",
      "type": "event"
    },
    {
      "anonymous": false,
      "inputs": [
        {
          "indexed": true,
          "internalType": "bytes32",
          "name": "role",
          "type": "bytes32"
        },
        {
          "indexed": true,
          "internalType": "address",
          "name": "account",
          "type": "address"
        },
        {
          "indexed": true,
          "internalType": "address",
          "name": "sender",
          "type": "address"
        }
      ],
      "name": "RoleRevoked",
      "type": "event"
    },
    {
      "anonymous": false,
      "inputs": [
        {
          "indexed": true,
          "internalType": "address",
          "name": "from",
          "type": "address"
        },
        {
          "indexed": true,
          "internalType": "address",
          "name": "to",
          "type": "address"
        },
        {
          "indexed": true,
          "internalType": "uint256",
          "name": "tokenId",
          "type": "uint256"
        }
      ],
      "name": "Transfer",
      "type": "event"
    },
    {
      "anonymous": false,
      "inputs": [
        {
          "indexed": false,
          "internalType": "address",
          "name": "account",
          "type": "address"
        }
      ],
      "name": "Unpaused",
      "type": "event"
    },
    {
      "inputs": [],
      "name": "DEFAULT_ADMIN_ROLE",
      "outputs": [
        {
          "internalType": "bytes32",
          "name": "",
          "type": "bytes32"
        }
      ],
      "stateMutability": "view",
      "type": "function",
      "constant": true
    },
    {
      "inputs": [],
      "name": "MINTER_ROLE",
      "outputs": [
        {
          "internalType": "bytes32",
          "name": "",
          "type": "bytes32"
        }
      ],
      "stateMutability": "view",
      "type": "function",
      "constant": true
    },
    {
      "inputs": [],
      "name": "PAUSER_ROLE",
      "outputs": [
        {
          "internalType": "bytes32",
          "name": "",
          "type": "bytes32"
        }
      ],
      "stateMutability": "view",
      "type": "function",
      "constant": true
    },
    {
      "inputs": [],
      "name": "_maxSupply",
      "outputs": [
        {
          "internalType": "uint256",
          "name": "",
          "type": "uint256"
        }
      ],
      "stateMutability": "view",
      "type": "function",
      "constant": true
    },
    {
      "inputs": [
        {
          "internalType": "address",
          "name": "to",
          "type": "address"
        },
        {
          "internalType": "uint256",
          "name": "tokenId",
          "type": "uint256"
        }
      ],
      "name": "approve",
      "outputs": [],
      "stateMutability": "nonpayable",
      "type": "function"
    },
    {
      "inputs": [
        {
          "internalType": "address",
          "name": "owner",
          "type": "address"
        }
      ],
      "name": "balanceOf",
      "outputs": [
        {
          "internalType": "uint256",
          "name": "",
          "type": "uint256"
        }
      ],
      "stateMutability": "view",
      "type": "function",
      "constant": true
    },
    {
      "inputs": [
        {
          "internalType": "uint256",
          "name": "tokenId",
          "type": "uint256"
        }
      ],
      "name": "burn",
      "outputs": [],
      "stateMutability": "nonpayable",
      "type": "function"
    },
    {
      "inputs": [
        {
          "internalType": "uint256",
          "name": "tokenId",
          "type": "uint256"
        }
      ],
      "name": "getApproved",
      "outputs": [
        {
          "internalType": "address",
          "name": "",
          "type": "address"
        }
      ],
      "stateMutability": "view",
      "type": "function",
      "constant": true
    },
    {
      "inputs": [
        {
          "internalType": "bytes32",
          "name": "role",
          "type": "bytes32"
        }
      ],
      "name": "getRoleAdmin",
      "outputs": [
        {
          "internalType": "bytes32",
          "name": "",
          "type": "bytes32"
        }
      ],
      "stateMutability": "view",
      "type": "function",
      "constant": true
    },
    {
      "inputs": [
        {
          "internalType": "bytes32",
          "name": "role",
          "type": "bytes32"
        },
        {
          "internalType": "uint256",
          "name": "index",
          "type": "uint256"
        }
      ],
      "name": "getRoleMember",
      "outputs": [
        {
          "internalType": "address",
          "name": "",
          "type": "address"
        }
      ],
      "stateMutability": "view",
      "type": "function",
      "constant": true
    },
    {
      "inputs": [
        {
          "internalType": "bytes32",
          "name": "role",
          "type": "bytes32"
        }
      ],
      "name": "getRoleMemberCount",
      "outputs": [
        {
          "internalType": "uint256",
          "name": "",
          "type": "uint256"
        }
      ],
      "stateMutability": "view",
      "type": "function",
      "constant": true
    },
    {
      "inputs": [
        {
          "internalType": "bytes32",
          "name": "role",
          "type": "bytes32"
        },
        {
          "internalType": "address",
          "name": "account",
          "type": "address"
        }
      ],
      "name": "grantRole",
      "outputs": [],
      "stateMutability": "nonpayable",
      "type": "function"
    },
    {
      "inputs": [
        {
          "internalType": "bytes32",
          "name": "role",
          "type": "bytes32"
        },
        {
          "internalType": "address",
          "name": "account",
          "type": "address"
        }
      ],
      "name": "hasRole",
      "outputs": [
        {
          "internalType": "bool",
          "name": "",
          "type": "bool"
        }
      ],
      "stateMutability": "view",
      "type": "function",
      "constant": true
    },
    {
      "inputs": [
        {
          "internalType": "address",
          "name": "owner",
          "type": "address"
        },
        {
          "internalType": "address",
          "name": "operator",
          "type": "address"
        }
      ],
      "name": "isApprovedForAll",
      "outputs": [
        {
          "internalType": "bool",
          "name": "",
          "type": "bool"
        }
      ],
      "stateMutability": "view",
      "type": "function",
      "constant": true
    },
    {
      "inputs": [],
      "name": "name",
      "outputs": [
        {
          "internalType": "string",
          "name": "",
          "type": "string"
        }
      ],
      "stateMutability": "view",
      "type": "function",
      "constant": true
    },
    {
      "inputs": [
        {
          "internalType": "uint256",
          "name": "tokenId",
          "type": "uint256"
        }
      ],
      "name": "ownerOf",
      "outputs": [
        {
          "internalType": "address",
          "name": "",
          "type": "address"
        }
      ],
      "stateMutability": "view",
      "type": "function",
      "constant": true
    },
    {
      "inputs": [],
      "name": "paused",
      "outputs": [
        {
          "internalType": "bool",
          "name": "",
          "type": "bool"
        }
      ],
      "stateMutability": "view",
      "type": "function",
      "constant": true
    },
    {
      "inputs": [
        {
          "internalType": "bytes32",
          "name": "role",
          "type": "bytes32"
        },
        {
          "internalType": "address",
          "name": "account",
          "type": "address"
        }
      ],
      "name": "renounceRole",
      "outputs": [],
      "stateMutability": "nonpayable",
      "type": "function"
    },
    {
      "inputs": [
        {
          "internalType": "bytes32",
          "name": "role",
          "type": "bytes32"
        },
        {
          "internalType": "address",
          "name": "account",
          "type": "address"
        }
      ],
      "name": "revokeRole",
      "outputs": [],
      "stateMutability": "nonpayable",
      "type": "function"
    },
    {
      "inputs": [
        {
          "internalType": "address",
          "name": "from",
          "type": "address"
        },
        {
          "internalType": "address",
          "name": "to",
          "type": "address"
        },
        {
          "internalType": "uint256",
          "name": "tokenId",
          "type": "uint256"
        }
      ],
      "name": "safeTransferFrom",
      "outputs": [],
      "stateMutability": "nonpayable",
      "type": "function"
    },
    {
      "inputs": [
        {
          "internalType": "address",
          "name": "from",
          "type": "address"
        },
        {
          "internalType": "address",
          "name": "to",
          "type": "address"
        },
        {
          "internalType": "uint256",
          "name": "tokenId",
          "type": "uint256"
        },
        {
          "internalType": "bytes",
          "name": "_data",
          "type": "bytes"
        }
      ],
      "name": "safeTransferFrom",
      "outputs": [],
      "stateMutability": "nonpayable",
      "type": "function"
    },
    {
      "inputs": [
        {
          "internalType": "address",
          "name": "operator",
          "type": "address"
        },
        {
          "internalType": "bool",
          "name": "approved",
          "type": "bool"
        }
      ],
      "name": "setApprovalForAll",
      "outputs": [],
      "stateMutability": "nonpayable",
      "type": "function"
    },
    {
      "inputs": [],
      "name": "symbol",
      "outputs": [
        {
          "internalType": "string",
          "name": "",
          "type": "string"
        }
      ],
      "stateMutability": "view",
      "type": "function",
      "constant": true
    },
    {
      "inputs": [
        {
          "internalType": "uint256",
          "name": "index",
          "type": "uint256"
        }
      ],
      "name": "tokenByIndex",
      "outputs": [
        {
          "internalType": "uint256",
          "name": "",
          "type": "uint256"
        }
      ],
      "stateMutability": "view",
      "type": "function",
      "constant": true
    },
    {
      "inputs": [
        {
          "internalType": "address",
          "name": "owner",
          "type": "address"
        },
        {
          "internalType": "uint256",
          "name": "index",
          "type": "uint256"
        }
      ],
      "name": "tokenOfOwnerByIndex",
      "outputs": [
        {
          "internalType": "uint256",
          "name": "",
          "type": "uint256"
        }
      ],
      "stateMutability": "view",
      "type": "function",
      "constant": true
    },
    {
      "inputs": [],
      "name": "totalSupply",
      "outputs": [
        {
          "internalType": "uint256",
          "name": "",
          "type": "uint256"
        }
      ],
      "stateMutability": "view",
      "type": "function",
      "constant": true
    },
    {
      "inputs": [
        {
          "internalType": "address",
          "name": "from",
          "type": "address"
        },
        {
          "internalType": "address",
          "name": "to",
          "type": "address"
        },
        {
          "internalType": "uint256",
          "name": "tokenId",
          "type": "uint256"
        }
      ],
      "name": "transferFrom",
      "outputs": [],
      "stateMutability": "nonpayable",
      "type": "function"
    },
    {
      "inputs": [
        {
          "internalType": "string",
          "name": "cid",
          "type": "string"
        },
        {
          "internalType": "address",
          "name": "to",
          "type": "address"
        }
      ],
      "name": "mint",
      "outputs": [],
      "stateMutability": "nonpayable",
      "type": "function"
    },
    {
      "inputs": [
        {
          "internalType": "uint256",
          "name": "tokenId",
          "type": "uint256"
        }
      ],
      "name": "tokenURI",
      "outputs": [
        {
          "internalType": "string",
          "name": "",
          "type": "string"
        }
      ],
      "stateMutability": "view",
      "type": "function",
      "constant": true
    },
    {
      "inputs": [],
      "name": "pause",
      "outputs": [],
      "stateMutability": "nonpayable",
      "type": "function"
    },
    {
      "inputs": [],
      "name": "unpause",
      "outputs": [],
      "stateMutability": "nonpayable",
      "type": "function"
    },
    {
      "inputs": [
        {
          "internalType": "bytes4",
          "name": "interfaceId",
          "type": "bytes4"
        }
      ],
      "name": "supportsInterface",
      "outputs": [
        {
          "internalType": "bool",
          "name": "",
          "type": "bool"
        }
      ],
      "stateMutability": "view",
      "type": "function",
      "constant": true
    }
  ],
  "bytecode": "0x60a06040523480156200001157600080fd5b5060405162002ada38038062002ada833981016040819052620000349162000333565b604080518082018252601681527f45706865726520466f6f7462616c6c20506c617965720000000000000000000060208083019182528351808501909452600384526204546560ec1b90840152815191929162000094916002916200028d565b508051620000aa9060039060208401906200028d565b5050600c805460ff19169055506080819052620000c960003362000128565b620000f57f9f2df0fed2c77648de5860a4cc508cd0818c85b8b8a1ab4ceeef8d981c8956a63362000128565b620001217f65d7a28e3265b37a6474929f336521b332c1681b933f6cb9f3376673440d862a3362000128565b506200038a565b6200013f82826200016b60201b62000f641760201c565b60008281526001602090815260409091206200016691839062000f726200017b821b17901c565b505050565b6200017782826200019b565b5050565b600062000192836001600160a01b0384166200023b565b90505b92915050565b6000828152602081815260408083206001600160a01b038516845290915290205460ff1662000177576000828152602081815260408083206001600160a01b03851684529091529020805460ff19166001179055620001f73390565b6001600160a01b0316816001600160a01b0316837f2f8788117e7eff1d82e926ec794901d17c78024a50270940304540a733656f0d60405160405180910390a45050565b6000818152600183016020526040812054620002845750815460018181018455600084815260208082209093018490558454848252828601909352604090209190915562000195565b50600062000195565b8280546200029b906200034d565b90600052602060002090601f016020900481019282620002bf57600085556200030a565b82601f10620002da57805160ff19168380011785556200030a565b828001600101855582156200030a579182015b828111156200030a578251825591602001919060010190620002ed565b50620003189291506200031c565b5090565b5b808211156200031857600081556001016200031d565b6000602082840312156200034657600080fd5b5051919050565b600181811c908216806200036257607f821691505b602082108114156200038457634e487b7160e01b600052602260045260246000fd5b50919050565b60805161272d620003ad6000396000818161029c01526107af015261272d6000f3fe608060405234801561001057600080fd5b50600436106101f05760003560e01c80635c975abb1161010f578063a22cb465116100a2578063d539139311610071578063d539139314610429578063d547741f14610450578063e63ab1e914610463578063e985e9c51461048a57600080fd5b8063a22cb465146103dd578063b88d4fde146103f0578063c87b56dd14610403578063ca15c8731461041657600080fd5b80639010d07c116100de5780639010d07c146103a757806391d14854146103ba57806395d89b41146103cd578063a217fddf146103d557600080fd5b80635c975abb1461036e5780636352211e1461037957806370a082311461038c5780638456cb591461039f57600080fd5b8063248a9ca3116101875780633f4ba83a116101565780633f4ba83a1461032d57806342842e0e1461033557806342966c68146103485780634f6ccce71461035b57600080fd5b8063248a9ca3146102d15780632f2ff15d146102f45780632f745c591461030757806336568abe1461031a57600080fd5b806318160ddd116101c357806318160ddd146102725780631c351a9d1461028457806322f4596f1461029757806323b872dd146102be57600080fd5b806301ffc9a7146101f557806306fdde031461021d578063081812fc14610232578063095ea7b31461025d575b600080fd5b61020861020336600461209f565b6104c6565b60405190151581526020015b60405180910390f35b6102256104d7565b6040516102149190612114565b610245610240366004612127565b610569565b6040516001600160a01b039091168152602001610214565b61027061026b36600461215c565b610603565b005b600a545b604051908152602001610214565b610270610292366004612212565b610719565b6102767f000000000000000000000000000000000000000000000000000000000000000081565b6102706102cc366004612274565b61088d565b6102766102df366004612127565b60009081526020819052604090206001015490565b6102706103023660046122b0565b6108bf565b61027661031536600461215c565b6108e1565b6102706103283660046122b0565b610977565b610270610999565b610270610343366004612274565b610a3f565b610270610356366004612127565b610a5a565b610276610369366004612127565b610ad4565b600c5460ff16610208565b610245610387366004612127565b610b67565b61027661039a3660046122d3565b610bde565b610270610c65565b6102456103b53660046122ee565b610d02565b6102086103c83660046122b0565b610d21565b610225610d4a565b610276600081565b6102706103eb366004612310565b610d59565b6102706103fe36600461234c565b610e1e565b610225610411366004612127565b610e50565b610276610424366004612127565b610f43565b6102767f9f2df0fed2c77648de5860a4cc508cd0818c85b8b8a1ab4ceeef8d981c8956a681565b61027061045e3660046122b0565b610f5a565b6102767f65d7a28e3265b37a6474929f336521b332c1681b933f6cb9f3376673440d862a81565b6102086104983660046123c8565b6001600160a01b03918216600090815260076020908152604080832093909416825291909152205460ff1690565b60006104d182610f87565b92915050565b6060600280546104e6906123f2565b80601f0160208091040260200160405190810160405280929190818152602001828054610512906123f2565b801561055f5780601f106105345761010080835404028352916020019161055f565b820191906000526020600020905b81548152906001019060200180831161054257829003601f168201915b5050505050905090565b6000818152600460205260408120546001600160a01b03166105e75760405162461bcd60e51b815260206004820152602c60248201527f4552433732313a20617070726f76656420717565727920666f72206e6f6e657860448201526b34b9ba32b73a103a37b5b2b760a11b60648201526084015b60405180910390fd5b506000908152600660205260409020546001600160a01b031690565b600061060e82610b67565b9050806001600160a01b0316836001600160a01b0316141561067c5760405162461bcd60e51b815260206004820152602160248201527f4552433732313a20617070726f76616c20746f2063757272656e74206f776e656044820152603960f91b60648201526084016105de565b336001600160a01b038216148061069857506106988133610498565b61070a5760405162461bcd60e51b815260206004820152603860248201527f4552433732313a20617070726f76652063616c6c6572206973206e6f74206f7760448201527f6e6572206e6f7220617070726f76656420666f7220616c6c000000000000000060648201526084016105de565b6107148383610fac565b505050565b6107437f9f2df0fed2c77648de5860a4cc508cd0818c85b8b8a1ab4ceeef8d981c8956a633610d21565b6107ad5760405162461bcd60e51b815260206004820152603560248201527f457068657265466f6f7462616c6c65724552433732313a206d7573742068617660448201527419481b5a5b9d195c881c9bdb19481d1bc81b5a5b9d605a1b60648201526084016105de565b7f00000000000000000000000000000000000000000000000000000000000000006107d7600a5490565b106108435760405162461bcd60e51b815260206004820152603660248201527f457068657265466f6f7462616c6c65724552433732313a2063616e6e6f7420656044820152757863656564206d617820746f74616c20737570706c7960501b60648201526084016105de565b610851600e80546001019055565b600061085c600e5490565b9050610868828261101a565b6000818152600d60209081526040909120845161088792860190611fba565b50505050565b610898335b82611168565b6108b45760405162461bcd60e51b81526004016105de9061242d565b61071483838361125f565b6108c9828261140a565b60008281526001602052604090206107149082610f72565b60006108ec83610bde565b821061094e5760405162461bcd60e51b815260206004820152602b60248201527f455243373231456e756d657261626c653a206f776e657220696e646578206f7560448201526a74206f6620626f756e647360a81b60648201526084016105de565b506001600160a01b03919091166000908152600860209081526040808320938352929052205490565b6109818282611430565b600082815260016020526040902061071490826114aa565b6109c37f65d7a28e3265b37a6474929f336521b332c1681b933f6cb9f3376673440d862a33610d21565b610a355760405162461bcd60e51b815260206004820152603860248201527f457068657265466f6f7462616c6c65724552433732313a206d7573742068617660448201527f652070617573657220726f6c6520746f20756e7061757365000000000000000060648201526084016105de565b610a3d6114bf565b565b61071483838360405180602001604052806000815250610e1e565b610a6333610892565b610ac85760405162461bcd60e51b815260206004820152603060248201527f4552433732314275726e61626c653a2063616c6c6572206973206e6f74206f7760448201526f1b995c881b9bdc88185c1c1c9bdd995960821b60648201526084016105de565b610ad181611552565b50565b6000610adf600a5490565b8210610b425760405162461bcd60e51b815260206004820152602c60248201527f455243373231456e756d657261626c653a20676c6f62616c20696e646578206f60448201526b7574206f6620626f756e647360a01b60648201526084016105de565b600a8281548110610b5557610b5561247e565b90600052602060002001549050919050565b6000818152600460205260408120546001600160a01b0316806104d15760405162461bcd60e51b815260206004820152602960248201527f4552433732313a206f776e657220717565727920666f72206e6f6e657869737460448201526832b73a103a37b5b2b760b91b60648201526084016105de565b60006001600160a01b038216610c495760405162461bcd60e51b815260206004820152602a60248201527f4552433732313a2062616c616e636520717565727920666f7220746865207a65604482015269726f206164647265737360b01b60648201526084016105de565b506001600160a01b031660009081526005602052604090205490565b610c8f7f65d7a28e3265b37a6474929f336521b332c1681b933f6cb9f3376673440d862a33610d21565b610cfa5760405162461bcd60e51b815260206004820152603660248201527f457068657265466f6f7462616c6c65724552433732313a206d75737420686176604482015275652070617573657220726f6c6520746f20706175736560501b60648201526084016105de565b610a3d6115f9565b6000828152600160205260408120610d1a9083611674565b9392505050565b6000918252602082815260408084206001600160a01b0393909316845291905290205460ff1690565b6060600380546104e6906123f2565b6001600160a01b038216331415610db25760405162461bcd60e51b815260206004820152601960248201527f4552433732313a20617070726f766520746f2063616c6c65720000000000000060448201526064016105de565b3360008181526007602090815260408083206001600160a01b03871680855290835292819020805460ff191686151590811790915590519081529192917f17307eab39ab6107e8899845ad3d59bd9653f200f220920489ca2b5937696c31910160405180910390a35050565b610e283383611168565b610e445760405162461bcd60e51b81526004016105de9061242d565b61088784848484611680565b6000818152600460205260409020546060906001600160a01b0316610edd5760405162461bcd60e51b815260206004820152603760248201527f457068657265466f6f7462616c6c65724552433732313a20555249207175657260448201527f7920666f72206e6f6e6578697374656e7420746f6b656e00000000000000000060648201526084016105de565b604080518082018252601c81527f68747470733a2f2f697066732e6570686572652e696f2f697066732f000000006020808301919091526000858152600d82528390209251610f2d939101612494565b6040516020818303038152906040529050919050565b60008181526001602052604081206104d1906116b3565b61098182826116bd565b610f6e82826116e3565b5050565b6000610d1a836001600160a01b038416611767565b60006001600160e01b0319821663780e9d6360e01b14806104d157506104d1826117b6565b600081815260066020526040902080546001600160a01b0319166001600160a01b0384169081179091558190610fe182610b67565b6001600160a01b03167f8c5be1e5ebec7d5bd14f71427d1e84f3dd0314c0f7b2291e5b200ac8c7c3b92560405160405180910390a45050565b6001600160a01b0382166110705760405162461bcd60e51b815260206004820181905260248201527f4552433732313a206d696e7420746f20746865207a65726f206164647265737360448201526064016105de565b6000818152600460205260409020546001600160a01b0316156110d55760405162461bcd60e51b815260206004820152601c60248201527f4552433732313a20746f6b656e20616c7265616479206d696e7465640000000060448201526064016105de565b6110e1600083836117f6565b6001600160a01b038216600090815260056020526040812080546001929061110a90849061255b565b909155505060008181526004602052604080822080546001600160a01b0319166001600160a01b03861690811790915590518392907fddf252ad1be2c89b69c2b068fc378daa952ba7f163c4a11628f55a4df523b3ef908290a45050565b6000818152600460205260408120546001600160a01b03166111e15760405162461bcd60e51b815260206004820152602c60248201527f4552433732313a206f70657261746f7220717565727920666f72206e6f6e657860448201526b34b9ba32b73a103a37b5b2b760a11b60648201526084016105de565b60006111ec83610b67565b9050806001600160a01b0316846001600160a01b031614806112275750836001600160a01b031661121c84610569565b6001600160a01b0316145b8061125757506001600160a01b0380821660009081526007602090815260408083209388168352929052205460ff165b949350505050565b826001600160a01b031661127282610b67565b6001600160a01b0316146112da5760405162461bcd60e51b815260206004820152602960248201527f4552433732313a207472616e73666572206f6620746f6b656e2074686174206960448201526839903737ba1037bbb760b91b60648201526084016105de565b6001600160a01b03821661133c5760405162461bcd60e51b8152602060048201526024808201527f4552433732313a207472616e7366657220746f20746865207a65726f206164646044820152637265737360e01b60648201526084016105de565b6113478383836117f6565b611352600082610fac565b6001600160a01b038316600090815260056020526040812080546001929061137b908490612573565b90915550506001600160a01b03821660009081526005602052604081208054600192906113a990849061255b565b909155505060008181526004602052604080822080546001600160a01b0319166001600160a01b0386811691821790925591518493918716917fddf252ad1be2c89b69c2b068fc378daa952ba7f163c4a11628f55a4df523b3ef91a4505050565b6000828152602081905260409020600101546114268133611826565b61071483836116e3565b6001600160a01b03811633146114a05760405162461bcd60e51b815260206004820152602f60248201527f416363657373436f6e74726f6c3a2063616e206f6e6c792072656e6f756e636560448201526e103937b632b9903337b91039b2b63360891b60648201526084016105de565b610f6e828261188a565b6000610d1a836001600160a01b0384166118ef565b600c5460ff166115085760405162461bcd60e51b815260206004820152601460248201527314185d5cd8589b194e881b9bdd081c185d5cd95960621b60448201526064016105de565b600c805460ff191690557f5db9ee0a495bf2e6ff9c91a7834c1ba4fdd244a5e8aa4e537bd38aeae4b073aa335b6040516001600160a01b03909116815260200160405180910390a1565b600061155d82610b67565b905061156b816000846117f6565b611576600083610fac565b6001600160a01b038116600090815260056020526040812080546001929061159f908490612573565b909155505060008281526004602052604080822080546001600160a01b0319169055518391906001600160a01b038416907fddf252ad1be2c89b69c2b068fc378daa952ba7f163c4a11628f55a4df523b3ef908390a45050565b600c5460ff161561163f5760405162461bcd60e51b815260206004820152601060248201526f14185d5cd8589b194e881c185d5cd95960821b60448201526064016105de565b600c805460ff191660011790557f62e78cea01bee320cd4e420270b5ea74000d11b0c9f74754ebdbfc544b05a2586115353390565b6000610d1a83836119e2565b61168b84848461125f565b61169784848484611a0c565b6108875760405162461bcd60e51b81526004016105de9061258a565b60006104d1825490565b6000828152602081905260409020600101546116d98133611826565b610714838361188a565b6116ed8282610d21565b610f6e576000828152602081815260408083206001600160a01b03851684529091529020805460ff191660011790556117233390565b6001600160a01b0316816001600160a01b0316837f2f8788117e7eff1d82e926ec794901d17c78024a50270940304540a733656f0d60405160405180910390a45050565b60008181526001830160205260408120546117ae575081546001818101845560008481526020808220909301849055845484825282860190935260409020919091556104d1565b5060006104d1565b60006001600160e01b031982166380ac58cd60e01b14806117e757506001600160e01b03198216635b5e139f60e01b145b806104d157506104d182611b0a565b611801838383611b2f565b6001600160a01b038216610714576000818152600d602052604081206107149161203e565b6118308282610d21565b610f6e57611848816001600160a01b03166014611ba1565b611853836020611ba1565b6040516020016118649291906125dc565b60408051601f198184030181529082905262461bcd60e51b82526105de91600401612114565b6118948282610d21565b15610f6e576000828152602081815260408083206001600160a01b0385168085529252808320805460ff1916905551339285917ff6391f5c32d9c69d2a47ea670b442974b53935d1edc7fd64eb21e047a839171b9190a45050565b600081815260018301602052604081205480156119d8576000611913600183612573565b855490915060009061192790600190612573565b905081811461198c5760008660000182815481106119475761194761247e565b906000526020600020015490508087600001848154811061196a5761196a61247e565b6000918252602080832090910192909255918252600188019052604090208390555b855486908061199d5761199d612651565b6001900381819060005260206000200160009055905585600101600086815260200190815260200160002060009055600193505050506104d1565b60009150506104d1565b60008260000182815481106119f9576119f961247e565b9060005260206000200154905092915050565b60006001600160a01b0384163b15611aff57604051630a85bd0160e11b81526001600160a01b0385169063150b7a0290611a50903390899088908890600401612667565b6020604051808303816000875af1925050508015611a8b575060408051601f3d908101601f19168201909252611a88918101906126a4565b60015b611ae5573d808015611ab9576040519150601f19603f3d011682016040523d82523d6000602084013e611abe565b606091505b508051611add5760405162461bcd60e51b81526004016105de9061258a565b805181602001fd5b6001600160e01b031916630a85bd0160e11b149050611257565b506001949350505050565b60006001600160e01b03198216635a05180f60e01b14806104d157506104d182611d3d565b611b3a838383611d72565b600c5460ff16156107145760405162461bcd60e51b815260206004820152602b60248201527f4552433732315061757361626c653a20746f6b656e207472616e73666572207760448201526a1a1a5b19481c185d5cd95960aa1b60648201526084016105de565b60606000611bb08360026126c1565b611bbb90600261255b565b67ffffffffffffffff811115611bd357611bd3612186565b6040519080825280601f01601f191660200182016040528015611bfd576020820181803683370190505b509050600360fc1b81600081518110611c1857611c1861247e565b60200101906001600160f81b031916908160001a905350600f60fb1b81600181518110611c4757611c4761247e565b60200101906001600160f81b031916908160001a9053506000611c6b8460026126c1565b611c7690600161255b565b90505b6001811115611cee576f181899199a1a9b1b9c1cb0b131b232b360811b85600f1660108110611caa57611caa61247e565b1a60f81b828281518110611cc057611cc061247e565b60200101906001600160f81b031916908160001a90535060049490941c93611ce7816126e0565b9050611c79565b508315610d1a5760405162461bcd60e51b815260206004820181905260248201527f537472696e67733a20686578206c656e67746820696e73756666696369656e7460448201526064016105de565b60006001600160e01b03198216637965db0b60e01b14806104d157506301ffc9a760e01b6001600160e01b03198316146104d1565b6001600160a01b038316611dcd57611dc881600a80546000838152600b60205260408120829055600182018355919091527fc65a7bb8d6351c1cf70c95a316cc6a92839c986682d98bc35f958f4883f9d2a80155565b611df0565b816001600160a01b0316836001600160a01b031614611df057611df08382611e2a565b6001600160a01b038216611e075761071481611ec7565b826001600160a01b0316826001600160a01b031614610714576107148282611f76565b60006001611e3784610bde565b611e419190612573565b600083815260096020526040902054909150808214611e94576001600160a01b03841660009081526008602090815260408083208584528252808320548484528184208190558352600990915290208190555b5060009182526009602090815260408084208490556001600160a01b039094168352600881528383209183525290812055565b600a54600090611ed990600190612573565b6000838152600b6020526040812054600a8054939450909284908110611f0157611f0161247e565b9060005260206000200154905080600a8381548110611f2257611f2261247e565b6000918252602080832090910192909255828152600b9091526040808220849055858252812055600a805480611f5a57611f5a612651565b6001900381819060005260206000200160009055905550505050565b6000611f8183610bde565b6001600160a01b039093166000908152600860209081526040808320868452825280832085905593825260099052919091209190915550565b828054611fc6906123f2565b90600052602060002090601f016020900481019282611fe8576000855561202e565b82601f1061200157805160ff191683800117855561202e565b8280016001018555821561202e579182015b8281111561202e578251825591602001919060010190612013565b5061203a929150612074565b5090565b50805461204a906123f2565b6000825580601f1061205a575050565b601f016020900490600052602060002090810190610ad191905b5b8082111561203a5760008155600101612075565b6001600160e01b031981168114610ad157600080fd5b6000602082840312156120b157600080fd5b8135610d1a81612089565b60005b838110156120d75781810151838201526020016120bf565b838111156108875750506000910152565b600081518084526121008160208601602086016120bc565b601f01601f19169290920160200192915050565b602081526000610d1a60208301846120e8565b60006020828403121561213957600080fd5b5035919050565b80356001600160a01b038116811461215757600080fd5b919050565b6000806040838503121561216f57600080fd5b61217883612140565b946020939093013593505050565b634e487b7160e01b600052604160045260246000fd5b600067ffffffffffffffff808411156121b7576121b7612186565b604051601f8501601f19908116603f011681019082821181831017156121df576121df612186565b816040528093508581528686860111156121f857600080fd5b858560208301376000602087830101525050509392505050565b6000806040838503121561222557600080fd5b823567ffffffffffffffff81111561223c57600080fd5b8301601f8101851361224d57600080fd5b61225c8582356020840161219c565b92505061226b60208401612140565b90509250929050565b60008060006060848603121561228957600080fd5b61229284612140565b92506122a060208501612140565b9150604084013590509250925092565b600080604083850312156122c357600080fd5b8235915061226b60208401612140565b6000602082840312156122e557600080fd5b610d1a82612140565b6000806040838503121561230157600080fd5b50508035926020909101359150565b6000806040838503121561232357600080fd5b61232c83612140565b91506020830135801515811461234157600080fd5b809150509250929050565b6000806000806080858703121561236257600080fd5b61236b85612140565b935061237960208601612140565b925060408501359150606085013567ffffffffffffffff81111561239c57600080fd5b8501601f810187136123ad57600080fd5b6123bc8782356020840161219c565b91505092959194509250565b600080604083850312156123db57600080fd5b6123e483612140565b915061226b60208401612140565b600181811c9082168061240657607f821691505b6020821081141561242757634e487b7160e01b600052602260045260246000fd5b50919050565b60208082526031908201527f4552433732313a207472616e736665722063616c6c6572206973206e6f74206f6040820152701ddb995c881b9bdc88185c1c1c9bdd9959607a1b606082015260800190565b634e487b7160e01b600052603260045260246000fd5b6000835160206124a782858389016120bc565b845491840191600090600181811c90808316806124c557607f831692505b8583108114156124e357634e487b7160e01b85526022600452602485fd5b8080156124f7576001811461250857612535565b60ff19851688528388019550612535565b60008b81526020902060005b8581101561252d5781548a820152908401908801612514565b505083880195505b50939a9950505050505050505050565b634e487b7160e01b600052601160045260246000fd5b6000821982111561256e5761256e612545565b500190565b60008282101561258557612585612545565b500390565b60208082526032908201527f4552433732313a207472616e7366657220746f206e6f6e20455243373231526560408201527131b2b4bb32b91034b6b83632b6b2b73a32b960711b606082015260800190565b7f416363657373436f6e74726f6c3a206163636f756e74200000000000000000008152600083516126148160178501602088016120bc565b7001034b99036b4b9b9b4b733903937b6329607d1b60179184019182015283516126458160288401602088016120bc565b01602801949350505050565b634e487b7160e01b600052603160045260246000fd5b6001600160a01b038581168252841660208201526040810183905260806060820181905260009061269a908301846120e8565b9695505050505050565b6000602082840312156126b657600080fd5b8151610d1a81612089565b60008160001904831182151516156126db576126db612545565b500290565b6000816126ef576126ef612545565b50600019019056fea2646970667358221220c5e7bca6dddd1c800a711fc12f4f33a1f0c4d31a540b4f378b4abb823028508e64736f6c634300080a0033",
  "immutableReferences": {
    "4689": [
      {
        "length": 32,
        "start": 668
      },
      {
        "length": 32,
        "start": 1967
      }
    ]
  },
  "source": "// SPDX-License-Identifier: UNLICENSED\npragma solidity >=0.6.12;\n\nimport \"@openzeppelin/contracts/token/ERC721/ERC721.sol\";\nimport \"@openzeppelin/contracts/token/ERC721/extensions/ERC721Enumerable.sol\";\nimport \"@openzeppelin/contracts/token/ERC721/extensions/ERC721Burnable.sol\";\nimport \"@openzeppelin/contracts/token/ERC721/extensions/ERC721Pausable.sol\";\nimport \"@openzeppelin/contracts/access/AccessControlEnumerable.sol\";\nimport \"@openzeppelin/contracts/utils/Context.sol\";\nimport \"@openzeppelin/contracts/utils/Counters.sol\";\n\ncontract EphereFootballerERC721 is\n  Context,\n  AccessControlEnumerable,\n  ERC721Enumerable,\n  ERC721Burnable,\n  ERC721Pausable\n{\n  using Counters for Counters.Counter;\n  \n  string private constant BASE_TOKEN_URI = \"https://ipfs.ephere.io/ipfs/\";\n\n  bytes32 public constant MINTER_ROLE = keccak256(\"MINTER_ROLE\");\n  bytes32 public constant PAUSER_ROLE = keccak256(\"PAUSER_ROLE\");\n\n  uint public immutable _maxSupply;\n\n  mapping(uint256 => string) _cid;\n  Counters.Counter private _tokenIdTracker;\n\n  constructor(uint maxSupply) ERC721(\"Ephere Football Player\", \"EFP\") {\n    _maxSupply = maxSupply;\n    _setupRole(DEFAULT_ADMIN_ROLE, _msgSender());\n    _setupRole(MINTER_ROLE, _msgSender());\n    _setupRole(PAUSER_ROLE, _msgSender());\n  }\n\n  function mint(string memory cid, address to) public virtual {\n    require(hasRole(MINTER_ROLE, _msgSender()), \"EphereFootballerERC721: must have minter role to mint\");\n    require(totalSupply() < _maxSupply, \"EphereFootballerERC721: cannot exceed max total supply\");\n\n    // We cannot just use balanceOf to create the new tokenId because tokens\n    // can be burned (destroyed), so we need a separate counter.\n    _tokenIdTracker.increment();\n    uint256 tokenId = _tokenIdTracker.current();\n    _mint(to, tokenId);\n    _cid[tokenId] = cid;\n  }\n\n  function tokenURI(uint256 tokenId) public view virtual override returns (string memory) {\n    require(_exists(tokenId), \"EphereFootballerERC721: URI query for nonexistent token\");\n\n    return string(abi.encodePacked(BASE_TOKEN_URI, _cid[tokenId]));\n  }\n\n  function pause() public virtual {\n    require(hasRole(PAUSER_ROLE, _msgSender()), \"EphereFootballerERC721: must have pauser role to pause\");\n    _pause();\n  }\n\n  function unpause() public virtual {\n    require(hasRole(PAUSER_ROLE, _msgSender()), \"EphereFootballerERC721: must have pauser role to unpause\");\n    _unpause();\n  }\n\n  function _beforeTokenTransfer(\n    address from,\n    address to,\n    uint256 tokenId\n  ) internal virtual override(ERC721, ERC721Enumerable, ERC721Pausable) {\n    super._beforeTokenTransfer(from, to, tokenId);\n\n    if (to == address(0)) {\n      delete _cid[tokenId];\n    }\n  }\n\n  function supportsInterface(bytes4 interfaceId)\n    public\n    view\n    virtual\n    override(AccessControlEnumerable, ERC721, ERC721Enumerable)\n    returns (bool)\n  {\n    return super.supportsInterface(interfaceId);\n  }\n}\n",
  "sourcePath": "/Users/agurodriguez/Code/contracts/contracts/EphereFootballerERC721.sol",
  "compiler": {
    "name": "solc",
    "version": "0.8.10+commit.fc410830.Emscripten.clang"
  },
  "schemaVersion": "3.4.3",
  "updatedAt": "2021-11-24T21:00:45.067Z",
  "networkType": "ethereum",
  "devdoc": {
    "kind": "dev",
    "methods": {
      "approve(address,uint256)": {
        "details": "See {IERC721-approve}."
      },
      "balanceOf(address)": {
        "details": "See {IERC721-balanceOf}."
      },
      "burn(uint256)": {
        "details": "Burns `tokenId`. See {ERC721-_burn}. Requirements: - The caller must own `tokenId` or be an approved operator."
      },
      "getApproved(uint256)": {
        "details": "See {IERC721-getApproved}."
      },
      "getRoleAdmin(bytes32)": {
        "details": "Returns the admin role that controls `role`. See {grantRole} and {revokeRole}. To change a role's admin, use {_setRoleAdmin}."
      },
      "getRoleMember(bytes32,uint256)": {
        "details": "Returns one of the accounts that have `role`. `index` must be a value between 0 and {getRoleMemberCount}, non-inclusive. Role bearers are not sorted in any particular way, and their ordering may change at any point. WARNING: When using {getRoleMember} and {getRoleMemberCount}, make sure you perform all queries on the same block. See the following https://forum.openzeppelin.com/t/iterating-over-elements-on-enumerableset-in-openzeppelin-contracts/2296[forum post] for more information."
      },
      "getRoleMemberCount(bytes32)": {
        "details": "Returns the number of accounts that have `role`. Can be used together with {getRoleMember} to enumerate all bearers of a role."
      },
      "grantRole(bytes32,address)": {
        "details": "Overload {grantRole} to track enumerable memberships"
      },
      "hasRole(bytes32,address)": {
        "details": "Returns `true` if `account` has been granted `role`."
      },
      "isApprovedForAll(address,address)": {
        "details": "See {IERC721-isApprovedForAll}."
      },
      "name()": {
        "details": "See {IERC721Metadata-name}."
      },
      "ownerOf(uint256)": {
        "details": "See {IERC721-ownerOf}."
      },
      "paused()": {
        "details": "Returns true if the contract is paused, and false otherwise."
      },
      "renounceRole(bytes32,address)": {
        "details": "Overload {renounceRole} to track enumerable memberships"
      },
      "revokeRole(bytes32,address)": {
        "details": "Overload {revokeRole} to track enumerable memberships"
      },
      "safeTransferFrom(address,address,uint256)": {
        "details": "See {IERC721-safeTransferFrom}."
      },
      "safeTransferFrom(address,address,uint256,bytes)": {
        "details": "See {IERC721-safeTransferFrom}."
      },
      "setApprovalForAll(address,bool)": {
        "details": "See {IERC721-setApprovalForAll}."
      },
      "symbol()": {
        "details": "See {IERC721Metadata-symbol}."
      },
      "tokenByIndex(uint256)": {
        "details": "See {IERC721Enumerable-tokenByIndex}."
      },
      "tokenOfOwnerByIndex(address,uint256)": {
        "details": "See {IERC721Enumerable-tokenOfOwnerByIndex}."
      },
      "tokenURI(uint256)": {
        "details": "See {IERC721Metadata-tokenURI}."
      },
      "totalSupply()": {
        "details": "See {IERC721Enumerable-totalSupply}."
      },
      "transferFrom(address,address,uint256)": {
        "details": "See {IERC721-transferFrom}."
      }
    },
    "version": 1
  },
  "userdoc": {
    "kind": "user",
    "methods": {},
    "version": 1
  }
}