{
  "contractName": "EpherERC20",
  "abi": [
    {
      "inputs": [],
      "stateMutability": "nonpayable",
      "type": "constructor"
    },
    {
      "anonymous": false,
      "inputs": [
        {
          "indexed": true,
          "internalType": "address",
          "name": "owner",
          "type": "address"
        },
        {
          "indexed": true,
          "internalType": "address",
          "name": "spender",
          "type": "address"
        },
        {
          "indexed": false,
          "internalType": "uint256",
          "name": "value",
          "type": "uint256"
        }
      ],
      "name": "Approval",
      "type": "event"
    },
    {
      "anonymous": false,
      "inputs": [
        {
          "indexed": true,
          "internalType": "address",
          "name": "previousOwner",
          "type": "address"
        },
        {
          "indexed": true,
          "internalType": "address",
          "name": "newOwner",
          "type": "address"
        }
      ],
      "name": "OwnershipTransferred",
      "type": "event"
    },
    {
      "anonymous": false,
      "inputs": [
        {
          "indexed": true,
          "internalType": "address",
          "name": "from",
          "type": "address"
        },
        {
          "indexed": true,
          "internalType": "address",
          "name": "to",
          "type": "address"
        },
        {
          "indexed": false,
          "internalType": "uint256",
          "name": "value",
          "type": "uint256"
        }
      ],
      "name": "Transfer",
      "type": "event"
    },
    {
      "inputs": [
        {
          "internalType": "address",
          "name": "owner",
          "type": "address"
        },
        {
          "internalType": "address",
          "name": "spender",
          "type": "address"
        }
      ],
      "name": "allowance",
      "outputs": [
        {
          "internalType": "uint256",
          "name": "",
          "type": "uint256"
        }
      ],
      "stateMutability": "view",
      "type": "function"
    },
    {
      "inputs": [
        {
          "internalType": "address",
          "name": "spender",
          "type": "address"
        },
        {
          "internalType": "uint256",
          "name": "amount",
          "type": "uint256"
        }
      ],
      "name": "approve",
      "outputs": [
        {
          "internalType": "bool",
          "name": "",
          "type": "bool"
        }
      ],
      "stateMutability": "nonpayable",
      "type": "function"
    },
    {
      "inputs": [
        {
          "internalType": "address",
          "name": "account",
          "type": "address"
        }
      ],
      "name": "balanceOf",
      "outputs": [
        {
          "internalType": "uint256",
          "name": "",
          "type": "uint256"
        }
      ],
      "stateMutability": "view",
      "type": "function"
    },
    {
      "inputs": [],
      "name": "cap",
      "outputs": [
        {
          "internalType": "uint256",
          "name": "",
          "type": "uint256"
        }
      ],
      "stateMutability": "view",
      "type": "function"
    },
    {
      "inputs": [],
      "name": "decimals",
      "outputs": [
        {
          "internalType": "uint8",
          "name": "",
          "type": "uint8"
        }
      ],
      "stateMutability": "view",
      "type": "function"
    },
    {
      "inputs": [
        {
          "internalType": "address",
          "name": "spender",
          "type": "address"
        },
        {
          "internalType": "uint256",
          "name": "subtractedValue",
          "type": "uint256"
        }
      ],
      "name": "decreaseAllowance",
      "outputs": [
        {
          "internalType": "bool",
          "name": "",
          "type": "bool"
        }
      ],
      "stateMutability": "nonpayable",
      "type": "function"
    },
    {
      "inputs": [
        {
          "internalType": "address",
          "name": "spender",
          "type": "address"
        },
        {
          "internalType": "uint256",
          "name": "addedValue",
          "type": "uint256"
        }
      ],
      "name": "increaseAllowance",
      "outputs": [
        {
          "internalType": "bool",
          "name": "",
          "type": "bool"
        }
      ],
      "stateMutability": "nonpayable",
      "type": "function"
    },
    {
      "inputs": [],
      "name": "name",
      "outputs": [
        {
          "internalType": "string",
          "name": "",
          "type": "string"
        }
      ],
      "stateMutability": "view",
      "type": "function"
    },
    {
      "inputs": [],
      "name": "owner",
      "outputs": [
        {
          "internalType": "address",
          "name": "",
          "type": "address"
        }
      ],
      "stateMutability": "view",
      "type": "function"
    },
    {
      "inputs": [],
      "name": "renounceOwnership",
      "outputs": [],
      "stateMutability": "nonpayable",
      "type": "function"
    },
    {
      "inputs": [],
      "name": "symbol",
      "outputs": [
        {
          "internalType": "string",
          "name": "",
          "type": "string"
        }
      ],
      "stateMutability": "view",
      "type": "function"
    },
    {
      "inputs": [],
      "name": "totalSupply",
      "outputs": [
        {
          "internalType": "uint256",
          "name": "",
          "type": "uint256"
        }
      ],
      "stateMutability": "view",
      "type": "function"
    },
    {
      "inputs": [
        {
          "internalType": "address",
          "name": "recipient",
          "type": "address"
        },
        {
          "internalType": "uint256",
          "name": "amount",
          "type": "uint256"
        }
      ],
      "name": "transfer",
      "outputs": [
        {
          "internalType": "bool",
          "name": "",
          "type": "bool"
        }
      ],
      "stateMutability": "nonpayable",
      "type": "function"
    },
    {
      "inputs": [
        {
          "internalType": "address",
          "name": "sender",
          "type": "address"
        },
        {
          "internalType": "address",
          "name": "recipient",
          "type": "address"
        },
        {
          "internalType": "uint256",
          "name": "amount",
          "type": "uint256"
        }
      ],
      "name": "transferFrom",
      "outputs": [
        {
          "internalType": "bool",
          "name": "",
          "type": "bool"
        }
      ],
      "stateMutability": "nonpayable",
      "type": "function"
    },
    {
      "inputs": [
        {
          "internalType": "address",
          "name": "newOwner",
          "type": "address"
        }
      ],
      "name": "transferOwnership",
      "outputs": [],
      "stateMutability": "nonpayable",
      "type": "function"
    },
    {
      "inputs": [],
      "name": "mintCoreTeamQ1",
      "outputs": [],
      "stateMutability": "nonpayable",
      "type": "function"
    },
    {
      "inputs": [],
      "name": "mintCoreTeamQ2",
      "outputs": [],
      "stateMutability": "nonpayable",
      "type": "function"
    },
    {
      "inputs": [],
      "name": "mintCoreTeamQ3",
      "outputs": [],
      "stateMutability": "nonpayable",
      "type": "function"
    },
    {
      "inputs": [],
      "name": "mintCoreTeamQ4",
      "outputs": [],
      "stateMutability": "nonpayable",
      "type": "function"
    },
    {
      "inputs": [],
      "name": "mintCoreTeamQ5",
      "outputs": [],
      "stateMutability": "nonpayable",
      "type": "function"
    },
    {
      "inputs": [],
      "name": "mintCoreTeamQ6",
      "outputs": [],
      "stateMutability": "nonpayable",
      "type": "function"
    },
    {
      "inputs": [
        {
          "internalType": "address",
          "name": "receiver",
          "type": "address"
        },
        {
          "internalType": "uint256",
          "name": "amount",
          "type": "uint256"
        }
      ],
      "name": "mintPlayToEarn",
      "outputs": [],
      "stateMutability": "nonpayable",
      "type": "function"
    },
    {
      "inputs": [],
      "name": "mintReserve",
      "outputs": [],
      "stateMutability": "nonpayable",
      "type": "function"
    }
  ],
  "bytecode": "0x60c06040524260a0526005805465ffffffffffff60a01b1916905560006006556007805460ff191690553480156200003657600080fd5b50604080518082018252600581526422b83432b960d91b6020808301918252835180850190945260038085526208aa0960eb1b9185019190915282516af8277896582678ac00000094926200008c9291620002fc565b508051620000a2906004906020840190620002fc565b50505060008111620000fb5760405162461bcd60e51b815260206004820152601560248201527f45524332304361707065643a206361702069732030000000000000000000000060448201526064015b60405180910390fd5b6080526200010933620001c5565b6200015973b86bfb0d2b11e2b86b63f7fbd995765474c71f3f60646200013c6af8277896582678ac0000006006620003e0565b620001489190620003bd565b6200021760201b620013681760201c565b6200018c73f28fdc5ad77f1426a0cd7f2dac3f96d93c11d38560646200013c6af8277896582678ac0000006006620003e0565b620001bf73c3691f6e9d1eb05b02ce85b4c7c86d72a06b3cf760646200013c6af8277896582678ac0000006008620003e0565b62000455565b600580546001600160a01b038381166001600160a01b0319831681179093556040519116919082907f8be0079c531659141344cd1fd0a4f28419497f9722a3daafe3b4186f6b6457e090600090a35050565b6001600160a01b0382166200026f5760405162461bcd60e51b815260206004820152601f60248201527f45524332303a206d696e7420746f20746865207a65726f2061646472657373006044820152606401620000f2565b8060026000828254620002839190620003a2565b90915550506001600160a01b03821660009081526020819052604081208054839290620002b2908490620003a2565b90915550506040518181526001600160a01b038316906000907fddf252ad1be2c89b69c2b068fc378daa952ba7f163c4a11628f55a4df523b3ef9060200160405180910390a35050565b8280546200030a9062000402565b90600052602060002090601f0160209004810192826200032e576000855562000379565b82601f106200034957805160ff191683800117855562000379565b8280016001018555821562000379579182015b82811115620003795782518255916020019190600101906200035c565b50620003879291506200038b565b5090565b5b808211156200038757600081556001016200038c565b60008219821115620003b857620003b86200043f565b500190565b600082620003db57634e487b7160e01b600052601260045260246000fd5b500490565b6000816000190483118215151615620003fd57620003fd6200043f565b500290565b600181811c908216806200041757607f821691505b602082108114156200043957634e487b7160e01b600052602260045260246000fd5b50919050565b634e487b7160e01b600052601160045260246000fd5b60805160a051611a5b620004a5600039600081816103dd015281816105ee0152818161088401528181610a6f01528181610ccd01526111ab0152600081816101e3015261144a0152611a5b6000f3fe608060405234801561001057600080fd5b506004361061014d5760003560e01c806370a08231116100c357806395d89b411161007c57806395d89b4114610291578063a457c2d714610299578063a9059cbb146102ac578063dd62ed3e146102bf578063f2fde38b146102f8578063fe4212251461030b57600080fd5b806370a0823114610222578063715018a61461024b578063736208f014610253578063890ac3661461025b5780638a108312146102635780638da5cb5b1461027657600080fd5b806323b872dd1161011557806323b872dd146101b7578063313ce567146101ca5780633325161a146101d9578063355274ea146101e15780633803024e14610207578063395093511461020f57600080fd5b806306fdde0314610152578063075656b714610170578063095ea7b31461017a57806318160ddd1461019d5780631d7bb78d146101af575b600080fd5b61015a610313565b60405161016791906118f1565b60405180910390f35b6101786103a5565b005b61018d6101883660046118c7565b6105a9565b6040519015158152602001610167565b6002545b604051908152602001610167565b6101786105bf565b61018d6101c536600461188b565b6107ab565b60405160128152602001610167565b610178610855565b7f00000000000000000000000000000000000000000000000000000000000000006101a1565b610178610a40565b61018d61021d3660046118c7565b610c2c565b6101a1610230366004611836565b6001600160a01b031660009081526020819052604090205490565b610178610c68565b610178610c9e565b610178610e88565b6101786102713660046118c7565b610f4f565b6005546040516001600160a01b039091168152602001610167565b61015a61102c565b61018d6102a73660046118c7565b61103b565b61018d6102ba3660046118c7565b6110d4565b6101a16102cd366004611858565b6001600160a01b03918216600090815260016020908152604080832093909416825291909152205490565b610178610306366004611836565b6110e1565b61017861117c565b606060038054610322906119d4565b80601f016020809104026020016040519081016040528092919081815260200182805461034e906119d4565b801561039b5780601f106103705761010080835404028352916020019161039b565b820191906000526020600020905b81548152906001019060200180831161037e57829003601f168201915b5050505050905090565b6005546001600160a01b031633146103d85760405162461bcd60e51b81526004016103cf90611946565b60405180910390fd5b6104067f000000000000000000000000000000000000000000000000000000000000000063018b820061197b565b421161048b5760405162461bcd60e51b815260206004820152604860248201527f436f7265205465616d20513420746f6b656e732063616e206f6e6c792062652060448201527f6d696e7465642033303020646179732061667465722045504820746f6b656e2060648201526731b932b0ba34b7b760c11b608482015260a4016103cf565b600554600160b81b900460ff16156104f55760405162461bcd60e51b815260206004820152602760248201527f436f7265205465616d20513420746f6b656e732077657265206d696e74656420604482015266616c726561647960c81b60648201526084016103cf565b61053473b621e20f17aafc11ff7408d15b3449ab0dd3fc9360646105256af8277896582678ac00000060016119b5565b61052f9190611993565b611448565b6105647313c7cecb0ea3987ded126b59624c898fcba8feb960646105256af8277896582678ac00000060016119b5565b610594732af22f3a5899fe765036d5feee97baba512507e660646105256af8277896582678ac00000060016119b5565b6005805460ff60b81b1916600160b81b179055565b60006105b63384846114d5565b50600192915050565b6005546001600160a01b031633146105e95760405162461bcd60e51b81526004016103cf90611946565b6106177f0000000000000000000000000000000000000000000000000000000000000000630114db0061197b565b421161069c5760405162461bcd60e51b815260206004820152604860248201527f436f7265205465616d20513320746f6b656e732063616e206f6e6c792062652060448201527f6d696e7465642032313020646179732061667465722045504820746f6b656e2060648201526731b932b0ba34b7b760c11b608482015260a4016103cf565b600554600160b01b900460ff16156107065760405162461bcd60e51b815260206004820152602760248201527f436f7265205465616d20513320746f6b656e732077657265206d696e74656420604482015266616c726561647960c81b60648201526084016103cf565b61073673b621e20f17aafc11ff7408d15b3449ab0dd3fc9360646105256af8277896582678ac00000060016119b5565b6107667313c7cecb0ea3987ded126b59624c898fcba8feb960646105256af8277896582678ac00000060016119b5565b610796732af22f3a5899fe765036d5feee97baba512507e660646105256af8277896582678ac00000060016119b5565b6005805460ff60b01b1916600160b01b179055565b60006107b88484846115f9565b6001600160a01b03841660009081526001602090815260408083203384529091529020548281101561083d5760405162461bcd60e51b815260206004820152602860248201527f45524332303a207472616e7366657220616d6f756e74206578636565647320616044820152676c6c6f77616e636560c01b60648201526084016103cf565b61084a85338584036114d5565b506001949350505050565b6005546001600160a01b0316331461087f5760405162461bcd60e51b81526004016103cf90611946565b6108ac7f0000000000000000000000000000000000000000000000000000000000000000629e340061197b565b42116109315760405162461bcd60e51b815260206004820152604860248201527f436f7265205465616d20513220746f6b656e732063616e206f6e6c792062652060448201527f6d696e7465642031323020646179732061667465722045504820746f6b656e2060648201526731b932b0ba34b7b760c11b608482015260a4016103cf565b600554600160a81b900460ff161561099b5760405162461bcd60e51b815260206004820152602760248201527f436f7265205465616d20513220746f6b656e732077657265206d696e74656420604482015266616c726561647960c81b60648201526084016103cf565b6109cb73b621e20f17aafc11ff7408d15b3449ab0dd3fc9360646105256af8277896582678ac00000060016119b5565b6109fb7313c7cecb0ea3987ded126b59624c898fcba8feb960646105256af8277896582678ac00000060016119b5565b610a2b732af22f3a5899fe765036d5feee97baba512507e660646105256af8277896582678ac00000060016119b5565b6005805460ff60a81b1916600160a81b179055565b6005546001600160a01b03163314610a6a5760405162461bcd60e51b81526004016103cf90611946565b610a987f0000000000000000000000000000000000000000000000000000000000000000630278d00061197b565b4211610b1d5760405162461bcd60e51b815260206004820152604860248201527f436f7265205465616d20513620746f6b656e732063616e206f6e6c792062652060448201527f6d696e7465642034383020646179732061667465722045504820746f6b656e2060648201526731b932b0ba34b7b760c11b608482015260a4016103cf565b600554600160c81b900460ff1615610b875760405162461bcd60e51b815260206004820152602760248201527f436f7265205465616d20513620746f6b656e732077657265206d696e74656420604482015266616c726561647960c81b60648201526084016103cf565b610bb773b621e20f17aafc11ff7408d15b3449ab0dd3fc9360646105256af8277896582678ac00000060026119b5565b610be77313c7cecb0ea3987ded126b59624c898fcba8feb960646105256af8277896582678ac00000060026119b5565b610c17732af22f3a5899fe765036d5feee97baba512507e660646105256af8277896582678ac00000060016119b5565b6005805460ff60c81b1916600160c81b179055565b3360008181526001602090815260408083206001600160a01b038716845290915281205490916105b6918590610c6390869061197b565b6114d5565b6005546001600160a01b03163314610c925760405162461bcd60e51b81526004016103cf90611946565b610c9c60006117c8565b565b6005546001600160a01b03163314610cc85760405162461bcd60e51b81526004016103cf90611946565b610cf57f000000000000000000000000000000000000000000000000000000000000000062278d0061197b565b4211610d795760405162461bcd60e51b815260206004820152604760248201527f436f7265205465616d20513120746f6b656e732063616e206f6e6c792062652060448201527f6d696e74656420333020646179732061667465722045504820746f6b656e20636064820152663932b0ba34b7b760c91b608482015260a4016103cf565b600554600160a01b900460ff1615610de35760405162461bcd60e51b815260206004820152602760248201527f436f7265205465616d20513120746f6b656e732077657265206d696e74656420604482015266616c726561647960c81b60648201526084016103cf565b610e1373b621e20f17aafc11ff7408d15b3449ab0dd3fc9360646105256af8277896582678ac00000060016119b5565b610e437313c7cecb0ea3987ded126b59624c898fcba8feb960646105256af8277896582678ac00000060016119b5565b610e73732af22f3a5899fe765036d5feee97baba512507e660646105256af8277896582678ac00000060016119b5565b6005805460ff60a01b1916600160a01b179055565b6005546001600160a01b03163314610eb25760405162461bcd60e51b81526004016103cf90611946565b60075460ff1615610f105760405162461bcd60e51b815260206004820152602260248201527f5265736572766520746f6b656e732077657265206d696e74656420616c726561604482015261647960f01b60648201526084016103cf565b610f4073d90918cb8adf7daebad19ab53bce2917f8e3607760646105256af8277896582678ac00000060146119b5565b6007805460ff19166001179055565b6005546001600160a01b03163314610f795760405162461bcd60e51b81526004016103cf90611946565b6064610f916af8277896582678ac00000060286119b5565b610f9b9190611993565b81600654610fa9919061197b565b11156110075760405162461bcd60e51b815260206004820152602760248201527f506c617920746f204561726e20746f6b656e732077657265206d696e74656420604482015266616c726561647960c81b60648201526084016103cf565b6110118282611448565b8060066000828254611023919061197b565b90915550505050565b606060048054610322906119d4565b3360009081526001602090815260408083206001600160a01b0386168452909152812054828110156110bd5760405162461bcd60e51b815260206004820152602560248201527f45524332303a2064656372656173656420616c6c6f77616e63652062656c6f77604482015264207a65726f60d81b60648201526084016103cf565b6110ca33858584036114d5565b5060019392505050565b60006105b63384846115f9565b6005546001600160a01b0316331461110b5760405162461bcd60e51b81526004016103cf90611946565b6001600160a01b0381166111705760405162461bcd60e51b815260206004820152602660248201527f4f776e61626c653a206e6577206f776e657220697320746865207a65726f206160448201526564647265737360d01b60648201526084016103cf565b611179816117c8565b50565b6005546001600160a01b031633146111a65760405162461bcd60e51b81526004016103cf90611946565b6111d47f0000000000000000000000000000000000000000000000000000000000000000630202290061197b565b42116112595760405162461bcd60e51b815260206004820152604860248201527f436f7265205465616d20513520746f6b656e732063616e206f6e6c792062652060448201527f6d696e7465642033393020646179732061667465722045504820746f6b656e2060648201526731b932b0ba34b7b760c11b608482015260a4016103cf565b600554600160c01b900460ff16156112c35760405162461bcd60e51b815260206004820152602760248201527f436f7265205465616d20513520746f6b656e732077657265206d696e74656420604482015266616c726561647960c81b60648201526084016103cf565b6112f373b621e20f17aafc11ff7408d15b3449ab0dd3fc9360646105256af8277896582678ac00000060016119b5565b6113237313c7cecb0ea3987ded126b59624c898fcba8feb960646105256af8277896582678ac00000060016119b5565b611353732af22f3a5899fe765036d5feee97baba512507e660646105256af8277896582678ac00000060016119b5565b6005805460ff60c01b1916600160c01b179055565b6001600160a01b0382166113be5760405162461bcd60e51b815260206004820152601f60248201527f45524332303a206d696e7420746f20746865207a65726f20616464726573730060448201526064016103cf565b80600260008282546113d0919061197b565b90915550506001600160a01b038216600090815260208190526040812080548392906113fd90849061197b565b90915550506040518181526001600160a01b038316906000907fddf252ad1be2c89b69c2b068fc378daa952ba7f163c4a11628f55a4df523b3ef9060200160405180910390a35b5050565b7f00000000000000000000000000000000000000000000000000000000000000008161147360025490565b61147d919061197b565b11156114cb5760405162461bcd60e51b815260206004820152601960248201527f45524332304361707065643a206361702065786365656465640000000000000060448201526064016103cf565b6114448282611368565b6001600160a01b0383166115375760405162461bcd60e51b8152602060048201526024808201527f45524332303a20617070726f76652066726f6d20746865207a65726f206164646044820152637265737360e01b60648201526084016103cf565b6001600160a01b0382166115985760405162461bcd60e51b815260206004820152602260248201527f45524332303a20617070726f766520746f20746865207a65726f206164647265604482015261737360f01b60648201526084016103cf565b6001600160a01b0383811660008181526001602090815260408083209487168084529482529182902085905590518481527f8c5be1e5ebec7d5bd14f71427d1e84f3dd0314c0f7b2291e5b200ac8c7c3b925910160405180910390a3505050565b6001600160a01b03831661165d5760405162461bcd60e51b815260206004820152602560248201527f45524332303a207472616e736665722066726f6d20746865207a65726f206164604482015264647265737360d81b60648201526084016103cf565b6001600160a01b0382166116bf5760405162461bcd60e51b815260206004820152602360248201527f45524332303a207472616e7366657220746f20746865207a65726f206164647260448201526265737360e81b60648201526084016103cf565b6001600160a01b038316600090815260208190526040902054818110156117375760405162461bcd60e51b815260206004820152602660248201527f45524332303a207472616e7366657220616d6f756e7420657863656564732062604482015265616c616e636560d01b60648201526084016103cf565b6001600160a01b0380851660009081526020819052604080822085850390559185168152908120805484929061176e90849061197b565b92505081905550826001600160a01b0316846001600160a01b03167fddf252ad1be2c89b69c2b068fc378daa952ba7f163c4a11628f55a4df523b3ef846040516117ba91815260200190565b60405180910390a350505050565b600580546001600160a01b038381166001600160a01b0319831681179093556040519116919082907f8be0079c531659141344cd1fd0a4f28419497f9722a3daafe3b4186f6b6457e090600090a35050565b80356001600160a01b038116811461183157600080fd5b919050565b60006020828403121561184857600080fd5b6118518261181a565b9392505050565b6000806040838503121561186b57600080fd5b6118748361181a565b91506118826020840161181a565b90509250929050565b6000806000606084860312156118a057600080fd5b6118a98461181a565b92506118b76020850161181a565b9150604084013590509250925092565b600080604083850312156118da57600080fd5b6118e38361181a565b946020939093013593505050565b600060208083528351808285015260005b8181101561191e57858101830151858201604001528201611902565b81811115611930576000604083870101525b50601f01601f1916929092016040019392505050565b6020808252818101527f4f776e61626c653a2063616c6c6572206973206e6f7420746865206f776e6572604082015260600190565b6000821982111561198e5761198e611a0f565b500190565b6000826119b057634e487b7160e01b600052601260045260246000fd5b500490565b60008160001904831182151516156119cf576119cf611a0f565b500290565b600181811c908216806119e857607f821691505b60208210811415611a0957634e487b7160e01b600052602260045260246000fd5b50919050565b634e487b7160e01b600052601160045260246000fdfea2646970667358221220d20929cf39f3608273c61e80675fd34aec17a06a7dc3f20c8a665a8f50a1aa0a64736f6c63430008070033",
  "immutableReferences": {
    "40": [
      {
        "length": 32,
        "start": 989
      },
      {
        "length": 32,
        "start": 1518
      },
      {
        "length": 32,
        "start": 2180
      },
      {
        "length": 32,
        "start": 2671
      },
      {
        "length": 32,
        "start": 3277
      },
      {
        "length": 32,
        "start": 4523
      }
    ],
    "1232": [
      {
        "length": 32,
        "start": 483
      },
      {
        "length": 32,
        "start": 5194
      }
    ]
  },
  "source": "// SPDX-License-Identifier: UNLICENSED\npragma solidity >=0.6.12;\n\nimport \"@openzeppelin/contracts/access/Ownable.sol\";\nimport \"@openzeppelin/contracts/token/ERC20/ERC20.sol\";\nimport \"@openzeppelin/contracts/token/ERC20/extensions/ERC20Capped.sol\";\n\ncontract EpherERC20 is ERC20Capped, Ownable {\n\n  uint    private constant _maxSupply         = 300000000 * 10**18;\n\n  address private constant _walletAdvisors    = 0xB86bfB0d2b11E2B86b63F7fbD995765474c71f3f;\n  address private constant _walletCoreTeamM1  = 0xB621E20f17aafC11ff7408D15B3449ab0dd3FC93;\n  address private constant _walletCoreTeamM2  = 0x13C7cECb0ea3987Ded126b59624C898fCBa8feB9;\n  address private constant _walletCoreTeamM3  = 0x2Af22f3A5899fE765036d5FeEE97BABa512507E6;\n  address private constant _walletPrivateSale = 0xf28FdC5aD77f1426A0cD7F2Dac3f96d93C11d385;\n  address private constant _walletPublicSale  = 0xc3691f6e9D1eB05B02CE85B4C7c86D72a06B3cF7;\n  address private constant _walletReserve     = 0xD90918CB8adF7daEbaD19AB53bCe2917f8e36077;\n\n  uint    private immutable _created = block.timestamp;\n\n  bool    private _mintedCoreTeamQ1  = false;\n  bool    private _mintedCoreTeamQ2  = false;\n  bool    private _mintedCoreTeamQ3  = false;\n  bool    private _mintedCoreTeamQ4  = false;\n  bool    private _mintedCoreTeamQ5  = false;\n  bool    private _mintedCoreTeamQ6  = false;\n  uint    private _mintedPlayToEarn  = 0;\n  bool    private _mintedReserve     = false;\n\n  constructor() ERC20(\"Epher\", \"EPH\") ERC20Capped(_maxSupply) {\n    // Using ERC20._mint because of https://github.com/OpenZeppelin/openzeppelin-contracts/issues/2580\n    ERC20._mint(_walletAdvisors,    _maxSupply * 6 / 100);\n    ERC20._mint(_walletPrivateSale, _maxSupply * 6 / 100);\n    ERC20._mint(_walletPublicSale,  _maxSupply * 8 / 100);\n  }\n\n  function mintCoreTeamQ1() public onlyOwner {\n    require(block.timestamp > _created + 86400 * 30, \"Core Team Q1 tokens can only be minted 30 days after EPH token creation\");\n    require(!_mintedCoreTeamQ1, \"Core Team Q1 tokens were minted already\");\n\n    _mint(_walletCoreTeamM1, _maxSupply * 1 / 100);\n    _mint(_walletCoreTeamM2, _maxSupply * 1 / 100);\n    _mint(_walletCoreTeamM3, _maxSupply * 1 / 100);\n    _mintedCoreTeamQ1 = true;\n  }\n\n  function mintCoreTeamQ2() public onlyOwner {\n    require(block.timestamp > _created + 86400 * 120, \"Core Team Q2 tokens can only be minted 120 days after EPH token creation\");\n    require(!_mintedCoreTeamQ2, \"Core Team Q2 tokens were minted already\");\n\n    _mint(_walletCoreTeamM1, _maxSupply * 1 / 100);\n    _mint(_walletCoreTeamM2, _maxSupply * 1 / 100);\n    _mint(_walletCoreTeamM3, _maxSupply * 1 / 100);\n    _mintedCoreTeamQ2 = true;\n  }\n\n  function mintCoreTeamQ3() public onlyOwner {\n    require(block.timestamp > _created + 86400 * 210, \"Core Team Q3 tokens can only be minted 210 days after EPH token creation\");\n    require(!_mintedCoreTeamQ3, \"Core Team Q3 tokens were minted already\");\n\n    _mint(_walletCoreTeamM1, _maxSupply * 1 / 100);\n    _mint(_walletCoreTeamM2, _maxSupply * 1 / 100);\n    _mint(_walletCoreTeamM3, _maxSupply * 1 / 100);\n    _mintedCoreTeamQ3 = true;\n  }\n\n  function mintCoreTeamQ4() public onlyOwner {\n    require(block.timestamp > _created + 86400 * 300, \"Core Team Q4 tokens can only be minted 300 days after EPH token creation\");\n    require(!_mintedCoreTeamQ4, \"Core Team Q4 tokens were minted already\");\n\n    _mint(_walletCoreTeamM1, _maxSupply * 1 / 100);\n    _mint(_walletCoreTeamM2, _maxSupply * 1 / 100);\n    _mint(_walletCoreTeamM3, _maxSupply * 1 / 100);\n    _mintedCoreTeamQ4 = true;\n  }\n\n  function mintCoreTeamQ5() public onlyOwner {\n    require(block.timestamp > _created + 86400 * 390, \"Core Team Q5 tokens can only be minted 390 days after EPH token creation\");\n    require(!_mintedCoreTeamQ5, \"Core Team Q5 tokens were minted already\");\n\n    _mint(_walletCoreTeamM1, _maxSupply * 1 / 100);\n    _mint(_walletCoreTeamM2, _maxSupply * 1 / 100);\n    _mint(_walletCoreTeamM3, _maxSupply * 1 / 100);\n    _mintedCoreTeamQ5 = true;\n  }\n\n  function mintCoreTeamQ6() public onlyOwner {\n    require(block.timestamp > _created + 86400 * 480, \"Core Team Q6 tokens can only be minted 480 days after EPH token creation\");\n    require(!_mintedCoreTeamQ6, \"Core Team Q6 tokens were minted already\");\n\n    _mint(_walletCoreTeamM1, _maxSupply * 2 / 100);\n    _mint(_walletCoreTeamM2, _maxSupply * 2 / 100);\n    _mint(_walletCoreTeamM3, _maxSupply * 1 / 100);\n    _mintedCoreTeamQ6 = true;\n  }\n\n  function mintPlayToEarn(address receiver, uint amount) public onlyOwner {\n    require(_mintedPlayToEarn + amount <= _maxSupply * 40 / 100, \"Play to Earn tokens were minted already\");\n\n    _mint(receiver, amount);\n    _mintedPlayToEarn += amount;\n  }\n\n  function mintReserve() public onlyOwner {\n    require(!_mintedReserve, \"Reserve tokens were minted already\");\n\n    _mint(_walletReserve, _maxSupply * 20 / 100);\n    _mintedReserve = true;\n  }\n\n}\n",
  "sourcePath": "/Users/agurodriguez/Code/contracts/contracts/EpherERC20.sol",
  "compiler": {
    "name": "solc",
    "version": "0.8.7+commit.e28d00a7.Emscripten.clang"
  },
  "schemaVersion": "3.3.3",
  "updatedAt": "2021-09-01T17:07:47.816Z",
  "devdoc": {
    "kind": "dev",
    "methods": {
      "allowance(address,address)": {
        "details": "See {IERC20-allowance}."
      },
      "approve(address,uint256)": {
        "details": "See {IERC20-approve}. Requirements: - `spender` cannot be the zero address."
      },
      "balanceOf(address)": {
        "details": "See {IERC20-balanceOf}."
      },
      "cap()": {
        "details": "Returns the cap on the token's total supply."
      },
      "decimals()": {
        "details": "Returns the number of decimals used to get its user representation. For example, if `decimals` equals `2`, a balance of `505` tokens should be displayed to a user as `5.05` (`505 / 10 ** 2`). Tokens usually opt for a value of 18, imitating the relationship between Ether and Wei. This is the value {ERC20} uses, unless this function is overridden; NOTE: This information is only used for _display_ purposes: it in no way affects any of the arithmetic of the contract, including {IERC20-balanceOf} and {IERC20-transfer}."
      },
      "decreaseAllowance(address,uint256)": {
        "details": "Atomically decreases the allowance granted to `spender` by the caller. This is an alternative to {approve} that can be used as a mitigation for problems described in {IERC20-approve}. Emits an {Approval} event indicating the updated allowance. Requirements: - `spender` cannot be the zero address. - `spender` must have allowance for the caller of at least `subtractedValue`."
      },
      "increaseAllowance(address,uint256)": {
        "details": "Atomically increases the allowance granted to `spender` by the caller. This is an alternative to {approve} that can be used as a mitigation for problems described in {IERC20-approve}. Emits an {Approval} event indicating the updated allowance. Requirements: - `spender` cannot be the zero address."
      },
      "name()": {
        "details": "Returns the name of the token."
      },
      "owner()": {
        "details": "Returns the address of the current owner."
      },
      "renounceOwnership()": {
        "details": "Leaves the contract without owner. It will not be possible to call `onlyOwner` functions anymore. Can only be called by the current owner. NOTE: Renouncing ownership will leave the contract without an owner, thereby removing any functionality that is only available to the owner."
      },
      "symbol()": {
        "details": "Returns the symbol of the token, usually a shorter version of the name."
      },
      "totalSupply()": {
        "details": "See {IERC20-totalSupply}."
      },
      "transfer(address,uint256)": {
        "details": "See {IERC20-transfer}. Requirements: - `recipient` cannot be the zero address. - the caller must have a balance of at least `amount`."
      },
      "transferFrom(address,address,uint256)": {
        "details": "See {IERC20-transferFrom}. Emits an {Approval} event indicating the updated allowance. This is not required by the EIP. See the note at the beginning of {ERC20}. Requirements: - `sender` and `recipient` cannot be the zero address. - `sender` must have a balance of at least `amount`. - the caller must have allowance for ``sender``'s tokens of at least `amount`."
      },
      "transferOwnership(address)": {
        "details": "Transfers ownership of the contract to a new account (`newOwner`). Can only be called by the current owner."
      }
    },
    "version": 1
  },
  "userdoc": {
    "kind": "user",
    "methods": {},
    "version": 1
  }
}