{
  "contractName": "EphereERC20",
  "abi": [
    {
      "inputs": [
        {
          "internalType": "address",
          "name": "pinkAntiBotAddress",
          "type": "address"
        }
      ],
      "stateMutability": "nonpayable",
      "type": "constructor"
    },
    {
      "anonymous": false,
      "inputs": [
        {
          "indexed": true,
          "internalType": "address",
          "name": "owner",
          "type": "address"
        },
        {
          "indexed": true,
          "internalType": "address",
          "name": "spender",
          "type": "address"
        },
        {
          "indexed": false,
          "internalType": "uint256",
          "name": "value",
          "type": "uint256"
        }
      ],
      "name": "Approval",
      "type": "event"
    },
    {
      "anonymous": false,
      "inputs": [
        {
          "indexed": true,
          "internalType": "address",
          "name": "previousOwner",
          "type": "address"
        },
        {
          "indexed": true,
          "internalType": "address",
          "name": "newOwner",
          "type": "address"
        }
      ],
      "name": "OwnershipTransferred",
      "type": "event"
    },
    {
      "anonymous": false,
      "inputs": [
        {
          "indexed": true,
          "internalType": "address",
          "name": "from",
          "type": "address"
        },
        {
          "indexed": true,
          "internalType": "address",
          "name": "to",
          "type": "address"
        },
        {
          "indexed": false,
          "internalType": "uint256",
          "name": "value",
          "type": "uint256"
        }
      ],
      "name": "Transfer",
      "type": "event"
    },
    {
      "inputs": [
        {
          "internalType": "address",
          "name": "owner",
          "type": "address"
        },
        {
          "internalType": "address",
          "name": "spender",
          "type": "address"
        }
      ],
      "name": "allowance",
      "outputs": [
        {
          "internalType": "uint256",
          "name": "",
          "type": "uint256"
        }
      ],
      "stateMutability": "view",
      "type": "function"
    },
    {
      "inputs": [
        {
          "internalType": "address",
          "name": "spender",
          "type": "address"
        },
        {
          "internalType": "uint256",
          "name": "amount",
          "type": "uint256"
        }
      ],
      "name": "approve",
      "outputs": [
        {
          "internalType": "bool",
          "name": "",
          "type": "bool"
        }
      ],
      "stateMutability": "nonpayable",
      "type": "function"
    },
    {
      "inputs": [
        {
          "internalType": "address",
          "name": "account",
          "type": "address"
        }
      ],
      "name": "balanceOf",
      "outputs": [
        {
          "internalType": "uint256",
          "name": "",
          "type": "uint256"
        }
      ],
      "stateMutability": "view",
      "type": "function"
    },
    {
      "inputs": [],
      "name": "cap",
      "outputs": [
        {
          "internalType": "uint256",
          "name": "",
          "type": "uint256"
        }
      ],
      "stateMutability": "view",
      "type": "function"
    },
    {
      "inputs": [],
      "name": "decimals",
      "outputs": [
        {
          "internalType": "uint8",
          "name": "",
          "type": "uint8"
        }
      ],
      "stateMutability": "view",
      "type": "function"
    },
    {
      "inputs": [
        {
          "internalType": "address",
          "name": "spender",
          "type": "address"
        },
        {
          "internalType": "uint256",
          "name": "subtractedValue",
          "type": "uint256"
        }
      ],
      "name": "decreaseAllowance",
      "outputs": [
        {
          "internalType": "bool",
          "name": "",
          "type": "bool"
        }
      ],
      "stateMutability": "nonpayable",
      "type": "function"
    },
    {
      "inputs": [
        {
          "internalType": "address",
          "name": "spender",
          "type": "address"
        },
        {
          "internalType": "uint256",
          "name": "addedValue",
          "type": "uint256"
        }
      ],
      "name": "increaseAllowance",
      "outputs": [
        {
          "internalType": "bool",
          "name": "",
          "type": "bool"
        }
      ],
      "stateMutability": "nonpayable",
      "type": "function"
    },
    {
      "inputs": [],
      "name": "name",
      "outputs": [
        {
          "internalType": "string",
          "name": "",
          "type": "string"
        }
      ],
      "stateMutability": "view",
      "type": "function"
    },
    {
      "inputs": [],
      "name": "owner",
      "outputs": [
        {
          "internalType": "address",
          "name": "",
          "type": "address"
        }
      ],
      "stateMutability": "view",
      "type": "function"
    },
    {
      "inputs": [],
      "name": "pinkAntiBot",
      "outputs": [
        {
          "internalType": "contract IPinkAntiBot",
          "name": "",
          "type": "address"
        }
      ],
      "stateMutability": "view",
      "type": "function"
    },
    {
      "inputs": [],
      "name": "pinkAntiBotEnabled",
      "outputs": [
        {
          "internalType": "bool",
          "name": "",
          "type": "bool"
        }
      ],
      "stateMutability": "view",
      "type": "function"
    },
    {
      "inputs": [],
      "name": "renounceOwnership",
      "outputs": [],
      "stateMutability": "nonpayable",
      "type": "function"
    },
    {
      "inputs": [],
      "name": "symbol",
      "outputs": [
        {
          "internalType": "string",
          "name": "",
          "type": "string"
        }
      ],
      "stateMutability": "view",
      "type": "function"
    },
    {
      "inputs": [],
      "name": "totalSupply",
      "outputs": [
        {
          "internalType": "uint256",
          "name": "",
          "type": "uint256"
        }
      ],
      "stateMutability": "view",
      "type": "function"
    },
    {
      "inputs": [
        {
          "internalType": "address",
          "name": "recipient",
          "type": "address"
        },
        {
          "internalType": "uint256",
          "name": "amount",
          "type": "uint256"
        }
      ],
      "name": "transfer",
      "outputs": [
        {
          "internalType": "bool",
          "name": "",
          "type": "bool"
        }
      ],
      "stateMutability": "nonpayable",
      "type": "function"
    },
    {
      "inputs": [
        {
          "internalType": "address",
          "name": "sender",
          "type": "address"
        },
        {
          "internalType": "address",
          "name": "recipient",
          "type": "address"
        },
        {
          "internalType": "uint256",
          "name": "amount",
          "type": "uint256"
        }
      ],
      "name": "transferFrom",
      "outputs": [
        {
          "internalType": "bool",
          "name": "",
          "type": "bool"
        }
      ],
      "stateMutability": "nonpayable",
      "type": "function"
    },
    {
      "inputs": [
        {
          "internalType": "address",
          "name": "newOwner",
          "type": "address"
        }
      ],
      "name": "transferOwnership",
      "outputs": [],
      "stateMutability": "nonpayable",
      "type": "function"
    },
    {
      "inputs": [],
      "name": "mintAdvisorsTokens",
      "outputs": [],
      "stateMutability": "nonpayable",
      "type": "function"
    },
    {
      "inputs": [],
      "name": "mintCoreTeamTokens",
      "outputs": [],
      "stateMutability": "nonpayable",
      "type": "function"
    },
    {
      "inputs": [],
      "name": "mintMarketingTokens",
      "outputs": [],
      "stateMutability": "nonpayable",
      "type": "function"
    },
    {
      "inputs": [],
      "name": "mintPlayToEarnTokens",
      "outputs": [],
      "stateMutability": "nonpayable",
      "type": "function"
    },
    {
      "inputs": [],
      "name": "mintPrivateSaleTokens",
      "outputs": [],
      "stateMutability": "nonpayable",
      "type": "function"
    }
  ],
  "bytecode": "0x60a06040523480156200001157600080fd5b5060405162001a2d38038062001a2d8339810160408190526200003491620003ba565b604080518082018252600681526545706865726560d01b6020808301918252835180850190945260038085526208aa0960eb1b9185019190915282516af8277896582678ac00000094926200008a929162000314565b508051620000a090600490602084019062000314565b50505060008111620000f95760405162461bcd60e51b815260206004820152601560248201527f45524332304361707065643a206361702069732030000000000000000000000060448201526064015b60405180910390fd5b6080526200010733620001dd565b62000143336064620001266af8277896582678ac000000601962000402565b62000132919062000424565b6200022f60201b62000d6f1760201c565b6001600160a01b0381163314620001d657600a80546001600160a01b0319166001600160a01b0383169081179091556040516318e02bd960e01b81523360048201526318e02bd990602401600060405180830381600087803b158015620001a957600080fd5b505af1158015620001be573d6000803e3d6000fd5b5050600a805460ff60a01b1916600160a01b17905550505b506200049f565b600580546001600160a01b038381166001600160a01b0319831681179093556040519116919082907f8be0079c531659141344cd1fd0a4f28419497f9722a3daafe3b4186f6b6457e090600090a35050565b6001600160a01b038216620002875760405162461bcd60e51b815260206004820152601f60248201527f45524332303a206d696e7420746f20746865207a65726f2061646472657373006044820152606401620000f0565b80600260008282546200029b919062000447565b90915550506001600160a01b03821660009081526020819052604081208054839290620002ca90849062000447565b90915550506040518181526001600160a01b038316906000907fddf252ad1be2c89b69c2b068fc378daa952ba7f163c4a11628f55a4df523b3ef9060200160405180910390a35050565b828054620003229062000462565b90600052602060002090601f01602090048101928262000346576000855562000391565b82601f106200036157805160ff191683800117855562000391565b8280016001018555821562000391579182015b828111156200039157825182559160200191906001019062000374565b506200039f929150620003a3565b5090565b5b808211156200039f5760008155600101620003a4565b600060208284031215620003cd57600080fd5b81516001600160a01b0381168114620003e557600080fd5b9392505050565b634e487b7160e01b600052601160045260246000fd5b60008160001904831182151516156200041f576200041f620003ec565b500290565b6000826200044257634e487b7160e01b600052601260045260246000fd5b500490565b600082198211156200045d576200045d620003ec565b500190565b600181811c908216806200047757607f821691505b602082108114156200049957634e487b7160e01b600052602260045260246000fd5b50919050565b608051611572620004bb60003960006101d001526115726000f3fe608060405234801561001057600080fd5b50600436106101425760003560e01c8063715018a6116100b8578063a9059cbb1161007c578063a9059cbb14610297578063b0af7b58146102aa578063c26e51a6146102b2578063d53dcf14146102ba578063dd62ed3e146102ce578063f2fde38b1461030757600080fd5b8063715018a61461025b5780638da5cb5b146102635780638eb6262c1461027457806395d89b411461027c578063a457c2d71461028457600080fd5b806323b872dd1161010a57806323b872dd146101ac578063313ce567146101bf578063355274ea146101ce57806339509351146101f4578063407133d21461020757806370a082311461023257600080fd5b8063035dc9451461014757806303c7da391461015157806306fdde0314610159578063095ea7b31461017757806318160ddd1461019a575b600080fd5b61014f61031a565b005b61014f610479565b61016161062b565b60405161016e919061127c565b60405180910390f35b61018a6101853660046112cb565b6106bd565b604051901515815260200161016e565b6002545b60405190815260200161016e565b61018a6101ba3660046112f5565b6106d3565b6040516012815260200161016e565b7f000000000000000000000000000000000000000000000000000000000000000061019e565b61018a6102023660046112cb565b61077d565b600a5461021a906001600160a01b031681565b6040516001600160a01b03909116815260200161016e565b61019e610240366004611331565b6001600160a01b031660009081526020819052604090205490565b61014f6107b9565b6005546001600160a01b031661021a565b61014f6107ef565b6101616109a9565b61018a6102923660046112cb565b6109b8565b61018a6102a53660046112cb565b610a51565b61014f610a5e565b61014f610b95565b600a5461018a90600160a01b900460ff1681565b61019e6102dc366004611353565b6001600160a01b03918216600090815260016020908152604080832093909416825291909152205490565b61014f610315366004611331565b610cd4565b604080518082019091526009815268436f7265205465616d60b81b60208201526301e1338061034d8163622facd061139c565b4211610371836040518060600160405280602181526020016114c760219139610e4e565b906103985760405162461bcd60e51b815260040161038f919061127c565b60405180910390fd5b506005546001600160a01b031633146103c35760405162461bcd60e51b815260040161038f906113b4565b600654610100900460ff16156104275760405162461bcd60e51b8152602060048201526024808201527f436f7265205465616d20746f6b656e73207765726520616c7265616479206d696044820152631b9d195960e21b606482015260840161038f565b61046673b621e20f17aafc11ff7408d15b3449ab0dd3fc9360646104576af8277896582678ac00000060026113e9565b6104619190611408565b610d6f565b50506006805461ff001916610100179055565b6007546009116104d75760405162461bcd60e51b8152602060048201526024808201527f4d61726b6574696e6720746f6b656e73207765726520616c7265616479206d696044820152631b9d195960e21b606482015260840161038f565b6007546104e7906276a7006113e9565b6104f59063622facd061139c565b42106105326040518060600160405280602981526020016114e860299139604051806040016040528060018152602001600b60fb1b815250610e4e565b906105505760405162461bcd60e51b815260040161038f919061127c565b506007546105b85760006064806105736af8277896582678ac00000060066113e9565b61057d9190611408565b6105889060026113e9565b6105929190611408565b90506105b27384435fb5b645dd6290b9714f5a47482f2826b39d82610d6f565b50610614565b60006064806105d36af8277896582678ac00000060066113e9565b6105dd9190611408565b6105e89060016113e9565b6105f29190611408565b90506106127384435fb5b645dd6290b9714f5a47482f2826b39d82610d6f565b505b600780549060006106248361142a565b9190505550565b60606003805461063a90611445565b80601f016020809104026020016040519081016040528092919081815260200182805461066690611445565b80156106b35780601f10610688576101008083540402835291602001916106b3565b820191906000526020600020905b81548152906001019060200180831161069657829003601f168201915b5050505050905090565b60006106ca338484610e7a565b50600192915050565b60006106e0848484610f9e565b6001600160a01b0384166000908152600160209081526040808320338452909152902054828110156107655760405162461bcd60e51b815260206004820152602860248201527f45524332303a207472616e7366657220616d6f756e74206578636565647320616044820152676c6c6f77616e636560c01b606482015260840161038f565b6107728533858403610e7a565b506001949350505050565b3360008181526001602090815260408083206001600160a01b038716845290915281205490916106ca9185906107b490869061139c565b610e7a565b6005546001600160a01b031633146107e35760405162461bcd60e51b815260040161038f906113b4565b6107ed600061102e565b565b600854602f116108415760405162461bcd60e51b815260206004820152601e60248201527f4e6f7420656e6f75676820506c617920746f204561726e20746f6b656e730000604482015260640161038f565b6008546108519062278d006113e9565b61085f9063622facd061139c565b421061089c6040518060600160405280602c8152602001611511602c9139604051806040016040528060018152602001600b60fb1b815250610e4e565b906108ba5760405162461bcd60e51b815260040161038f919061127c565b506008546108f0576108eb73d90918cb8adf7daebad19ab53bce2917f8e360776a04bc55356c3a27ef600000610d6f565b610999565b60085460011415610932576108eb73d90918cb8adf7daebad19ab53bce2917f8e36077610461692db05f7f5686e94000006a04bc55356c3a27ef600000611480565b61099973d90918cb8adf7daebad19ab53bce2917f8e36077600160066002015461095c9190611480565b61097090690ef7920ad14f816000006113e9565b61098f692db05f7f5686e94000006a04bc55356c3a27ef600000611480565b6104619190611480565b600880549060006106248361142a565b60606004805461063a90611445565b3360009081526001602090815260408083206001600160a01b038616845290915281205482811015610a3a5760405162461bcd60e51b815260206004820152602560248201527f45524332303a2064656372656173656420616c6c6f77616e63652062656c6f77604482015264207a65726f60d81b606482015260840161038f565b610a473385858403610e7a565b5060019392505050565b60006106ca338484610f9e565b60408051808201909152600c81526b507269766174652053616c6560a01b60208201526000610a918163622facd061139c565b4211610ab5836040518060600160405280602181526020016114c760219139610e4e565b90610ad35760405162461bcd60e51b815260040161038f919061127c565b506005546001600160a01b03163314610afe5760405162461bcd60e51b815260040161038f906113b4565b60095460ff1615610b615760405162461bcd60e51b815260206004820152602760248201527f507269766174652053616c6520746f6b656e73207765726520616c7265616479604482015266081b5a5b9d195960ca1b606482015260840161038f565b610b9173f28fdc5ad77f1426a0cd7f2dac3f96d93c11d38560646104576af8277896582678ac00000060026113e9565b5050565b60408051808201909152600881526741647669736f727360c01b60208201526301e13380610bc78163622facd061139c565b4211610beb836040518060600160405280602181526020016114c760219139610e4e565b90610c095760405162461bcd60e51b815260040161038f919061127c565b506005546001600160a01b03163314610c345760405162461bcd60e51b815260040161038f906113b4565b60065460ff1615610c935760405162461bcd60e51b815260206004820152602360248201527f41647669736f727320746f6b656e73207765726520616c7265616479206d696e6044820152621d195960ea1b606482015260840161038f565b610cc373b86bfb0d2b11e2b86b63f7fbd995765474c71f3f60646104576af8277896582678ac00000060036113e9565b50506006805460ff19166001179055565b6005546001600160a01b03163314610cfe5760405162461bcd60e51b815260040161038f906113b4565b6001600160a01b038116610d635760405162461bcd60e51b815260206004820152602660248201527f4f776e61626c653a206e6577206f776e657220697320746865207a65726f206160448201526564647265737360d01b606482015260840161038f565b610d6c8161102e565b50565b6001600160a01b038216610dc55760405162461bcd60e51b815260206004820152601f60248201527f45524332303a206d696e7420746f20746865207a65726f206164647265737300604482015260640161038f565b8060026000828254610dd7919061139c565b90915550506001600160a01b03821660009081526020819052604081208054839290610e0490849061139c565b90915550506040518181526001600160a01b038316906000907fddf252ad1be2c89b69c2b068fc378daa952ba7f163c4a11628f55a4df523b3ef9060200160405180910390a35050565b60608282604051602001610e63929190611497565b604051602081830303815290604052905092915050565b6001600160a01b038316610edc5760405162461bcd60e51b8152602060048201526024808201527f45524332303a20617070726f76652066726f6d20746865207a65726f206164646044820152637265737360e01b606482015260840161038f565b6001600160a01b038216610f3d5760405162461bcd60e51b815260206004820152602260248201527f45524332303a20617070726f766520746f20746865207a65726f206164647265604482015261737360f01b606482015260840161038f565b6001600160a01b0383811660008181526001602090815260408083209487168084529482529182902085905590518481527f8c5be1e5ebec7d5bd14f71427d1e84f3dd0314c0f7b2291e5b200ac8c7c3b925910160405180910390a3505050565b600a546001600160a01b03161561101e57600a5460405163090ec10b60e31b81526001600160a01b03858116600483015284811660248301526044820184905290911690634876085890606401600060405180830381600087803b15801561100557600080fd5b505af1158015611019573d6000803e3d6000fd5b505050505b611029838383611080565b505050565b600580546001600160a01b038381166001600160a01b0319831681179093556040519116919082907f8be0079c531659141344cd1fd0a4f28419497f9722a3daafe3b4186f6b6457e090600090a35050565b6001600160a01b0383166110e45760405162461bcd60e51b815260206004820152602560248201527f45524332303a207472616e736665722066726f6d20746865207a65726f206164604482015264647265737360d81b606482015260840161038f565b6001600160a01b0382166111465760405162461bcd60e51b815260206004820152602360248201527f45524332303a207472616e7366657220746f20746865207a65726f206164647260448201526265737360e81b606482015260840161038f565b6001600160a01b038316600090815260208190526040902054818110156111be5760405162461bcd60e51b815260206004820152602660248201527f45524332303a207472616e7366657220616d6f756e7420657863656564732062604482015265616c616e636560d01b606482015260840161038f565b6001600160a01b038085166000908152602081905260408082208585039055918516815290812080548492906111f590849061139c565b92505081905550826001600160a01b0316846001600160a01b03167fddf252ad1be2c89b69c2b068fc378daa952ba7f163c4a11628f55a4df523b3ef8460405161124191815260200190565b60405180910390a35b50505050565b60005b8381101561126b578181015183820152602001611253565b8381111561124a5750506000910152565b602081526000825180602084015261129b816040850160208701611250565b601f01601f19169190910160400192915050565b80356001600160a01b03811681146112c657600080fd5b919050565b600080604083850312156112de57600080fd5b6112e7836112af565b946020939093013593505050565b60008060006060848603121561130a57600080fd5b611313846112af565b9250611321602085016112af565b9150604084013590509250925092565b60006020828403121561134357600080fd5b61134c826112af565b9392505050565b6000806040838503121561136657600080fd5b61136f836112af565b915061137d602084016112af565b90509250929050565b634e487b7160e01b600052601160045260246000fd5b600082198211156113af576113af611386565b500190565b6020808252818101527f4f776e61626c653a2063616c6c6572206973206e6f7420746865206f776e6572604082015260600190565b600081600019048311821515161561140357611403611386565b500290565b60008261142557634e487b7160e01b600052601260045260246000fd5b500490565b600060001982141561143e5761143e611386565b5060010190565b600181811c9082168061145957607f821691505b6020821081141561147a57634e487b7160e01b600052602260045260246000fd5b50919050565b60008282101561149257611492611386565b500390565b600083516114a9818460208801611250565b8351908301906114bd818360208801611250565b0194935050505056fe20746f6b656e732063616e6e6f74206265206d696e746564206265666f726520584d61726b6574696e6720746f6b656e732063616e6e6f74206265206d696e746564206265666f726520506c617920746f204561726e20746f6b656e732063616e6e6f74206265206d696e746564206265666f726520a264697066735822122083a13f4b13c4a70f876b6444bf569a32892be9c1d5181ae55dc9b15b966151f264736f6c634300080b0033",
  "immutableReferences": {
    "736": [
      {
        "length": 32,
        "start": 464
      }
    ]
  },
  "source": "// SPDX-License-Identifier: UNLICENSED\npragma solidity >=0.6.12;\n\nimport \"@openzeppelin/contracts/access/Ownable.sol\";\nimport \"@openzeppelin/contracts/token/ERC20/ERC20.sol\";\nimport \"@openzeppelin/contracts/token/ERC20/extensions/ERC20Capped.sol\";\n\nimport \"../third_party/pink-antibot/IPinkAntiBot.sol\";\n\ncontract EphereERC20 is ERC20Capped, Ownable {\n\n  struct Minted {\n    bool advisors;\n    bool coreTeam;\n    uint marketing;\n    uint playToEarn;\n    bool privateSale;\n  }\n\n  uint    private constant _maxSupply         = 300000000 * 10**18;\n\n  uint    private constant _advisorsSupply    = _maxSupply *  3 / 100;\n  uint    private constant _coreTeamSupply    = _maxSupply *  2 / 100;\n  uint    private constant _marketingSupply   = _maxSupply *  6 / 100;\n  uint    private constant _playToEarnSupply  = _maxSupply * 62 / 100;\n  uint    private constant _privateSaleSupply = _maxSupply *  2 / 100;\n\n  uint    private constant _playToEarnISupply = 5725080 * 10**18;\n  uint    private constant _playToEarnIDisc   = 215760 * 10**18;\n  uint    private constant _playToEarnPiDisc  = 70680 * 10**18;\n\n  address private constant _advisorsWallet    = 0xB86bfB0d2b11E2B86b63F7fbD995765474c71f3f;\n  address private constant _coreTeamWallet    = 0xB621E20f17aafC11ff7408D15B3449ab0dd3FC93;\n  address private constant _marketingWallet   = 0x84435fb5B645dd6290B9714f5a47482F2826b39D;\n  address private constant _playToEarnWallet  = 0xD90918CB8adF7daEbaD19AB53bCe2917f8e36077;\n  address private constant _privateSaleWallet = 0xf28FdC5aD77f1426A0cD7F2Dac3f96d93C11d385;\n\n  uint    private constant _listingDate       = 1647291600;         // Monday, March 14, 2022 9:00:00 PM\n  uint    private constant _oneMonth          = 30 * 24 * 60 * 60;  // 30 days\n  uint    private constant _oneQuarter        = 90 * 24 * 60 * 60;  // 90 days\n  uint    private constant _oneYear           = 365 * 24 * 60 * 60; // 365 days\n\n  Minted  private          _minted;\n\n  IPinkAntiBot  public     pinkAntiBot;\n  bool          public     pinkAntiBotEnabled;\n\n  constructor(address pinkAntiBotAddress) ERC20(\"Ephere\", \"EPH\") ERC20Capped(_maxSupply) {\n    // Minting 15% (Public Sale) + 10% (Liquidity Pool)\n    // Using ERC20._mint because of https://github.com/OpenZeppelin/openzeppelin-contracts/issues/2580\n    ERC20._mint(msg.sender, _maxSupply * 25 / 100);\n\n    // Setting pink-antibot\n    if (pinkAntiBotAddress != msg.sender) {\n      pinkAntiBot = IPinkAntiBot(pinkAntiBotAddress);\n      pinkAntiBot.setTokenOwner(msg.sender);\n      pinkAntiBotEnabled = true;\n    }\n  }\n\n  function _transfer(address sender, address recipient, uint256 amount) override internal virtual {\n    if (address(pinkAntiBot) != address(0)) {\n      pinkAntiBot.onPreTransferCheck(sender, recipient, amount);\n    }\n\n    super._transfer(sender, recipient, amount);\n  }\n\n  function mintAdvisorsTokens() public onlyAfterListing(\"Advisors\", _oneYear) onlyOwner {\n    require(_minted.advisors == false, \"Advisors tokens were already minted\");\n\n    ERC20._mint(_advisorsWallet, _advisorsSupply);\n    _minted.advisors = true;\n  }\n\n  function mintCoreTeamTokens() public onlyAfterListing(\"Core Team\", _oneYear) onlyOwner {\n    require(_minted.coreTeam == false, \"Core Team tokens were already minted\");\n\n    ERC20._mint(_coreTeamWallet, _coreTeamSupply);\n    _minted.coreTeam = true;\n  }\n\n  function mintMarketingTokens() public {\n    require(_minted.marketing < 9, \"Marketing tokens were already minted\");\n    require(block.timestamp < _listingDate + _oneQuarter * _minted.marketing, strcc(\"Marketing tokens cannot be minted before \", \"X\"));\n\n    if (_minted.marketing == 0) {\n      uint amount = _marketingSupply * 2 / 100;\n      ERC20._mint(_marketingWallet, amount);\n    } else {\n      uint amount = _marketingSupply * 1 / 100;\n      ERC20._mint(_marketingWallet, amount);\n    }\n\n    _minted.marketing++;\n  }\n\n  function mintPlayToEarnTokens() public {\n    require(_minted.playToEarn < 47, \"Not enough Play to Earn tokens\");\n    require(block.timestamp < _listingDate + _oneMonth * _minted.playToEarn, strcc(\"Play to Earn tokens cannot be minted before \", \"X\"));\n\n    if (_minted.playToEarn == 0) {\n      ERC20._mint(_playToEarnWallet, _playToEarnISupply);\n    } else if (_minted.playToEarn == 1) {\n      ERC20._mint(_playToEarnWallet, _playToEarnISupply - _playToEarnIDisc);\n    } else {\n      ERC20._mint(_playToEarnWallet, _playToEarnISupply - _playToEarnIDisc - _playToEarnPiDisc * (_minted.playToEarn - 1));\n    }\n\n    _minted.playToEarn++;\n  }\n\n  function mintPrivateSaleTokens() public onlyAfterListing(\"Private Sale\", 0) onlyOwner {\n    require(_minted.privateSale == false, \"Private Sale tokens were already minted\"); \n\n    ERC20._mint(_privateSaleWallet, _privateSaleSupply);\n  }\n\n  function strcc(string memory str1, string memory str2) private pure returns (string memory) {\n    return string(abi.encodePacked(str1, str2));\n  }\n\n  modifier onlyAfterListing(string memory allocation, uint cliff) {\n    require(block.timestamp > _listingDate + cliff, strcc(allocation, \" tokens cannot be minted before X\"));\n    _;\n  }\n\n}\n",
  "sourcePath": "/Users/agurodriguez/Code/contracts/contracts/EphereERC20.sol",
  "compiler": {
    "name": "solc",
    "version": "0.8.11+commit.d7f03943.Emscripten.clang"
  },
  "schemaVersion": "3.4.3",
  "updatedAt": "2022-02-15T20:16:25.002Z",
  "devdoc": {
    "kind": "dev",
    "methods": {
      "allowance(address,address)": {
        "details": "See {IERC20-allowance}."
      },
      "approve(address,uint256)": {
        "details": "See {IERC20-approve}. Requirements: - `spender` cannot be the zero address."
      },
      "balanceOf(address)": {
        "details": "See {IERC20-balanceOf}."
      },
      "cap()": {
        "details": "Returns the cap on the token's total supply."
      },
      "decimals()": {
        "details": "Returns the number of decimals used to get its user representation. For example, if `decimals` equals `2`, a balance of `505` tokens should be displayed to a user as `5.05` (`505 / 10 ** 2`). Tokens usually opt for a value of 18, imitating the relationship between Ether and Wei. This is the value {ERC20} uses, unless this function is overridden; NOTE: This information is only used for _display_ purposes: it in no way affects any of the arithmetic of the contract, including {IERC20-balanceOf} and {IERC20-transfer}."
      },
      "decreaseAllowance(address,uint256)": {
        "details": "Atomically decreases the allowance granted to `spender` by the caller. This is an alternative to {approve} that can be used as a mitigation for problems described in {IERC20-approve}. Emits an {Approval} event indicating the updated allowance. Requirements: - `spender` cannot be the zero address. - `spender` must have allowance for the caller of at least `subtractedValue`."
      },
      "increaseAllowance(address,uint256)": {
        "details": "Atomically increases the allowance granted to `spender` by the caller. This is an alternative to {approve} that can be used as a mitigation for problems described in {IERC20-approve}. Emits an {Approval} event indicating the updated allowance. Requirements: - `spender` cannot be the zero address."
      },
      "name()": {
        "details": "Returns the name of the token."
      },
      "owner()": {
        "details": "Returns the address of the current owner."
      },
      "renounceOwnership()": {
        "details": "Leaves the contract without owner. It will not be possible to call `onlyOwner` functions anymore. Can only be called by the current owner. NOTE: Renouncing ownership will leave the contract without an owner, thereby removing any functionality that is only available to the owner."
      },
      "symbol()": {
        "details": "Returns the symbol of the token, usually a shorter version of the name."
      },
      "totalSupply()": {
        "details": "See {IERC20-totalSupply}."
      },
      "transfer(address,uint256)": {
        "details": "See {IERC20-transfer}. Requirements: - `recipient` cannot be the zero address. - the caller must have a balance of at least `amount`."
      },
      "transferFrom(address,address,uint256)": {
        "details": "See {IERC20-transferFrom}. Emits an {Approval} event indicating the updated allowance. This is not required by the EIP. See the note at the beginning of {ERC20}. Requirements: - `sender` and `recipient` cannot be the zero address. - `sender` must have a balance of at least `amount`. - the caller must have allowance for ``sender``'s tokens of at least `amount`."
      },
      "transferOwnership(address)": {
        "details": "Transfers ownership of the contract to a new account (`newOwner`). Can only be called by the current owner."
      }
    },
    "version": 1
  },
  "userdoc": {
    "kind": "user",
    "methods": {},
    "version": 1
  }
}