{
  "contractName": "EpherePassportERC721",
  "abi": [
    {
      "inputs": [
        {
          "internalType": "uint256",
          "name": "maxSupply",
          "type": "uint256"
        }
      ],
      "stateMutability": "nonpayable",
      "type": "constructor"
    },
    {
      "anonymous": false,
      "inputs": [
        {
          "indexed": true,
          "internalType": "address",
          "name": "owner",
          "type": "address"
        },
        {
          "indexed": true,
          "internalType": "address",
          "name": "approved",
          "type": "address"
        },
        {
          "indexed": true,
          "internalType": "uint256",
          "name": "tokenId",
          "type": "uint256"
        }
      ],
      "name": "Approval",
      "type": "event"
    },
    {
      "anonymous": false,
      "inputs": [
        {
          "indexed": true,
          "internalType": "address",
          "name": "owner",
          "type": "address"
        },
        {
          "indexed": true,
          "internalType": "address",
          "name": "operator",
          "type": "address"
        },
        {
          "indexed": false,
          "internalType": "bool",
          "name": "approved",
          "type": "bool"
        }
      ],
      "name": "ApprovalForAll",
      "type": "event"
    },
    {
      "anonymous": false,
      "inputs": [
        {
          "indexed": false,
          "internalType": "address",
          "name": "account",
          "type": "address"
        }
      ],
      "name": "Paused",
      "type": "event"
    },
    {
      "anonymous": false,
      "inputs": [
        {
          "indexed": true,
          "internalType": "bytes32",
          "name": "role",
          "type": "bytes32"
        },
        {
          "indexed": true,
          "internalType": "bytes32",
          "name": "previousAdminRole",
          "type": "bytes32"
        },
        {
          "indexed": true,
          "internalType": "bytes32",
          "name": "newAdminRole",
          "type": "bytes32"
        }
      ],
      "name": "RoleAdminChanged",
      "type": "event"
    },
    {
      "anonymous": false,
      "inputs": [
        {
          "indexed": true,
          "internalType": "bytes32",
          "name": "role",
          "type": "bytes32"
        },
        {
          "indexed": true,
          "internalType": "address",
          "name": "account",
          "type": "address"
        },
        {
          "indexed": true,
          "internalType": "address",
          "name": "sender",
          "type": "address"
        }
      ],
      "name": "RoleGranted",
      "type": "event"
    },
    {
      "anonymous": false,
      "inputs": [
        {
          "indexed": true,
          "internalType": "bytes32",
          "name": "role",
          "type": "bytes32"
        },
        {
          "indexed": true,
          "internalType": "address",
          "name": "account",
          "type": "address"
        },
        {
          "indexed": true,
          "internalType": "address",
          "name": "sender",
          "type": "address"
        }
      ],
      "name": "RoleRevoked",
      "type": "event"
    },
    {
      "anonymous": false,
      "inputs": [
        {
          "indexed": true,
          "internalType": "address",
          "name": "from",
          "type": "address"
        },
        {
          "indexed": true,
          "internalType": "address",
          "name": "to",
          "type": "address"
        },
        {
          "indexed": true,
          "internalType": "uint256",
          "name": "tokenId",
          "type": "uint256"
        }
      ],
      "name": "Transfer",
      "type": "event"
    },
    {
      "anonymous": false,
      "inputs": [
        {
          "indexed": false,
          "internalType": "address",
          "name": "account",
          "type": "address"
        }
      ],
      "name": "Unpaused",
      "type": "event"
    },
    {
      "inputs": [],
      "name": "DEFAULT_ADMIN_ROLE",
      "outputs": [
        {
          "internalType": "bytes32",
          "name": "",
          "type": "bytes32"
        }
      ],
      "stateMutability": "view",
      "type": "function"
    },
    {
      "inputs": [],
      "name": "MINTER_ROLE",
      "outputs": [
        {
          "internalType": "bytes32",
          "name": "",
          "type": "bytes32"
        }
      ],
      "stateMutability": "view",
      "type": "function"
    },
    {
      "inputs": [],
      "name": "PAUSER_ROLE",
      "outputs": [
        {
          "internalType": "bytes32",
          "name": "",
          "type": "bytes32"
        }
      ],
      "stateMutability": "view",
      "type": "function"
    },
    {
      "inputs": [
        {
          "internalType": "address",
          "name": "to",
          "type": "address"
        },
        {
          "internalType": "uint256",
          "name": "tokenId",
          "type": "uint256"
        }
      ],
      "name": "approve",
      "outputs": [],
      "stateMutability": "nonpayable",
      "type": "function"
    },
    {
      "inputs": [
        {
          "internalType": "address",
          "name": "owner",
          "type": "address"
        }
      ],
      "name": "balanceOf",
      "outputs": [
        {
          "internalType": "uint256",
          "name": "",
          "type": "uint256"
        }
      ],
      "stateMutability": "view",
      "type": "function"
    },
    {
      "inputs": [
        {
          "internalType": "uint256",
          "name": "tokenId",
          "type": "uint256"
        }
      ],
      "name": "getApproved",
      "outputs": [
        {
          "internalType": "address",
          "name": "",
          "type": "address"
        }
      ],
      "stateMutability": "view",
      "type": "function"
    },
    {
      "inputs": [
        {
          "internalType": "bytes32",
          "name": "role",
          "type": "bytes32"
        }
      ],
      "name": "getRoleAdmin",
      "outputs": [
        {
          "internalType": "bytes32",
          "name": "",
          "type": "bytes32"
        }
      ],
      "stateMutability": "view",
      "type": "function"
    },
    {
      "inputs": [
        {
          "internalType": "bytes32",
          "name": "role",
          "type": "bytes32"
        },
        {
          "internalType": "uint256",
          "name": "index",
          "type": "uint256"
        }
      ],
      "name": "getRoleMember",
      "outputs": [
        {
          "internalType": "address",
          "name": "",
          "type": "address"
        }
      ],
      "stateMutability": "view",
      "type": "function"
    },
    {
      "inputs": [
        {
          "internalType": "bytes32",
          "name": "role",
          "type": "bytes32"
        }
      ],
      "name": "getRoleMemberCount",
      "outputs": [
        {
          "internalType": "uint256",
          "name": "",
          "type": "uint256"
        }
      ],
      "stateMutability": "view",
      "type": "function"
    },
    {
      "inputs": [
        {
          "internalType": "bytes32",
          "name": "role",
          "type": "bytes32"
        },
        {
          "internalType": "address",
          "name": "account",
          "type": "address"
        }
      ],
      "name": "grantRole",
      "outputs": [],
      "stateMutability": "nonpayable",
      "type": "function"
    },
    {
      "inputs": [
        {
          "internalType": "bytes32",
          "name": "role",
          "type": "bytes32"
        },
        {
          "internalType": "address",
          "name": "account",
          "type": "address"
        }
      ],
      "name": "hasRole",
      "outputs": [
        {
          "internalType": "bool",
          "name": "",
          "type": "bool"
        }
      ],
      "stateMutability": "view",
      "type": "function"
    },
    {
      "inputs": [
        {
          "internalType": "address",
          "name": "owner",
          "type": "address"
        },
        {
          "internalType": "address",
          "name": "operator",
          "type": "address"
        }
      ],
      "name": "isApprovedForAll",
      "outputs": [
        {
          "internalType": "bool",
          "name": "",
          "type": "bool"
        }
      ],
      "stateMutability": "view",
      "type": "function"
    },
    {
      "inputs": [],
      "name": "name",
      "outputs": [
        {
          "internalType": "string",
          "name": "",
          "type": "string"
        }
      ],
      "stateMutability": "view",
      "type": "function"
    },
    {
      "inputs": [
        {
          "internalType": "uint256",
          "name": "tokenId",
          "type": "uint256"
        }
      ],
      "name": "ownerOf",
      "outputs": [
        {
          "internalType": "address",
          "name": "",
          "type": "address"
        }
      ],
      "stateMutability": "view",
      "type": "function"
    },
    {
      "inputs": [],
      "name": "paused",
      "outputs": [
        {
          "internalType": "bool",
          "name": "",
          "type": "bool"
        }
      ],
      "stateMutability": "view",
      "type": "function"
    },
    {
      "inputs": [
        {
          "internalType": "bytes32",
          "name": "role",
          "type": "bytes32"
        },
        {
          "internalType": "address",
          "name": "account",
          "type": "address"
        }
      ],
      "name": "renounceRole",
      "outputs": [],
      "stateMutability": "nonpayable",
      "type": "function"
    },
    {
      "inputs": [
        {
          "internalType": "bytes32",
          "name": "role",
          "type": "bytes32"
        },
        {
          "internalType": "address",
          "name": "account",
          "type": "address"
        }
      ],
      "name": "revokeRole",
      "outputs": [],
      "stateMutability": "nonpayable",
      "type": "function"
    },
    {
      "inputs": [
        {
          "internalType": "address",
          "name": "from",
          "type": "address"
        },
        {
          "internalType": "address",
          "name": "to",
          "type": "address"
        },
        {
          "internalType": "uint256",
          "name": "tokenId",
          "type": "uint256"
        }
      ],
      "name": "safeTransferFrom",
      "outputs": [],
      "stateMutability": "nonpayable",
      "type": "function"
    },
    {
      "inputs": [
        {
          "internalType": "address",
          "name": "from",
          "type": "address"
        },
        {
          "internalType": "address",
          "name": "to",
          "type": "address"
        },
        {
          "internalType": "uint256",
          "name": "tokenId",
          "type": "uint256"
        },
        {
          "internalType": "bytes",
          "name": "_data",
          "type": "bytes"
        }
      ],
      "name": "safeTransferFrom",
      "outputs": [],
      "stateMutability": "nonpayable",
      "type": "function"
    },
    {
      "inputs": [
        {
          "internalType": "address",
          "name": "operator",
          "type": "address"
        },
        {
          "internalType": "bool",
          "name": "approved",
          "type": "bool"
        }
      ],
      "name": "setApprovalForAll",
      "outputs": [],
      "stateMutability": "nonpayable",
      "type": "function"
    },
    {
      "inputs": [],
      "name": "symbol",
      "outputs": [
        {
          "internalType": "string",
          "name": "",
          "type": "string"
        }
      ],
      "stateMutability": "view",
      "type": "function"
    },
    {
      "inputs": [
        {
          "internalType": "uint256",
          "name": "index",
          "type": "uint256"
        }
      ],
      "name": "tokenByIndex",
      "outputs": [
        {
          "internalType": "uint256",
          "name": "",
          "type": "uint256"
        }
      ],
      "stateMutability": "view",
      "type": "function"
    },
    {
      "inputs": [
        {
          "internalType": "address",
          "name": "owner",
          "type": "address"
        },
        {
          "internalType": "uint256",
          "name": "index",
          "type": "uint256"
        }
      ],
      "name": "tokenOfOwnerByIndex",
      "outputs": [
        {
          "internalType": "uint256",
          "name": "",
          "type": "uint256"
        }
      ],
      "stateMutability": "view",
      "type": "function"
    },
    {
      "inputs": [],
      "name": "totalSupply",
      "outputs": [
        {
          "internalType": "uint256",
          "name": "",
          "type": "uint256"
        }
      ],
      "stateMutability": "view",
      "type": "function"
    },
    {
      "inputs": [
        {
          "internalType": "address",
          "name": "from",
          "type": "address"
        },
        {
          "internalType": "address",
          "name": "to",
          "type": "address"
        },
        {
          "internalType": "uint256",
          "name": "tokenId",
          "type": "uint256"
        }
      ],
      "name": "transferFrom",
      "outputs": [],
      "stateMutability": "nonpayable",
      "type": "function"
    },
    {
      "inputs": [
        {
          "internalType": "address",
          "name": "to",
          "type": "address"
        }
      ],
      "name": "mint",
      "outputs": [],
      "stateMutability": "nonpayable",
      "type": "function"
    },
    {
      "inputs": [
        {
          "internalType": "uint256",
          "name": "maxSupply",
          "type": "uint256"
        }
      ],
      "name": "setMaxSupply",
      "outputs": [],
      "stateMutability": "nonpayable",
      "type": "function"
    },
    {
      "inputs": [
        {
          "internalType": "uint256",
          "name": "tokenId",
          "type": "uint256"
        }
      ],
      "name": "tokenURI",
      "outputs": [
        {
          "internalType": "string",
          "name": "",
          "type": "string"
        }
      ],
      "stateMutability": "view",
      "type": "function"
    },
    {
      "inputs": [],
      "name": "pause",
      "outputs": [],
      "stateMutability": "nonpayable",
      "type": "function"
    },
    {
      "inputs": [],
      "name": "unpause",
      "outputs": [],
      "stateMutability": "nonpayable",
      "type": "function"
    },
    {
      "inputs": [
        {
          "internalType": "bytes4",
          "name": "interfaceId",
          "type": "bytes4"
        }
      ],
      "name": "supportsInterface",
      "outputs": [
        {
          "internalType": "bool",
          "name": "",
          "type": "bool"
        }
      ],
      "stateMutability": "view",
      "type": "function"
    }
  ],
  "bytecode": "0x60806040523480156200001157600080fd5b50604051620027ca380380620027ca833981016040819052620000349162000325565b604080518082018252600f81526e115c1a195c994814185cdcdc1bdc9d608a1b60208083019182528351808501909452600384526245505360e81b90840152815191929162000086916002916200027f565b5080516200009c9060039060208401906200027f565b5050600c805460ff1916905550600d819055620000bb6000336200011a565b620000e77f9f2df0fed2c77648de5860a4cc508cd0818c85b8b8a1ab4ceeef8d981c8956a6336200011a565b620001137f65d7a28e3265b37a6474929f336521b332c1681b933f6cb9f3376673440d862a336200011a565b506200037c565b6200012682826200012a565b5050565b6200014182826200016d60201b62000e541760201c565b60008281526001602090815260409091206200016891839062000ed86200020d821b17901c565b505050565b6000828152602081815260408083206001600160a01b038516845290915290205460ff1662000126576000828152602081815260408083206001600160a01b03851684529091529020805460ff19166001179055620001c93390565b6001600160a01b0316816001600160a01b0316837f2f8788117e7eff1d82e926ec794901d17c78024a50270940304540a733656f0d60405160405180910390a45050565b600062000224836001600160a01b0384166200022d565b90505b92915050565b6000818152600183016020526040812054620002765750815460018181018455600084815260208082209093018490558454848252828601909352604090209190915562000227565b50600062000227565b8280546200028d906200033f565b90600052602060002090601f016020900481019282620002b15760008555620002fc565b82601f10620002cc57805160ff1916838001178555620002fc565b82800160010185558215620002fc579182015b82811115620002fc578251825591602001919060010190620002df565b506200030a9291506200030e565b5090565b5b808211156200030a57600081556001016200030f565b6000602082840312156200033857600080fd5b5051919050565b600181811c908216806200035457607f821691505b602082108114156200037657634e487b7160e01b600052602260045260246000fd5b50919050565b61243e806200038c6000396000f3fe608060405234801561001057600080fd5b50600436106101e55760003560e01c80636a6278421161010f578063a22cb465116100a2578063d539139311610071578063d5391393146103f7578063d547741f1461041e578063e63ab1e914610431578063e985e9c51461045857600080fd5b8063a22cb465146103ab578063b88d4fde146103be578063c87b56dd146103d1578063ca15c873146103e457600080fd5b80639010d07c116100de5780639010d07c1461037557806391d148541461038857806395d89b411461039b578063a217fddf146103a357600080fd5b80636a627842146103345780636f8b44b01461034757806370a082311461035a5780638456cb591461036d57600080fd5b80632f2ff15d1161018757806342842e0e1161015657806342842e0e146102f05780634f6ccce7146103035780635c975abb146103165780636352211e1461032157600080fd5b80632f2ff15d146102af5780632f745c59146102c257806336568abe146102d55780633f4ba83a146102e857600080fd5b8063095ea7b3116101c3578063095ea7b31461025257806318160ddd1461026757806323b872dd14610279578063248a9ca31461028c57600080fd5b806301ffc9a7146101ea57806306fdde0314610212578063081812fc14610227575b600080fd5b6101fd6101f8366004611e33565b610494565b60405190151581526020015b60405180910390f35b61021a6104a5565b6040516102099190611ea8565b61023a610235366004611ebb565b610537565b6040516001600160a01b039091168152602001610209565b610265610260366004611ef0565b6105d1565b005b600a545b604051908152602001610209565b610265610287366004611f1a565b6106e7565b61026b61029a366004611ebb565b60009081526020819052604090206001015490565b6102656102bd366004611f56565b610718565b61026b6102d0366004611ef0565b61073e565b6102656102e3366004611f56565b6107d4565b610265610852565b6102656102fe366004611f1a565b6108f1565b61026b610311366004611ebb565b61090c565b600c5460ff166101fd565b61023a61032f366004611ebb565b61099f565b610265610342366004611f82565b610a16565b610265610355366004611ebb565b610ae1565b61026b610368366004611f82565b610bb7565b610265610c3e565b61023a610383366004611f9d565b610cd9565b6101fd610396366004611f56565b610cf8565b61021a610d21565b61026b600081565b6102656103b9366004611fbf565b610d30565b6102656103cc366004612011565b610d3b565b61021a6103df366004611ebb565b610d73565b61026b6103f2366004611ebb565b610e17565b61026b7f9f2df0fed2c77648de5860a4cc508cd0818c85b8b8a1ab4ceeef8d981c8956a681565b61026561042c366004611f56565b610e2e565b61026b7f65d7a28e3265b37a6474929f336521b332c1681b933f6cb9f3376673440d862a81565b6101fd6104663660046120ed565b6001600160a01b03918216600090815260076020908152604080832093909416825291909152205460ff1690565b600061049f82610eed565b92915050565b6060600280546104b490612117565b80601f01602080910402602001604051908101604052809291908181526020018280546104e090612117565b801561052d5780601f106105025761010080835404028352916020019161052d565b820191906000526020600020905b81548152906001019060200180831161051057829003601f168201915b5050505050905090565b6000818152600460205260408120546001600160a01b03166105b55760405162461bcd60e51b815260206004820152602c60248201527f4552433732313a20617070726f76656420717565727920666f72206e6f6e657860448201526b34b9ba32b73a103a37b5b2b760a11b60648201526084015b60405180910390fd5b506000908152600660205260409020546001600160a01b031690565b60006105dc8261099f565b9050806001600160a01b0316836001600160a01b0316141561064a5760405162461bcd60e51b815260206004820152602160248201527f4552433732313a20617070726f76616c20746f2063757272656e74206f776e656044820152603960f91b60648201526084016105ac565b336001600160a01b038216148061066657506106668133610466565b6106d85760405162461bcd60e51b815260206004820152603860248201527f4552433732313a20617070726f76652063616c6c6572206973206e6f74206f7760448201527f6e6572206e6f7220617070726f76656420666f7220616c6c000000000000000060648201526084016105ac565b6106e28383610f12565b505050565b6106f13382610f80565b61070d5760405162461bcd60e51b81526004016105ac90612152565b6106e2838383611077565b6000828152602081905260409020600101546107348133611222565b6106e28383611286565b600061074983610bb7565b82106107ab5760405162461bcd60e51b815260206004820152602b60248201527f455243373231456e756d657261626c653a206f776e657220696e646578206f7560448201526a74206f6620626f756e647360a81b60648201526084016105ac565b506001600160a01b03919091166000908152600860209081526040808320938352929052205490565b6001600160a01b03811633146108445760405162461bcd60e51b815260206004820152602f60248201527f416363657373436f6e74726f6c3a2063616e206f6e6c792072656e6f756e636560448201526e103937b632b9903337b91039b2b63360891b60648201526084016105ac565b61084e82826112a8565b5050565b61087c7f65d7a28e3265b37a6474929f336521b332c1681b933f6cb9f3376673440d862a33610cf8565b6108e75760405162461bcd60e51b815260206004820152603660248201527f45706865726550617373706f72744552433732313a206d75737420686176652060448201527570617573657220726f6c6520746f20756e706175736560501b60648201526084016105ac565b6108ef6112ca565b565b6106e283838360405180602001604052806000815250610d3b565b6000610917600a5490565b821061097a5760405162461bcd60e51b815260206004820152602c60248201527f455243373231456e756d657261626c653a20676c6f62616c20696e646578206f60448201526b7574206f6620626f756e647360a01b60648201526084016105ac565b600a828154811061098d5761098d6121a3565b90600052602060002001549050919050565b6000818152600460205260408120546001600160a01b03168061049f5760405162461bcd60e51b815260206004820152602960248201527f4552433732313a206f776e657220717565727920666f72206e6f6e657869737460448201526832b73a103a37b5b2b760b91b60648201526084016105ac565b610a407f9f2df0fed2c77648de5860a4cc508cd0818c85b8b8a1ab4ceeef8d981c8956a633610cf8565b610a5c5760405162461bcd60e51b81526004016105ac906121b9565b600d54600a5410610acc5760405162461bcd60e51b815260206004820152603460248201527f45706865726550617373706f72744552433732313a2063616e6e6f7420657863604482015273656564206d617820746f74616c20737570706c7960601b60648201526084016105ac565b610ade81610ad9600a5490565b61135d565b50565b610b0b7f9f2df0fed2c77648de5860a4cc508cd0818c85b8b8a1ab4ceeef8d981c8956a633610cf8565b610b275760405162461bcd60e51b81526004016105ac906121b9565b600d548111610bb25760405162461bcd60e51b815260206004820152604b60248201527f45706865726550617373706f72744552433732313a206e6577206d617820737560448201527f70706c79206d75737420626520626967676572207468616e2063757272656e7460648201526a206d617820737570706c7960a81b608482015260a4016105ac565b600d55565b60006001600160a01b038216610c225760405162461bcd60e51b815260206004820152602a60248201527f4552433732313a2062616c616e636520717565727920666f7220746865207a65604482015269726f206164647265737360b01b60648201526084016105ac565b506001600160a01b031660009081526005602052604090205490565b610c687f65d7a28e3265b37a6474929f336521b332c1681b933f6cb9f3376673440d862a33610cf8565b610cd15760405162461bcd60e51b815260206004820152603460248201527f45706865726550617373706f72744552433732313a206d75737420686176652060448201527370617573657220726f6c6520746f20706175736560601b60648201526084016105ac565b6108ef6114ab565b6000828152600160205260408120610cf19083611526565b9392505050565b6000918252602082815260408084206001600160a01b0393909316845291905290205460ff1690565b6060600380546104b490612117565b61084e338383611532565b610d453383610f80565b610d615760405162461bcd60e51b81526004016105ac90612152565b610d6d84848484611601565b50505050565b6000818152600460205260409020546060906001600160a01b0316610df85760405162461bcd60e51b815260206004820152603560248201527f45706865726550617373706f72744552433732313a20555249207175657279206044820152743337b9103737b732bc34b9ba32b73a103a37b5b2b760591b60648201526084016105ac565b6040518060800160405280604a81526020016123bf604a913992915050565b600081815260016020526040812061049f90611634565b600082815260208190526040902060010154610e4a8133611222565b6106e283836112a8565b610e5e8282610cf8565b61084e576000828152602081815260408083206001600160a01b03851684529091529020805460ff19166001179055610e943390565b6001600160a01b0316816001600160a01b0316837f2f8788117e7eff1d82e926ec794901d17c78024a50270940304540a733656f0d60405160405180910390a45050565b6000610cf1836001600160a01b03841661163e565b60006001600160e01b0319821663780e9d6360e01b148061049f575061049f8261168d565b600081815260066020526040902080546001600160a01b0319166001600160a01b0384169081179091558190610f478261099f565b6001600160a01b03167f8c5be1e5ebec7d5bd14f71427d1e84f3dd0314c0f7b2291e5b200ac8c7c3b92560405160405180910390a45050565b6000818152600460205260408120546001600160a01b0316610ff95760405162461bcd60e51b815260206004820152602c60248201527f4552433732313a206f70657261746f7220717565727920666f72206e6f6e657860448201526b34b9ba32b73a103a37b5b2b760a11b60648201526084016105ac565b60006110048361099f565b9050806001600160a01b0316846001600160a01b0316148061103f5750836001600160a01b031661103484610537565b6001600160a01b0316145b8061106f57506001600160a01b0380821660009081526007602090815260408083209388168352929052205460ff165b949350505050565b826001600160a01b031661108a8261099f565b6001600160a01b0316146110f25760405162461bcd60e51b815260206004820152602960248201527f4552433732313a207472616e73666572206f6620746f6b656e2074686174206960448201526839903737ba1037bbb760b91b60648201526084016105ac565b6001600160a01b0382166111545760405162461bcd60e51b8152602060048201526024808201527f4552433732313a207472616e7366657220746f20746865207a65726f206164646044820152637265737360e01b60648201526084016105ac565b61115f8383836116cd565b61116a600082610f12565b6001600160a01b0383166000908152600560205260408120805460019290611193908490612222565b90915550506001600160a01b03821660009081526005602052604081208054600192906111c1908490612239565b909155505060008181526004602052604080822080546001600160a01b0319166001600160a01b0386811691821790925591518493918716917fddf252ad1be2c89b69c2b068fc378daa952ba7f163c4a11628f55a4df523b3ef91a4505050565b61122c8282610cf8565b61084e57611244816001600160a01b031660146116d8565b61124f8360206116d8565b604051602001611260929190612251565b60408051601f198184030181529082905262461bcd60e51b82526105ac91600401611ea8565b6112908282610e54565b60008281526001602052604090206106e29082610ed8565b6112b28282611874565b60008281526001602052604090206106e290826118d9565b600c5460ff166113135760405162461bcd60e51b815260206004820152601460248201527314185d5cd8589b194e881b9bdd081c185d5cd95960621b60448201526064016105ac565b600c805460ff191690557f5db9ee0a495bf2e6ff9c91a7834c1ba4fdd244a5e8aa4e537bd38aeae4b073aa335b6040516001600160a01b03909116815260200160405180910390a1565b6001600160a01b0382166113b35760405162461bcd60e51b815260206004820181905260248201527f4552433732313a206d696e7420746f20746865207a65726f206164647265737360448201526064016105ac565b6000818152600460205260409020546001600160a01b0316156114185760405162461bcd60e51b815260206004820152601c60248201527f4552433732313a20746f6b656e20616c7265616479206d696e7465640000000060448201526064016105ac565b611424600083836116cd565b6001600160a01b038216600090815260056020526040812080546001929061144d908490612239565b909155505060008181526004602052604080822080546001600160a01b0319166001600160a01b03861690811790915590518392907fddf252ad1be2c89b69c2b068fc378daa952ba7f163c4a11628f55a4df523b3ef908290a45050565b600c5460ff16156114f15760405162461bcd60e51b815260206004820152601060248201526f14185d5cd8589b194e881c185d5cd95960821b60448201526064016105ac565b600c805460ff191660011790557f62e78cea01bee320cd4e420270b5ea74000d11b0c9f74754ebdbfc544b05a2586113403390565b6000610cf183836118ee565b816001600160a01b0316836001600160a01b031614156115945760405162461bcd60e51b815260206004820152601960248201527f4552433732313a20617070726f766520746f2063616c6c65720000000000000060448201526064016105ac565b6001600160a01b03838116600081815260076020908152604080832094871680845294825291829020805460ff191686151590811790915591519182527f17307eab39ab6107e8899845ad3d59bd9653f200f220920489ca2b5937696c31910160405180910390a3505050565b61160c848484611077565b61161884848484611918565b610d6d5760405162461bcd60e51b81526004016105ac906122c6565b600061049f825490565b60008181526001830160205260408120546116855750815460018181018455600084815260208082209093018490558454848252828601909352604090209190915561049f565b50600061049f565b60006001600160e01b031982166380ac58cd60e01b14806116be57506001600160e01b03198216635b5e139f60e01b145b8061049f575061049f82611a16565b6106e2838383611a3b565b606060006116e7836002612318565b6116f2906002612239565b67ffffffffffffffff81111561170a5761170a611ffb565b6040519080825280601f01601f191660200182016040528015611734576020820181803683370190505b509050600360fc1b8160008151811061174f5761174f6121a3565b60200101906001600160f81b031916908160001a905350600f60fb1b8160018151811061177e5761177e6121a3565b60200101906001600160f81b031916908160001a90535060006117a2846002612318565b6117ad906001612239565b90505b6001811115611825576f181899199a1a9b1b9c1cb0b131b232b360811b85600f16601081106117e1576117e16121a3565b1a60f81b8282815181106117f7576117f76121a3565b60200101906001600160f81b031916908160001a90535060049490941c9361181e81612337565b90506117b0565b508315610cf15760405162461bcd60e51b815260206004820181905260248201527f537472696e67733a20686578206c656e67746820696e73756666696369656e7460448201526064016105ac565b61187e8282610cf8565b1561084e576000828152602081815260408083206001600160a01b0385168085529252808320805460ff1916905551339285917ff6391f5c32d9c69d2a47ea670b442974b53935d1edc7fd64eb21e047a839171b9190a45050565b6000610cf1836001600160a01b038416611aad565b6000826000018281548110611905576119056121a3565b9060005260206000200154905092915050565b60006001600160a01b0384163b15611a0b57604051630a85bd0160e11b81526001600160a01b0385169063150b7a029061195c90339089908890889060040161234e565b6020604051808303816000875af1925050508015611997575060408051601f3d908101601f191682019092526119949181019061238b565b60015b6119f1573d8080156119c5576040519150601f19603f3d011682016040523d82523d6000602084013e6119ca565b606091505b5080516119e95760405162461bcd60e51b81526004016105ac906122c6565b805181602001fd5b6001600160e01b031916630a85bd0160e11b14905061106f565b506001949350505050565b60006001600160e01b03198216635a05180f60e01b148061049f575061049f82611ba0565b611a46838383611bd5565b600c5460ff16156106e25760405162461bcd60e51b815260206004820152602b60248201527f4552433732315061757361626c653a20746f6b656e207472616e73666572207760448201526a1a1a5b19481c185d5cd95960aa1b60648201526084016105ac565b60008181526001830160205260408120548015611b96576000611ad1600183612222565b8554909150600090611ae590600190612222565b9050818114611b4a576000866000018281548110611b0557611b056121a3565b9060005260206000200154905080876000018481548110611b2857611b286121a3565b6000918252602080832090910192909255918252600188019052604090208390555b8554869080611b5b57611b5b6123a8565b60019003818190600052602060002001600090559055856001016000868152602001908152602001600020600090556001935050505061049f565b600091505061049f565b60006001600160e01b03198216637965db0b60e01b148061049f57506301ffc9a760e01b6001600160e01b031983161461049f565b6001600160a01b038316611c3057611c2b81600a80546000838152600b60205260408120829055600182018355919091527fc65a7bb8d6351c1cf70c95a316cc6a92839c986682d98bc35f958f4883f9d2a80155565b611c53565b816001600160a01b0316836001600160a01b031614611c5357611c538382611c8d565b6001600160a01b038216611c6a576106e281611d2a565b826001600160a01b0316826001600160a01b0316146106e2576106e28282611dd9565b60006001611c9a84610bb7565b611ca49190612222565b600083815260096020526040902054909150808214611cf7576001600160a01b03841660009081526008602090815260408083208584528252808320548484528184208190558352600990915290208190555b5060009182526009602090815260408084208490556001600160a01b039094168352600881528383209183525290812055565b600a54600090611d3c90600190612222565b6000838152600b6020526040812054600a8054939450909284908110611d6457611d646121a3565b9060005260206000200154905080600a8381548110611d8557611d856121a3565b6000918252602080832090910192909255828152600b9091526040808220849055858252812055600a805480611dbd57611dbd6123a8565b6001900381819060005260206000200160009055905550505050565b6000611de483610bb7565b6001600160a01b039093166000908152600860209081526040808320868452825280832085905593825260099052919091209190915550565b6001600160e01b031981168114610ade57600080fd5b600060208284031215611e4557600080fd5b8135610cf181611e1d565b60005b83811015611e6b578181015183820152602001611e53565b83811115610d6d5750506000910152565b60008151808452611e94816020860160208601611e50565b601f01601f19169290920160200192915050565b602081526000610cf16020830184611e7c565b600060208284031215611ecd57600080fd5b5035919050565b80356001600160a01b0381168114611eeb57600080fd5b919050565b60008060408385031215611f0357600080fd5b611f0c83611ed4565b946020939093013593505050565b600080600060608486031215611f2f57600080fd5b611f3884611ed4565b9250611f4660208501611ed4565b9150604084013590509250925092565b60008060408385031215611f6957600080fd5b82359150611f7960208401611ed4565b90509250929050565b600060208284031215611f9457600080fd5b610cf182611ed4565b60008060408385031215611fb057600080fd5b50508035926020909101359150565b60008060408385031215611fd257600080fd5b611fdb83611ed4565b915060208301358015158114611ff057600080fd5b809150509250929050565b634e487b7160e01b600052604160045260246000fd5b6000806000806080858703121561202757600080fd5b61203085611ed4565b935061203e60208601611ed4565b925060408501359150606085013567ffffffffffffffff8082111561206257600080fd5b818701915087601f83011261207657600080fd5b81358181111561208857612088611ffb565b604051601f8201601f19908116603f011681019083821181831017156120b0576120b0611ffb565b816040528281528a60208487010111156120c957600080fd5b82602086016020830137600060208483010152809550505050505092959194509250565b6000806040838503121561210057600080fd5b61210983611ed4565b9150611f7960208401611ed4565b600181811c9082168061212b57607f821691505b6020821081141561214c57634e487b7160e01b600052602260045260246000fd5b50919050565b60208082526031908201527f4552433732313a207472616e736665722063616c6c6572206973206e6f74206f6040820152701ddb995c881b9bdc88185c1c1c9bdd9959607a1b606082015260800190565b634e487b7160e01b600052603260045260246000fd5b60208082526033908201527f45706865726550617373706f72744552433732313a206d7573742068617665206040820152721b5a5b9d195c881c9bdb19481d1bc81b5a5b9d606a1b606082015260800190565b634e487b7160e01b600052601160045260246000fd5b6000828210156122345761223461220c565b500390565b6000821982111561224c5761224c61220c565b500190565b7f416363657373436f6e74726f6c3a206163636f756e7420000000000000000000815260008351612289816017850160208801611e50565b7001034b99036b4b9b9b4b733903937b6329607d1b60179184019182015283516122ba816028840160208801611e50565b01602801949350505050565b60208082526032908201527f4552433732313a207472616e7366657220746f206e6f6e20455243373231526560408201527131b2b4bb32b91034b6b83632b6b2b73a32b960711b606082015260800190565b60008160001904831182151516156123325761233261220c565b500290565b6000816123465761234661220c565b506000190190565b6001600160a01b038581168252841660208201526040810183905260806060820181905260009061238190830184611e7c565b9695505050505050565b60006020828403121561239d57600080fd5b8151610cf181611e1d565b634e487b7160e01b600052603160045260246000fdfe68747470733a2f2f697066732e6570686572652e696f2f697066732f516d5148725a6855526379656a5952425558674745736e794b4d3653716e446d456a486a7067753364344b4a6f4ea2646970667358221220b8cef815921b8bce555a6a43b176ac4c5fd4e0de3d5fe974fc4b61850387a57264736f6c634300080c0033",
  "immutableReferences": {},
  "source": "// SPDX-License-Identifier: UNLICENSED\npragma solidity >=0.6.12;\n\nimport \"@openzeppelin/contracts/token/ERC721/ERC721.sol\";\nimport \"@openzeppelin/contracts/token/ERC721/extensions/ERC721Enumerable.sol\";\nimport \"@openzeppelin/contracts/token/ERC721/extensions/ERC721Pausable.sol\";\nimport \"@openzeppelin/contracts/access/AccessControlEnumerable.sol\";\nimport \"@openzeppelin/contracts/utils/Context.sol\";\nimport \"@openzeppelin/contracts/utils/Counters.sol\";\n\ncontract EpherePassportERC721 is\n  Context,\n  AccessControlEnumerable,\n  ERC721,\n  ERC721Enumerable,\n  ERC721Pausable\n{\n  string  private constant PASSPORT_METADATA_JSON_URI = \"https://ipfs.ephere.io/ipfs/QmQHrZhURcyejYRBUXgGEsnyKM6SqnDmEjHjpgu3d4KJoN\";\n\n  bytes32 public  constant MINTER_ROLE = keccak256(\"MINTER_ROLE\");\n  bytes32 public  constant PAUSER_ROLE = keccak256(\"PAUSER_ROLE\");\n\n  uint    private          _maxSupply;\n\n  constructor(uint maxSupply) ERC721(\"Ephere Passport\", \"EPS\") {\n    _maxSupply = maxSupply;\n    _setupRole(DEFAULT_ADMIN_ROLE, _msgSender());\n    _setupRole(MINTER_ROLE, _msgSender());\n    _setupRole(PAUSER_ROLE, _msgSender());\n  }\n\n  function mint(address to) public virtual {\n    require(hasRole(MINTER_ROLE, _msgSender()), \"EpherePassportERC721: must have minter role to mint\");\n    require(totalSupply() < _maxSupply, \"EpherePassportERC721: cannot exceed max total supply\");\n\n    _mint(to, totalSupply());\n  }\n\n  function setMaxSupply(uint maxSupply) public {\n    require(hasRole(MINTER_ROLE, _msgSender()), \"EpherePassportERC721: must have minter role to mint\");\n    require(maxSupply > _maxSupply, \"EpherePassportERC721: new max supply must be bigger than current max supply\");\n\n    _maxSupply = maxSupply;\n  }\n\n  function tokenURI(uint256 tokenId) public view virtual override returns (string memory) {\n    require(_exists(tokenId), \"EpherePassportERC721: URI query for nonexistent token\");\n\n    return PASSPORT_METADATA_JSON_URI;\n  }\n\n  function pause() public virtual {\n    require(hasRole(PAUSER_ROLE, _msgSender()), \"EpherePassportERC721: must have pauser role to pause\");\n    _pause();\n  }\n\n  function unpause() public virtual {\n    require(hasRole(PAUSER_ROLE, _msgSender()), \"EpherePassportERC721: must have pauser role to unpause\");\n    _unpause();\n  }\n\n  function _beforeTokenTransfer(\n    address from,\n    address to,\n    uint256 tokenId\n  ) internal virtual override(ERC721, ERC721Enumerable, ERC721Pausable) {\n    super._beforeTokenTransfer(from, to, tokenId);\n  }\n\n  function supportsInterface(bytes4 interfaceId)\n    public\n    view\n    virtual\n    override(AccessControlEnumerable, ERC721, ERC721Enumerable)\n    returns (bool)\n  {\n    return super.supportsInterface(interfaceId);\n  }\n}\n",
  "sourcePath": "/Users/agurodriguez/Code/contracts/contracts/EpherePassportERC721.sol",
  "compiler": {
    "name": "solc",
    "version": "0.8.12+commit.f00d7308.Emscripten.clang"
  },
  "schemaVersion": "3.4.3",
  "updatedAt": "2022-02-25T15:04:09.922Z",
  "devdoc": {
    "kind": "dev",
    "methods": {
      "approve(address,uint256)": {
        "details": "See {IERC721-approve}."
      },
      "balanceOf(address)": {
        "details": "See {IERC721-balanceOf}."
      },
      "getApproved(uint256)": {
        "details": "See {IERC721-getApproved}."
      },
      "getRoleAdmin(bytes32)": {
        "details": "Returns the admin role that controls `role`. See {grantRole} and {revokeRole}. To change a role's admin, use {_setRoleAdmin}."
      },
      "getRoleMember(bytes32,uint256)": {
        "details": "Returns one of the accounts that have `role`. `index` must be a value between 0 and {getRoleMemberCount}, non-inclusive. Role bearers are not sorted in any particular way, and their ordering may change at any point. WARNING: When using {getRoleMember} and {getRoleMemberCount}, make sure you perform all queries on the same block. See the following https://forum.openzeppelin.com/t/iterating-over-elements-on-enumerableset-in-openzeppelin-contracts/2296[forum post] for more information."
      },
      "getRoleMemberCount(bytes32)": {
        "details": "Returns the number of accounts that have `role`. Can be used together with {getRoleMember} to enumerate all bearers of a role."
      },
      "grantRole(bytes32,address)": {
        "details": "Grants `role` to `account`. If `account` had not been already granted `role`, emits a {RoleGranted} event. Requirements: - the caller must have ``role``'s admin role."
      },
      "hasRole(bytes32,address)": {
        "details": "Returns `true` if `account` has been granted `role`."
      },
      "isApprovedForAll(address,address)": {
        "details": "See {IERC721-isApprovedForAll}."
      },
      "name()": {
        "details": "See {IERC721Metadata-name}."
      },
      "ownerOf(uint256)": {
        "details": "See {IERC721-ownerOf}."
      },
      "paused()": {
        "details": "Returns true if the contract is paused, and false otherwise."
      },
      "renounceRole(bytes32,address)": {
        "details": "Revokes `role` from the calling account. Roles are often managed via {grantRole} and {revokeRole}: this function's purpose is to provide a mechanism for accounts to lose their privileges if they are compromised (such as when a trusted device is misplaced). If the calling account had been revoked `role`, emits a {RoleRevoked} event. Requirements: - the caller must be `account`."
      },
      "revokeRole(bytes32,address)": {
        "details": "Revokes `role` from `account`. If `account` had been granted `role`, emits a {RoleRevoked} event. Requirements: - the caller must have ``role``'s admin role."
      },
      "safeTransferFrom(address,address,uint256)": {
        "details": "See {IERC721-safeTransferFrom}."
      },
      "safeTransferFrom(address,address,uint256,bytes)": {
        "details": "See {IERC721-safeTransferFrom}."
      },
      "setApprovalForAll(address,bool)": {
        "details": "See {IERC721-setApprovalForAll}."
      },
      "symbol()": {
        "details": "See {IERC721Metadata-symbol}."
      },
      "tokenByIndex(uint256)": {
        "details": "See {IERC721Enumerable-tokenByIndex}."
      },
      "tokenOfOwnerByIndex(address,uint256)": {
        "details": "See {IERC721Enumerable-tokenOfOwnerByIndex}."
      },
      "tokenURI(uint256)": {
        "details": "See {IERC721Metadata-tokenURI}."
      },
      "totalSupply()": {
        "details": "See {IERC721Enumerable-totalSupply}."
      },
      "transferFrom(address,address,uint256)": {
        "details": "See {IERC721-transferFrom}."
      }
    },
    "version": 1
  },
  "userdoc": {
    "kind": "user",
    "methods": {},
    "version": 1
  }
}