{
  "contractName": "EphereERC20",
  "abi": [
    {
      "inputs": [
        {
          "internalType": "address",
          "name": "pinkAntiBotAddress",
          "type": "address"
        }
      ],
      "stateMutability": "nonpayable",
      "type": "constructor"
    },
    {
      "anonymous": false,
      "inputs": [
        {
          "indexed": true,
          "internalType": "address",
          "name": "owner",
          "type": "address"
        },
        {
          "indexed": true,
          "internalType": "address",
          "name": "spender",
          "type": "address"
        },
        {
          "indexed": false,
          "internalType": "uint256",
          "name": "value",
          "type": "uint256"
        }
      ],
      "name": "Approval",
      "type": "event"
    },
    {
      "anonymous": false,
      "inputs": [
        {
          "indexed": true,
          "internalType": "address",
          "name": "previousOwner",
          "type": "address"
        },
        {
          "indexed": true,
          "internalType": "address",
          "name": "newOwner",
          "type": "address"
        }
      ],
      "name": "OwnershipTransferred",
      "type": "event"
    },
    {
      "anonymous": false,
      "inputs": [
        {
          "indexed": true,
          "internalType": "address",
          "name": "from",
          "type": "address"
        },
        {
          "indexed": true,
          "internalType": "address",
          "name": "to",
          "type": "address"
        },
        {
          "indexed": false,
          "internalType": "uint256",
          "name": "value",
          "type": "uint256"
        }
      ],
      "name": "Transfer",
      "type": "event"
    },
    {
      "inputs": [
        {
          "internalType": "address",
          "name": "owner",
          "type": "address"
        },
        {
          "internalType": "address",
          "name": "spender",
          "type": "address"
        }
      ],
      "name": "allowance",
      "outputs": [
        {
          "internalType": "uint256",
          "name": "",
          "type": "uint256"
        }
      ],
      "stateMutability": "view",
      "type": "function"
    },
    {
      "inputs": [
        {
          "internalType": "address",
          "name": "spender",
          "type": "address"
        },
        {
          "internalType": "uint256",
          "name": "amount",
          "type": "uint256"
        }
      ],
      "name": "approve",
      "outputs": [
        {
          "internalType": "bool",
          "name": "",
          "type": "bool"
        }
      ],
      "stateMutability": "nonpayable",
      "type": "function"
    },
    {
      "inputs": [
        {
          "internalType": "address",
          "name": "account",
          "type": "address"
        }
      ],
      "name": "balanceOf",
      "outputs": [
        {
          "internalType": "uint256",
          "name": "",
          "type": "uint256"
        }
      ],
      "stateMutability": "view",
      "type": "function"
    },
    {
      "inputs": [],
      "name": "cap",
      "outputs": [
        {
          "internalType": "uint256",
          "name": "",
          "type": "uint256"
        }
      ],
      "stateMutability": "view",
      "type": "function"
    },
    {
      "inputs": [],
      "name": "decimals",
      "outputs": [
        {
          "internalType": "uint8",
          "name": "",
          "type": "uint8"
        }
      ],
      "stateMutability": "view",
      "type": "function"
    },
    {
      "inputs": [
        {
          "internalType": "address",
          "name": "spender",
          "type": "address"
        },
        {
          "internalType": "uint256",
          "name": "subtractedValue",
          "type": "uint256"
        }
      ],
      "name": "decreaseAllowance",
      "outputs": [
        {
          "internalType": "bool",
          "name": "",
          "type": "bool"
        }
      ],
      "stateMutability": "nonpayable",
      "type": "function"
    },
    {
      "inputs": [
        {
          "internalType": "address",
          "name": "spender",
          "type": "address"
        },
        {
          "internalType": "uint256",
          "name": "addedValue",
          "type": "uint256"
        }
      ],
      "name": "increaseAllowance",
      "outputs": [
        {
          "internalType": "bool",
          "name": "",
          "type": "bool"
        }
      ],
      "stateMutability": "nonpayable",
      "type": "function"
    },
    {
      "inputs": [],
      "name": "name",
      "outputs": [
        {
          "internalType": "string",
          "name": "",
          "type": "string"
        }
      ],
      "stateMutability": "view",
      "type": "function"
    },
    {
      "inputs": [],
      "name": "owner",
      "outputs": [
        {
          "internalType": "address",
          "name": "",
          "type": "address"
        }
      ],
      "stateMutability": "view",
      "type": "function"
    },
    {
      "inputs": [],
      "name": "pinkAntiBot",
      "outputs": [
        {
          "internalType": "contract IPinkAntiBot",
          "name": "",
          "type": "address"
        }
      ],
      "stateMutability": "view",
      "type": "function"
    },
    {
      "inputs": [],
      "name": "pinkAntiBotEnabled",
      "outputs": [
        {
          "internalType": "bool",
          "name": "",
          "type": "bool"
        }
      ],
      "stateMutability": "view",
      "type": "function"
    },
    {
      "inputs": [],
      "name": "playToEarnVesting",
      "outputs": [
        {
          "internalType": "uint256",
          "name": "",
          "type": "uint256"
        }
      ],
      "stateMutability": "view",
      "type": "function"
    },
    {
      "inputs": [],
      "name": "renounceOwnership",
      "outputs": [],
      "stateMutability": "nonpayable",
      "type": "function"
    },
    {
      "inputs": [],
      "name": "symbol",
      "outputs": [
        {
          "internalType": "string",
          "name": "",
          "type": "string"
        }
      ],
      "stateMutability": "view",
      "type": "function"
    },
    {
      "inputs": [],
      "name": "totalSupply",
      "outputs": [
        {
          "internalType": "uint256",
          "name": "",
          "type": "uint256"
        }
      ],
      "stateMutability": "view",
      "type": "function"
    },
    {
      "inputs": [
        {
          "internalType": "address",
          "name": "recipient",
          "type": "address"
        },
        {
          "internalType": "uint256",
          "name": "amount",
          "type": "uint256"
        }
      ],
      "name": "transfer",
      "outputs": [
        {
          "internalType": "bool",
          "name": "",
          "type": "bool"
        }
      ],
      "stateMutability": "nonpayable",
      "type": "function"
    },
    {
      "inputs": [
        {
          "internalType": "address",
          "name": "sender",
          "type": "address"
        },
        {
          "internalType": "address",
          "name": "recipient",
          "type": "address"
        },
        {
          "internalType": "uint256",
          "name": "amount",
          "type": "uint256"
        }
      ],
      "name": "transferFrom",
      "outputs": [
        {
          "internalType": "bool",
          "name": "",
          "type": "bool"
        }
      ],
      "stateMutability": "nonpayable",
      "type": "function"
    },
    {
      "inputs": [
        {
          "internalType": "address",
          "name": "newOwner",
          "type": "address"
        }
      ],
      "name": "transferOwnership",
      "outputs": [],
      "stateMutability": "nonpayable",
      "type": "function"
    },
    {
      "inputs": [],
      "name": "mintAdvisorsTokens",
      "outputs": [],
      "stateMutability": "nonpayable",
      "type": "function"
    },
    {
      "inputs": [],
      "name": "mintCoreTeamTokens",
      "outputs": [],
      "stateMutability": "nonpayable",
      "type": "function"
    },
    {
      "inputs": [],
      "name": "mintMarketingTokens",
      "outputs": [],
      "stateMutability": "nonpayable",
      "type": "function"
    },
    {
      "inputs": [],
      "name": "mintPlayToEarnTokens",
      "outputs": [],
      "stateMutability": "nonpayable",
      "type": "function"
    },
    {
      "inputs": [
        {
          "internalType": "uint256",
          "name": "n",
          "type": "uint256"
        }
      ],
      "name": "mintPlayToEarnTokensBulk",
      "outputs": [],
      "stateMutability": "nonpayable",
      "type": "function"
    },
    {
      "inputs": [],
      "name": "mintPrivateSaleTokens",
      "outputs": [],
      "stateMutability": "nonpayable",
      "type": "function"
    },
    {
      "inputs": [
        {
          "internalType": "uint256",
          "name": "vestingSeconds",
          "type": "uint256"
        }
      ],
      "name": "setPlayToEarnVesting",
      "outputs": [],
      "stateMutability": "nonpayable",
      "type": "function"
    }
  ],
  "bytecode": "0x60a060405262278d00600b553480156200001857600080fd5b5060405162001eb138038062001eb18339810160408190526200003b916200044e565b604080518082018252600681526545706865726560d01b6020808301918252835180850190945260038085526208aa0960eb1b9185019190915282516af8277896582678ac0000009492620000919291620003a8565b508051620000a7906004906020840190620003a8565b50505060008111620001005760405162461bcd60e51b815260206004820152601560248201527f45524332304361707065643a206361702069732030000000000000000000000060448201526064015b60405180910390fd5b6080526200010e33620001d9565b6200013f3360646200012d6af8277896582678ac000000601962000496565b620001399190620004b8565b6200022b565b6001600160a01b0381163314620001d257600a80546001600160a01b0319166001600160a01b0383169081179091556040516318e02bd960e01b81523360048201526318e02bd990602401600060405180830381600087803b158015620001a557600080fd5b505af1158015620001ba573d6000803e3d6000fd5b5050600a805460ff60a01b1916600160a01b17905550505b5062000533565b600580546001600160a01b038381166001600160a01b0319831681179093556040519116919082907f8be0079c531659141344cd1fd0a4f28419497f9722a3daafe3b4186f6b6457e090600090a35050565b6080518162000244620002bb60201b620007991760201c565b620002509190620004db565b1115620002a05760405162461bcd60e51b815260206004820152601960248201527f45524332304361707065643a20636170206578636565646564000000000000006044820152606401620000f7565b620002b78282620002c160201b62000f9c1760201c565b5050565b60025490565b6001600160a01b038216620003195760405162461bcd60e51b815260206004820152601f60248201527f45524332303a206d696e7420746f20746865207a65726f2061646472657373006044820152606401620000f7565b80600260008282546200032d9190620004db565b90915550506001600160a01b038216600090815260208190526040812080548392906200035c908490620004db565b90915550506040518181526001600160a01b038316906000907fddf252ad1be2c89b69c2b068fc378daa952ba7f163c4a11628f55a4df523b3ef9060200160405180910390a3620002b7565b828054620003b690620004f6565b90600052602060002090601f016020900481019282620003da576000855562000425565b82601f10620003f557805160ff191683800117855562000425565b8280016001018555821562000425579182015b828111156200042557825182559160200191906001019062000408565b506200043392915062000437565b5090565b5b8082111562000433576000815560010162000438565b6000602082840312156200046157600080fd5b81516001600160a01b03811681146200047957600080fd5b9392505050565b634e487b7160e01b600052601160045260246000fd5b6000816000190483118215151615620004b357620004b362000480565b500290565b600082620004d657634e487b7160e01b600052601260045260246000fd5b500490565b60008219821115620004f157620004f162000480565b500190565b600181811c908216806200050b57607f821691505b602082108114156200052d57634e487b7160e01b600052602260045260246000fd5b50919050565b60805161195b620005566000396000818161022101526110c4015261195b6000f3fe608060405234801561001057600080fd5b50600436106101735760003560e01c80635d367643116100de578063a457c2d711610097578063c26e51a611610071578063c26e51a614610316578063d53dcf141461031e578063dd62ed3e14610332578063f2fde38b1461036b57600080fd5b8063a457c2d7146102e8578063a9059cbb146102fb578063b0af7b581461030e57600080fd5b80635d3676431461028357806370a0823114610296578063715018a6146102bf5780638da5cb5b146102c75780638eb6262c146102d857806395d89b41146102e057600080fd5b806323b872dd1161013057806323b872dd146101ea57806324935381146101fd578063313ce56714610210578063355274ea1461021f5780633950935114610245578063407133d21461025857600080fd5b8063035dc9451461017857806303c7da391461018257806306fdde031461018a578063095ea7b3146101a85780630adcd545146101cb57806318160ddd146101e2575b600080fd5b61018061037e565b005b610180610510565b6101926106f1565b60405161019f9190611658565b60405180910390f35b6101bb6101b63660046116a7565b610783565b604051901515815260200161019f565b6101d4600b5481565b60405190815260200161019f565b6002546101d4565b6101bb6101f83660046116d1565b61079f565b61018061020b36600461170d565b610849565b6040516012815260200161019f565b7f00000000000000000000000000000000000000000000000000000000000000006101d4565b6101bb6102533660046116a7565b61089c565b600a5461026b906001600160a01b031681565b6040516001600160a01b03909116815260200161019f565b61018061029136600461170d565b6108d8565b6101d46102a4366004611726565b6001600160a01b031660009081526020819052604090205490565b610180610907565b6005546001600160a01b031661026b565b61018061093d565b610192610b89565b6101bb6102f63660046116a7565b610b98565b6101bb6103093660046116a7565b610c31565b610180610c3e565b610180610da2565b600a546101bb90600160a01b900460ff1681565b6101d4610340366004611741565b6001600160a01b03918216600090815260016020908152604080832093909416825291909152205490565b610180610379366004611726565b610f01565b604080518082019091526009815268436f7265205465616d60b81b60208201526301e133806103b18163622facd061178a565b42116104086103f5846040518060400160405280602081526020017f20746f6b656e732063616e6e6f74206265206d696e746564206265666f72652081525061107b565b6104038463622facd061178a565b6110a7565b9061042f5760405162461bcd60e51b81526004016104269190611658565b60405180910390fd5b506005546001600160a01b0316331461045a5760405162461bcd60e51b8152600401610426906117a2565b600654610100900460ff16156104be5760405162461bcd60e51b8152602060048201526024808201527f436f7265205465616d20746f6b656e73207765726520616c7265616479206d696044820152631b9d195960e21b6064820152608401610426565b6104fd73b621e20f17aafc11ff7408d15b3449ab0dd3fc9360646104ee6af8277896582678ac00000060026117d7565b6104f8919061180c565b6110c2565b50506006805461ff001916610100179055565b6005546001600160a01b0316331461053a5760405162461bcd60e51b8152600401610426906117a2565b6007546009116105985760405162461bcd60e51b8152602060048201526024808201527f4d61726b6574696e6720746f6b656e73207765726520616c7265616479206d696044820152631b9d195960e21b6064820152608401610426565b6007546105a8906276a7006117d7565b6105b69063622facd061178a565b42116105f26040518060600160405280602981526020016118fd602991396007546105e4906276a7006117d7565b6104039063622facd061178a565b906106105760405162461bcd60e51b81526004016104269190611658565b506007546106785760006064806106336af8277896582678ac00000060066117d7565b61063d919061180c565b6106489060146117d7565b610652919061180c565b90506106727384435fb5b645dd6290b9714f5a47482f2826b39d826110c2565b506106d4565b60006064806106936af8277896582678ac00000060066117d7565b61069d919061180c565b6106a890600a6117d7565b6106b2919061180c565b90506106d27384435fb5b645dd6290b9714f5a47482f2826b39d826110c2565b505b6001600660010160008282546106ea919061178a565b9091555050565b60606003805461070090611820565b80601f016020809104026020016040519081016040528092919081815260200182805461072c90611820565b80156107795780601f1061074e57610100808354040283529160200191610779565b820191906000526020600020905b81548152906001019060200180831161075c57829003601f168201915b5050505050905090565b600061079033848461114f565b50600192915050565b60025490565b60006107ac848484611273565b6001600160a01b0384166000908152600160209081526040808320338452909152902054828110156108315760405162461bcd60e51b815260206004820152602860248201527f45524332303a207472616e7366657220616d6f756e74206578636565647320616044820152676c6c6f77616e636560c01b6064820152608401610426565b61083e853385840361114f565b506001949350505050565b6005546001600160a01b031633146108735760405162461bcd60e51b8152600401610426906117a2565b60005b818110156108985761088661093d565b806108908161185b565b915050610876565b5050565b3360008181526001602090815260408083206001600160a01b038716845290915281205490916107909185906108d390869061178a565b61114f565b6005546001600160a01b031633146109025760405162461bcd60e51b8152600401610426906117a2565b600b55565b6005546001600160a01b031633146109315760405162461bcd60e51b8152600401610426906117a2565b61093b6000611304565b565b6005546001600160a01b031633146109675760405162461bcd60e51b8152600401610426906117a2565b600854602f116109c95760405162461bcd60e51b815260206004820152602760248201527f506c617920746f204561726e20746f6b656e73207765726520616c7265616479604482015266081b5a5b9d195960ca1b6064820152608401610426565b600854600b546109d991906117d7565b6109e79063622facd061178a565b4211610a76610a66610a2b604051806040016040528060158152602001740a0d8c2f240e8de408ac2e4dc40e8ded6cadce6405605b1b8152506006600201546110a7565b6040518060400160405280601a81526020017f292063616e6e6f74206265206d696e746564206265666f72652000000000000081525061107b565b600854600b546105e491906117d7565b90610a945760405162461bcd60e51b81526004016104269190611658565b50600854610aca57610ac573d90918cb8adf7daebad19ab53bce2917f8e360776a04bc55356c3a27ef6000006110c2565b610b73565b60085460011415610b0c57610ac573d90918cb8adf7daebad19ab53bce2917f8e360776104f8692db05f7f5686e94000006a04bc55356c3a27ef600000611876565b610b7373d90918cb8adf7daebad19ab53bce2917f8e360776001600660020154610b369190611876565b610b4a90690ef7920ad14f816000006117d7565b610b69692db05f7f5686e94000006a04bc55356c3a27ef600000611876565b6104f89190611876565b6001600660020160008282546106ea919061178a565b60606004805461070090611820565b3360009081526001602090815260408083206001600160a01b038616845290915281205482811015610c1a5760405162461bcd60e51b815260206004820152602560248201527f45524332303a2064656372656173656420616c6c6f77616e63652062656c6f77604482015264207a65726f60d81b6064820152608401610426565b610c27338585840361114f565b5060019392505050565b6000610790338484611273565b60408051808201909152600c81526b507269766174652053616c6560a01b60208201526000610c718163622facd061178a565b4211610cb56103f5846040518060400160405280602081526020017f20746f6b656e732063616e6e6f74206265206d696e746564206265666f72652081525061107b565b90610cd35760405162461bcd60e51b81526004016104269190611658565b506005546001600160a01b03163314610cfe5760405162461bcd60e51b8152600401610426906117a2565b60095460ff1615610d615760405162461bcd60e51b815260206004820152602760248201527f507269766174652053616c6520746f6b656e73207765726520616c7265616479604482015266081b5a5b9d195960ca1b6064820152608401610426565b610d9173f28fdc5ad77f1426a0cd7f2dac3f96d93c11d38560646104ee6af8277896582678ac00000060026117d7565b50506009805460ff19166001179055565b60408051808201909152600881526741647669736f727360c01b60208201526301e13380610dd48163622facd061178a565b4211610e186103f5846040518060400160405280602081526020017f20746f6b656e732063616e6e6f74206265206d696e746564206265666f72652081525061107b565b90610e365760405162461bcd60e51b81526004016104269190611658565b506005546001600160a01b03163314610e615760405162461bcd60e51b8152600401610426906117a2565b60065460ff1615610ec05760405162461bcd60e51b815260206004820152602360248201527f41647669736f727320746f6b656e73207765726520616c7265616479206d696e6044820152621d195960ea1b6064820152608401610426565b610ef073b86bfb0d2b11e2b86b63f7fbd995765474c71f3f60646104ee6af8277896582678ac00000060036117d7565b50506006805460ff19166001179055565b6005546001600160a01b03163314610f2b5760405162461bcd60e51b8152600401610426906117a2565b6001600160a01b038116610f905760405162461bcd60e51b815260206004820152602660248201527f4f776e61626c653a206e6577206f776e657220697320746865207a65726f206160448201526564647265737360d01b6064820152608401610426565b610f9981611304565b50565b6001600160a01b038216610ff25760405162461bcd60e51b815260206004820152601f60248201527f45524332303a206d696e7420746f20746865207a65726f2061646472657373006044820152606401610426565b8060026000828254611004919061178a565b90915550506001600160a01b0382166000908152602081905260408120805483929061103190849061178a565b90915550506040518181526001600160a01b038316906000907fddf252ad1be2c89b69c2b068fc378daa952ba7f163c4a11628f55a4df523b3ef9060200160405180910390a35050565b6060828260405160200161109092919061188d565b604051602081830303815290604052905092915050565b60606110bb836110b684611356565b61107b565b9392505050565b7f0000000000000000000000000000000000000000000000000000000000000000816110ed60025490565b6110f7919061178a565b11156111455760405162461bcd60e51b815260206004820152601960248201527f45524332304361707065643a20636170206578636565646564000000000000006044820152606401610426565b6108988282610f9c565b6001600160a01b0383166111b15760405162461bcd60e51b8152602060048201526024808201527f45524332303a20617070726f76652066726f6d20746865207a65726f206164646044820152637265737360e01b6064820152608401610426565b6001600160a01b0382166112125760405162461bcd60e51b815260206004820152602260248201527f45524332303a20617070726f766520746f20746865207a65726f206164647265604482015261737360f01b6064820152608401610426565b6001600160a01b0383811660008181526001602090815260408083209487168084529482529182902085905590518481527f8c5be1e5ebec7d5bd14f71427d1e84f3dd0314c0f7b2291e5b200ac8c7c3b925910160405180910390a3505050565b600a54600160a01b900460ff16156112f457600a5460405163090ec10b60e31b81526001600160a01b03858116600483015284811660248301526044820184905290911690634876085890606401600060405180830381600087803b1580156112db57600080fd5b505af11580156112ef573d6000803e3d6000fd5b505050505b6112ff83838361145c565b505050565b600580546001600160a01b038381166001600160a01b0319831681179093556040519116919082907f8be0079c531659141344cd1fd0a4f28419497f9722a3daafe3b4186f6b6457e090600090a35050565b60608161137a5750506040805180820190915260018152600360fc1b602082015290565b8160005b81156113a4578061138e8161185b565b915061139d9050600a8361180c565b915061137e565b60008167ffffffffffffffff8111156113bf576113bf6118bc565b6040519080825280601f01601f1916602001820160405280156113e9576020820181803683370190505b5090505b8415611454576113fe600183611876565b915061140b600a866118d2565b61141690603061178a565b60f81b81838151811061142b5761142b6118e6565b60200101906001600160f81b031916908160001a90535061144d600a8661180c565b94506113ed565b949350505050565b6001600160a01b0383166114c05760405162461bcd60e51b815260206004820152602560248201527f45524332303a207472616e736665722066726f6d20746865207a65726f206164604482015264647265737360d81b6064820152608401610426565b6001600160a01b0382166115225760405162461bcd60e51b815260206004820152602360248201527f45524332303a207472616e7366657220746f20746865207a65726f206164647260448201526265737360e81b6064820152608401610426565b6001600160a01b0383166000908152602081905260409020548181101561159a5760405162461bcd60e51b815260206004820152602660248201527f45524332303a207472616e7366657220616d6f756e7420657863656564732062604482015265616c616e636560d01b6064820152608401610426565b6001600160a01b038085166000908152602081905260408082208585039055918516815290812080548492906115d190849061178a565b92505081905550826001600160a01b0316846001600160a01b03167fddf252ad1be2c89b69c2b068fc378daa952ba7f163c4a11628f55a4df523b3ef8460405161161d91815260200190565b60405180910390a35b50505050565b60005b8381101561164757818101518382015260200161162f565b838111156116265750506000910152565b602081526000825180602084015261167781604085016020870161162c565b601f01601f19169190910160400192915050565b80356001600160a01b03811681146116a257600080fd5b919050565b600080604083850312156116ba57600080fd5b6116c38361168b565b946020939093013593505050565b6000806000606084860312156116e657600080fd5b6116ef8461168b565b92506116fd6020850161168b565b9150604084013590509250925092565b60006020828403121561171f57600080fd5b5035919050565b60006020828403121561173857600080fd5b6110bb8261168b565b6000806040838503121561175457600080fd5b61175d8361168b565b915061176b6020840161168b565b90509250929050565b634e487b7160e01b600052601160045260246000fd5b6000821982111561179d5761179d611774565b500190565b6020808252818101527f4f776e61626c653a2063616c6c6572206973206e6f7420746865206f776e6572604082015260600190565b60008160001904831182151516156117f1576117f1611774565b500290565b634e487b7160e01b600052601260045260246000fd5b60008261181b5761181b6117f6565b500490565b600181811c9082168061183457607f821691505b6020821081141561185557634e487b7160e01b600052602260045260246000fd5b50919050565b600060001982141561186f5761186f611774565b5060010190565b60008282101561188857611888611774565b500390565b6000835161189f81846020880161162c565b8351908301906118b381836020880161162c565b01949350505050565b634e487b7160e01b600052604160045260246000fd5b6000826118e1576118e16117f6565b500690565b634e487b7160e01b600052603260045260246000fdfe4d61726b6574696e6720746f6b656e732063616e6e6f74206265206d696e746564206265666f726520a2646970667358221220f1cad92f9ff3a6a4b1167504471a3f80d0a5208628b6dda7cf5fd81ad372ff7364736f6c634300080c0033",
  "immutableReferences": {
    "736": [
      {
        "length": 32,
        "start": 545
      },
      {
        "length": 32,
        "start": 4292
      }
    ]
  },
  "source": "// SPDX-License-Identifier: UNLICENSED\npragma solidity >=0.6.12;\n\nimport \"@openzeppelin/contracts/access/Ownable.sol\";\nimport \"@openzeppelin/contracts/token/ERC20/ERC20.sol\";\nimport \"@openzeppelin/contracts/token/ERC20/extensions/ERC20Capped.sol\";\nimport \"@openzeppelin/contracts/utils/Strings.sol\";\n\nimport \"../third_party/pink-antibot/IPinkAntiBot.sol\";\n\ncontract EphereERC20 is ERC20Capped, Ownable {\n\n  struct Minted {\n    bool advisors;\n    bool coreTeam;\n    uint marketing;\n    uint playToEarn;\n    bool privateSale;\n  }\n\n  uint    private constant _maxSupply         = 300000000 * 10**18;\n\n  uint    private constant _advisorsSupply    = _maxSupply *  3 / 100;\n  uint    private constant _coreTeamSupply    = _maxSupply *  2 / 100;\n  uint    private constant _marketingSupply   = _maxSupply *  6 / 100;\n  uint    private constant _playToEarnSupply  = _maxSupply * 62 / 100;\n  uint    private constant _privateSaleSupply = _maxSupply *  2 / 100;\n\n  uint    private constant _playToEarnISupply = 5725080 * 10**18;\n  uint    private constant _playToEarnIDisc   = 215760 * 10**18;\n  uint    private constant _playToEarnPiDisc  = 70680 * 10**18;\n\n  address private constant _advisorsWallet    = 0xB86bfB0d2b11E2B86b63F7fbD995765474c71f3f;\n  address private constant _coreTeamWallet    = 0xB621E20f17aafC11ff7408D15B3449ab0dd3FC93;\n  address private constant _marketingWallet   = 0x84435fb5B645dd6290B9714f5a47482F2826b39D;\n  address private constant _playToEarnWallet  = 0xD90918CB8adF7daEbaD19AB53bCe2917f8e36077;\n  address private constant _privateSaleWallet = 0xf28FdC5aD77f1426A0cD7F2Dac3f96d93C11d385;\n\n  uint    private constant _listingDate       = 1647291600;         // Monday, March 14, 2022 9:00:00 PM\n  uint    private constant _oneMonth          = 30 * 24 * 60 * 60;  // 30 days\n  uint    private constant _oneQuarter        = 90 * 24 * 60 * 60;  // 90 days\n  uint    private constant _oneYear           = 365 * 24 * 60 * 60; // 365 days\n\n  Minted  private          _minted;\n\n  IPinkAntiBot    public   pinkAntiBot;\n  bool            public   pinkAntiBotEnabled;\n  uint            public   playToEarnVesting = _oneMonth;\n\n  constructor(address pinkAntiBotAddress) ERC20(\"Ephere\", \"EPH\") ERC20Capped(_maxSupply) {\n    // Minting 15% (Public Sale) + 10% (Liquidity Pool)\n    _mint(msg.sender, _maxSupply * 25 / 100);\n\n    // Setting pink-antibot\n    if (pinkAntiBotAddress != msg.sender) {\n      pinkAntiBot = IPinkAntiBot(pinkAntiBotAddress);\n      pinkAntiBot.setTokenOwner(msg.sender);\n      pinkAntiBotEnabled = true;\n    }\n  }\n\n  function _transfer(address sender, address recipient, uint256 amount) override internal virtual {\n    if (pinkAntiBotEnabled) {\n      pinkAntiBot.onPreTransferCheck(sender, recipient, amount);\n    }\n\n    super._transfer(sender, recipient, amount);\n  }\n\n  function mintAdvisorsTokens() public onlyAfterListing(\"Advisors\", _oneYear) onlyOwner {\n    require(_minted.advisors == false, \"Advisors tokens were already minted\");\n\n    _mint(_advisorsWallet, _advisorsSupply);\n    _minted.advisors = true;\n  }\n\n  function mintCoreTeamTokens() public onlyAfterListing(\"Core Team\", _oneYear) onlyOwner {\n    require(_minted.coreTeam == false, \"Core Team tokens were already minted\");\n\n    _mint(_coreTeamWallet, _coreTeamSupply);\n    _minted.coreTeam = true;\n  }\n\n  function mintMarketingTokens() public onlyOwner {\n    require(_minted.marketing < 9, \"Marketing tokens were already minted\");\n    require(block.timestamp > _listingDate + _oneQuarter * _minted.marketing, strcc(\"Marketing tokens cannot be minted before \", _listingDate + _oneQuarter * _minted.marketing));\n\n    if (_minted.marketing == 0) {\n      uint amount = _marketingSupply * 20 / 100;\n      _mint(_marketingWallet, amount);\n    } else {\n      uint amount = _marketingSupply * 10 / 100;\n      _mint(_marketingWallet, amount);\n    }\n\n    _minted.marketing += 1;\n  }\n\n  function mintPlayToEarnTokens() public onlyOwner {\n    require(_minted.playToEarn < 47, \"Play to Earn tokens were already minted\");\n    require(block.timestamp > _listingDate + playToEarnVesting * _minted.playToEarn, strcc(strcc(strcc(\"Play to Earn tokens (\", _minted.playToEarn), \") cannot be minted before \"), _listingDate + playToEarnVesting * _minted.playToEarn));\n\n    if (_minted.playToEarn == 0) {\n      _mint(_playToEarnWallet, _playToEarnISupply);\n    } else if (_minted.playToEarn == 1) {\n      _mint(_playToEarnWallet, _playToEarnISupply - _playToEarnIDisc);\n    } else {\n      _mint(_playToEarnWallet, _playToEarnISupply - _playToEarnIDisc - _playToEarnPiDisc * (_minted.playToEarn - 1));\n    }\n\n    _minted.playToEarn += 1;\n  }\n\n  function mintPlayToEarnTokensBulk(uint n) public onlyOwner {\n    for (uint i = 0; i < n; i++) {\n      mintPlayToEarnTokens();\n    }\n  }\n\n  function mintPrivateSaleTokens() public onlyAfterListing(\"Private Sale\", 0) onlyOwner {\n    require(_minted.privateSale == false, \"Private Sale tokens were already minted\"); \n\n    _mint(_privateSaleWallet, _privateSaleSupply);\n    _minted.privateSale = true;\n  }\n\n  function setPlayToEarnVesting(uint vestingSeconds) public onlyOwner {\n    playToEarnVesting = vestingSeconds;\n  }\n\n  function strcc(string memory str1, string memory str2) private pure returns (string memory) {\n    return string(abi.encodePacked(str1, str2));\n  }\n\n  function strcc(string memory str1, uint str2) private pure returns (string memory) {\n    return strcc(str1, Strings.toString(str2));\n  }\n\n  modifier onlyAfterListing(string memory allocation, uint cliff) {\n    require(block.timestamp > _listingDate + cliff, strcc(strcc(allocation, \" tokens cannot be minted before \"), _listingDate + cliff));\n    _;\n  }\n\n}\n",
  "sourcePath": "/Users/agurodriguez/Code/contracts/contracts/EphereERC20.sol",
  "compiler": {
    "name": "solc",
    "version": "0.8.12+commit.f00d7308.Emscripten.clang"
  },
  "schemaVersion": "3.4.3",
  "updatedAt": "2022-02-22T16:51:13.603Z",
  "devdoc": {
    "kind": "dev",
    "methods": {
      "allowance(address,address)": {
        "details": "See {IERC20-allowance}."
      },
      "approve(address,uint256)": {
        "details": "See {IERC20-approve}. Requirements: - `spender` cannot be the zero address."
      },
      "balanceOf(address)": {
        "details": "See {IERC20-balanceOf}."
      },
      "cap()": {
        "details": "Returns the cap on the token's total supply."
      },
      "decimals()": {
        "details": "Returns the number of decimals used to get its user representation. For example, if `decimals` equals `2`, a balance of `505` tokens should be displayed to a user as `5.05` (`505 / 10 ** 2`). Tokens usually opt for a value of 18, imitating the relationship between Ether and Wei. This is the value {ERC20} uses, unless this function is overridden; NOTE: This information is only used for _display_ purposes: it in no way affects any of the arithmetic of the contract, including {IERC20-balanceOf} and {IERC20-transfer}."
      },
      "decreaseAllowance(address,uint256)": {
        "details": "Atomically decreases the allowance granted to `spender` by the caller. This is an alternative to {approve} that can be used as a mitigation for problems described in {IERC20-approve}. Emits an {Approval} event indicating the updated allowance. Requirements: - `spender` cannot be the zero address. - `spender` must have allowance for the caller of at least `subtractedValue`."
      },
      "increaseAllowance(address,uint256)": {
        "details": "Atomically increases the allowance granted to `spender` by the caller. This is an alternative to {approve} that can be used as a mitigation for problems described in {IERC20-approve}. Emits an {Approval} event indicating the updated allowance. Requirements: - `spender` cannot be the zero address."
      },
      "name()": {
        "details": "Returns the name of the token."
      },
      "owner()": {
        "details": "Returns the address of the current owner."
      },
      "renounceOwnership()": {
        "details": "Leaves the contract without owner. It will not be possible to call `onlyOwner` functions anymore. Can only be called by the current owner. NOTE: Renouncing ownership will leave the contract without an owner, thereby removing any functionality that is only available to the owner."
      },
      "symbol()": {
        "details": "Returns the symbol of the token, usually a shorter version of the name."
      },
      "totalSupply()": {
        "details": "See {IERC20-totalSupply}."
      },
      "transfer(address,uint256)": {
        "details": "See {IERC20-transfer}. Requirements: - `recipient` cannot be the zero address. - the caller must have a balance of at least `amount`."
      },
      "transferFrom(address,address,uint256)": {
        "details": "See {IERC20-transferFrom}. Emits an {Approval} event indicating the updated allowance. This is not required by the EIP. See the note at the beginning of {ERC20}. Requirements: - `sender` and `recipient` cannot be the zero address. - `sender` must have a balance of at least `amount`. - the caller must have allowance for ``sender``'s tokens of at least `amount`."
      },
      "transferOwnership(address)": {
        "details": "Transfers ownership of the contract to a new account (`newOwner`). Can only be called by the current owner."
      }
    },
    "version": 1
  },
  "userdoc": {
    "kind": "user",
    "methods": {},
    "version": 1
  }
}