{
  "contractName": "EphereFootballerERC721",
  "abi": [
    {
      "inputs": [],
      "stateMutability": "nonpayable",
      "type": "constructor"
    },
    {
      "anonymous": false,
      "inputs": [
        {
          "indexed": true,
          "internalType": "address",
          "name": "owner",
          "type": "address"
        },
        {
          "indexed": true,
          "internalType": "address",
          "name": "approved",
          "type": "address"
        },
        {
          "indexed": true,
          "internalType": "uint256",
          "name": "tokenId",
          "type": "uint256"
        }
      ],
      "name": "Approval",
      "type": "event"
    },
    {
      "anonymous": false,
      "inputs": [
        {
          "indexed": true,
          "internalType": "address",
          "name": "owner",
          "type": "address"
        },
        {
          "indexed": true,
          "internalType": "address",
          "name": "operator",
          "type": "address"
        },
        {
          "indexed": false,
          "internalType": "bool",
          "name": "approved",
          "type": "bool"
        }
      ],
      "name": "ApprovalForAll",
      "type": "event"
    },
    {
      "anonymous": false,
      "inputs": [
        {
          "indexed": false,
          "internalType": "address",
          "name": "account",
          "type": "address"
        }
      ],
      "name": "Paused",
      "type": "event"
    },
    {
      "anonymous": false,
      "inputs": [
        {
          "indexed": true,
          "internalType": "bytes32",
          "name": "role",
          "type": "bytes32"
        },
        {
          "indexed": true,
          "internalType": "bytes32",
          "name": "previousAdminRole",
          "type": "bytes32"
        },
        {
          "indexed": true,
          "internalType": "bytes32",
          "name": "newAdminRole",
          "type": "bytes32"
        }
      ],
      "name": "RoleAdminChanged",
      "type": "event"
    },
    {
      "anonymous": false,
      "inputs": [
        {
          "indexed": true,
          "internalType": "bytes32",
          "name": "role",
          "type": "bytes32"
        },
        {
          "indexed": true,
          "internalType": "address",
          "name": "account",
          "type": "address"
        },
        {
          "indexed": true,
          "internalType": "address",
          "name": "sender",
          "type": "address"
        }
      ],
      "name": "RoleGranted",
      "type": "event"
    },
    {
      "anonymous": false,
      "inputs": [
        {
          "indexed": true,
          "internalType": "bytes32",
          "name": "role",
          "type": "bytes32"
        },
        {
          "indexed": true,
          "internalType": "address",
          "name": "account",
          "type": "address"
        },
        {
          "indexed": true,
          "internalType": "address",
          "name": "sender",
          "type": "address"
        }
      ],
      "name": "RoleRevoked",
      "type": "event"
    },
    {
      "anonymous": false,
      "inputs": [
        {
          "indexed": true,
          "internalType": "address",
          "name": "from",
          "type": "address"
        },
        {
          "indexed": true,
          "internalType": "address",
          "name": "to",
          "type": "address"
        },
        {
          "indexed": true,
          "internalType": "uint256",
          "name": "tokenId",
          "type": "uint256"
        }
      ],
      "name": "Transfer",
      "type": "event"
    },
    {
      "anonymous": false,
      "inputs": [
        {
          "indexed": false,
          "internalType": "address",
          "name": "account",
          "type": "address"
        }
      ],
      "name": "Unpaused",
      "type": "event"
    },
    {
      "inputs": [],
      "name": "DEFAULT_ADMIN_ROLE",
      "outputs": [
        {
          "internalType": "bytes32",
          "name": "",
          "type": "bytes32"
        }
      ],
      "stateMutability": "view",
      "type": "function"
    },
    {
      "inputs": [],
      "name": "MINTER_ROLE",
      "outputs": [
        {
          "internalType": "bytes32",
          "name": "",
          "type": "bytes32"
        }
      ],
      "stateMutability": "view",
      "type": "function"
    },
    {
      "inputs": [],
      "name": "PAUSER_ROLE",
      "outputs": [
        {
          "internalType": "bytes32",
          "name": "",
          "type": "bytes32"
        }
      ],
      "stateMutability": "view",
      "type": "function"
    },
    {
      "inputs": [
        {
          "internalType": "address",
          "name": "to",
          "type": "address"
        },
        {
          "internalType": "uint256",
          "name": "tokenId",
          "type": "uint256"
        }
      ],
      "name": "approve",
      "outputs": [],
      "stateMutability": "nonpayable",
      "type": "function"
    },
    {
      "inputs": [
        {
          "internalType": "address",
          "name": "owner",
          "type": "address"
        }
      ],
      "name": "balanceOf",
      "outputs": [
        {
          "internalType": "uint256",
          "name": "",
          "type": "uint256"
        }
      ],
      "stateMutability": "view",
      "type": "function"
    },
    {
      "inputs": [
        {
          "internalType": "uint256",
          "name": "tokenId",
          "type": "uint256"
        }
      ],
      "name": "burn",
      "outputs": [],
      "stateMutability": "nonpayable",
      "type": "function"
    },
    {
      "inputs": [
        {
          "internalType": "uint256",
          "name": "tokenId",
          "type": "uint256"
        }
      ],
      "name": "getApproved",
      "outputs": [
        {
          "internalType": "address",
          "name": "",
          "type": "address"
        }
      ],
      "stateMutability": "view",
      "type": "function"
    },
    {
      "inputs": [
        {
          "internalType": "bytes32",
          "name": "role",
          "type": "bytes32"
        }
      ],
      "name": "getRoleAdmin",
      "outputs": [
        {
          "internalType": "bytes32",
          "name": "",
          "type": "bytes32"
        }
      ],
      "stateMutability": "view",
      "type": "function"
    },
    {
      "inputs": [
        {
          "internalType": "bytes32",
          "name": "role",
          "type": "bytes32"
        },
        {
          "internalType": "uint256",
          "name": "index",
          "type": "uint256"
        }
      ],
      "name": "getRoleMember",
      "outputs": [
        {
          "internalType": "address",
          "name": "",
          "type": "address"
        }
      ],
      "stateMutability": "view",
      "type": "function"
    },
    {
      "inputs": [
        {
          "internalType": "bytes32",
          "name": "role",
          "type": "bytes32"
        }
      ],
      "name": "getRoleMemberCount",
      "outputs": [
        {
          "internalType": "uint256",
          "name": "",
          "type": "uint256"
        }
      ],
      "stateMutability": "view",
      "type": "function"
    },
    {
      "inputs": [
        {
          "internalType": "bytes32",
          "name": "role",
          "type": "bytes32"
        },
        {
          "internalType": "address",
          "name": "account",
          "type": "address"
        }
      ],
      "name": "grantRole",
      "outputs": [],
      "stateMutability": "nonpayable",
      "type": "function"
    },
    {
      "inputs": [
        {
          "internalType": "bytes32",
          "name": "role",
          "type": "bytes32"
        },
        {
          "internalType": "address",
          "name": "account",
          "type": "address"
        }
      ],
      "name": "hasRole",
      "outputs": [
        {
          "internalType": "bool",
          "name": "",
          "type": "bool"
        }
      ],
      "stateMutability": "view",
      "type": "function"
    },
    {
      "inputs": [
        {
          "internalType": "address",
          "name": "owner",
          "type": "address"
        },
        {
          "internalType": "address",
          "name": "operator",
          "type": "address"
        }
      ],
      "name": "isApprovedForAll",
      "outputs": [
        {
          "internalType": "bool",
          "name": "",
          "type": "bool"
        }
      ],
      "stateMutability": "view",
      "type": "function"
    },
    {
      "inputs": [],
      "name": "name",
      "outputs": [
        {
          "internalType": "string",
          "name": "",
          "type": "string"
        }
      ],
      "stateMutability": "view",
      "type": "function"
    },
    {
      "inputs": [
        {
          "internalType": "uint256",
          "name": "tokenId",
          "type": "uint256"
        }
      ],
      "name": "ownerOf",
      "outputs": [
        {
          "internalType": "address",
          "name": "",
          "type": "address"
        }
      ],
      "stateMutability": "view",
      "type": "function"
    },
    {
      "inputs": [],
      "name": "paused",
      "outputs": [
        {
          "internalType": "bool",
          "name": "",
          "type": "bool"
        }
      ],
      "stateMutability": "view",
      "type": "function"
    },
    {
      "inputs": [
        {
          "internalType": "bytes32",
          "name": "role",
          "type": "bytes32"
        },
        {
          "internalType": "address",
          "name": "account",
          "type": "address"
        }
      ],
      "name": "renounceRole",
      "outputs": [],
      "stateMutability": "nonpayable",
      "type": "function"
    },
    {
      "inputs": [
        {
          "internalType": "bytes32",
          "name": "role",
          "type": "bytes32"
        },
        {
          "internalType": "address",
          "name": "account",
          "type": "address"
        }
      ],
      "name": "revokeRole",
      "outputs": [],
      "stateMutability": "nonpayable",
      "type": "function"
    },
    {
      "inputs": [
        {
          "internalType": "address",
          "name": "from",
          "type": "address"
        },
        {
          "internalType": "address",
          "name": "to",
          "type": "address"
        },
        {
          "internalType": "uint256",
          "name": "tokenId",
          "type": "uint256"
        }
      ],
      "name": "safeTransferFrom",
      "outputs": [],
      "stateMutability": "nonpayable",
      "type": "function"
    },
    {
      "inputs": [
        {
          "internalType": "address",
          "name": "from",
          "type": "address"
        },
        {
          "internalType": "address",
          "name": "to",
          "type": "address"
        },
        {
          "internalType": "uint256",
          "name": "tokenId",
          "type": "uint256"
        },
        {
          "internalType": "bytes",
          "name": "_data",
          "type": "bytes"
        }
      ],
      "name": "safeTransferFrom",
      "outputs": [],
      "stateMutability": "nonpayable",
      "type": "function"
    },
    {
      "inputs": [
        {
          "internalType": "address",
          "name": "operator",
          "type": "address"
        },
        {
          "internalType": "bool",
          "name": "approved",
          "type": "bool"
        }
      ],
      "name": "setApprovalForAll",
      "outputs": [],
      "stateMutability": "nonpayable",
      "type": "function"
    },
    {
      "inputs": [],
      "name": "symbol",
      "outputs": [
        {
          "internalType": "string",
          "name": "",
          "type": "string"
        }
      ],
      "stateMutability": "view",
      "type": "function"
    },
    {
      "inputs": [
        {
          "internalType": "uint256",
          "name": "index",
          "type": "uint256"
        }
      ],
      "name": "tokenByIndex",
      "outputs": [
        {
          "internalType": "uint256",
          "name": "",
          "type": "uint256"
        }
      ],
      "stateMutability": "view",
      "type": "function"
    },
    {
      "inputs": [
        {
          "internalType": "address",
          "name": "owner",
          "type": "address"
        },
        {
          "internalType": "uint256",
          "name": "index",
          "type": "uint256"
        }
      ],
      "name": "tokenOfOwnerByIndex",
      "outputs": [
        {
          "internalType": "uint256",
          "name": "",
          "type": "uint256"
        }
      ],
      "stateMutability": "view",
      "type": "function"
    },
    {
      "inputs": [],
      "name": "totalSupply",
      "outputs": [
        {
          "internalType": "uint256",
          "name": "",
          "type": "uint256"
        }
      ],
      "stateMutability": "view",
      "type": "function"
    },
    {
      "inputs": [
        {
          "internalType": "address",
          "name": "from",
          "type": "address"
        },
        {
          "internalType": "address",
          "name": "to",
          "type": "address"
        },
        {
          "internalType": "uint256",
          "name": "tokenId",
          "type": "uint256"
        }
      ],
      "name": "transferFrom",
      "outputs": [],
      "stateMutability": "nonpayable",
      "type": "function"
    },
    {
      "inputs": [
        {
          "internalType": "string",
          "name": "cid",
          "type": "string"
        },
        {
          "internalType": "address",
          "name": "to",
          "type": "address"
        }
      ],
      "name": "mint",
      "outputs": [],
      "stateMutability": "nonpayable",
      "type": "function"
    },
    {
      "inputs": [
        {
          "internalType": "uint256",
          "name": "tokenId",
          "type": "uint256"
        }
      ],
      "name": "tokenURI",
      "outputs": [
        {
          "internalType": "string",
          "name": "",
          "type": "string"
        }
      ],
      "stateMutability": "view",
      "type": "function"
    },
    {
      "inputs": [],
      "name": "pause",
      "outputs": [],
      "stateMutability": "nonpayable",
      "type": "function"
    },
    {
      "inputs": [],
      "name": "unpause",
      "outputs": [],
      "stateMutability": "nonpayable",
      "type": "function"
    },
    {
      "inputs": [
        {
          "internalType": "bytes4",
          "name": "interfaceId",
          "type": "bytes4"
        }
      ],
      "name": "supportsInterface",
      "outputs": [
        {
          "internalType": "bool",
          "name": "",
          "type": "bool"
        }
      ],
      "stateMutability": "view",
      "type": "function"
    }
  ],
  "bytecode": "0x60806040523480156200001157600080fd5b50604080518082018252601681527f45706865726520466f6f7462616c6c20506c617965720000000000000000000060208083019182528351808501909452600384526204546560ec1b908401528151919291620000729160029162000265565b5080516200008890600390602084019062000265565b5050600c805460ff1916905550620000a260003362000100565b620000ce7f9f2df0fed2c77648de5860a4cc508cd0818c85b8b8a1ab4ceeef8d981c8956a63362000100565b620000fa7f65d7a28e3265b37a6474929f336521b332c1681b933f6cb9f3376673440d862a3362000100565b62000348565b6200011782826200014360201b62000e951760201c565b60008281526001602090815260409091206200013e91839062000ea362000153821b17901c565b505050565b6200014f828262000173565b5050565b60006200016a836001600160a01b03841662000213565b90505b92915050565b6000828152602081815260408083206001600160a01b038516845290915290205460ff166200014f576000828152602081815260408083206001600160a01b03851684529091529020805460ff19166001179055620001cf3390565b6001600160a01b0316816001600160a01b0316837f2f8788117e7eff1d82e926ec794901d17c78024a50270940304540a733656f0d60405160405180910390a45050565b60008181526001830160205260408120546200025c575081546001818101845560008481526020808220909301849055845484825282860190935260409020919091556200016d565b5060006200016d565b82805462000273906200030b565b90600052602060002090601f016020900481019282620002975760008555620002e2565b82601f10620002b257805160ff1916838001178555620002e2565b82800160010185558215620002e2579182015b82811115620002e2578251825591602001919060010190620002c5565b50620002f0929150620002f4565b5090565b5b80821115620002f05760008155600101620002f5565b600181811c908216806200032057607f821691505b602082108114156200034257634e487b7160e01b600052602260045260246000fd5b50919050565b61266d80620003586000396000f3fe608060405234801561001057600080fd5b50600436106101e55760003560e01c80635c975abb1161010f578063a22cb465116100a2578063d539139311610071578063d5391393146103f7578063d547741f1461041e578063e63ab1e914610431578063e985e9c51461045857600080fd5b8063a22cb465146103ab578063b88d4fde146103be578063c87b56dd146103d1578063ca15c873146103e457600080fd5b80639010d07c116100de5780639010d07c1461037557806391d148541461038857806395d89b411461039b578063a217fddf146103a357600080fd5b80635c975abb1461033c5780636352211e1461034757806370a082311461035a5780638456cb591461036d57600080fd5b8063248a9ca3116101875780633f4ba83a116101565780633f4ba83a146102fb57806342842e0e1461030357806342966c68146103165780634f6ccce71461032957600080fd5b8063248a9ca31461029f5780632f2ff15d146102c25780632f745c59146102d557806336568abe146102e857600080fd5b8063095ea7b3116101c3578063095ea7b31461025257806318160ddd146102675780631c351a9d1461027957806323b872dd1461028c57600080fd5b806301ffc9a7146101ea57806306fdde0314610212578063081812fc14610227575b600080fd5b6101fd6101f8366004612225565b610494565b60405190151581526020015b60405180910390f35b61021a6104a5565b6040516102099190612447565b61023a6102353660046121c7565b610537565b6040516001600160a01b039091168152602001610209565b61026561026036600461219d565b6105d1565b005b600a545b604051908152602001610209565b61026561028736600461225f565b6106e7565b61026561029a3660046120a9565b6107c0565b61026b6102ad3660046121c7565b60009081526020819052604090206001015490565b6102656102d03660046121e0565b6107f2565b61026b6102e336600461219d565b610814565b6102656102f63660046121e0565b6108aa565b6102656108cc565b6102656103113660046120a9565b610972565b6102656103243660046121c7565b61098d565b61026b6103373660046121c7565b610a07565b600c5460ff166101fd565b61023a6103553660046121c7565b610a9a565b61026b61036836600461205b565b610b11565b610265610b98565b61023a610383366004612203565b610c35565b6101fd6103963660046121e0565b610c54565b61021a610c7d565b61026b600081565b6102656103b9366004612161565b610c8c565b6102656103cc3660046120e5565b610d51565b61021a6103df3660046121c7565b610d89565b61026b6103f23660046121c7565b610e74565b61026b7f9f2df0fed2c77648de5860a4cc508cd0818c85b8b8a1ab4ceeef8d981c8956a681565b61026561042c3660046121e0565b610e8b565b61026b7f65d7a28e3265b37a6474929f336521b332c1681b933f6cb9f3376673440d862a81565b6101fd610466366004612076565b6001600160a01b03918216600090815260076020908152604080832093909416825291909152205460ff1690565b600061049f82610eb8565b92915050565b6060600280546104b49061258e565b80601f01602080910402602001604051908101604052809291908181526020018280546104e09061258e565b801561052d5780601f106105025761010080835404028352916020019161052d565b820191906000526020600020905b81548152906001019060200180831161051057829003601f168201915b5050505050905090565b6000818152600460205260408120546001600160a01b03166105b55760405162461bcd60e51b815260206004820152602c60248201527f4552433732313a20617070726f76656420717565727920666f72206e6f6e657860448201526b34b9ba32b73a103a37b5b2b760a11b60648201526084015b60405180910390fd5b506000908152600660205260409020546001600160a01b031690565b60006105dc82610a9a565b9050806001600160a01b0316836001600160a01b0316141561064a5760405162461bcd60e51b815260206004820152602160248201527f4552433732313a20617070726f76616c20746f2063757272656e74206f776e656044820152603960f91b60648201526084016105ac565b336001600160a01b038216148061066657506106668133610466565b6106d85760405162461bcd60e51b815260206004820152603860248201527f4552433732313a20617070726f76652063616c6c6572206973206e6f74206f7760448201527f6e6572206e6f7220617070726f76656420666f7220616c6c000000000000000060648201526084016105ac565b6106e28383610edd565b505050565b6107117f9f2df0fed2c77648de5860a4cc508cd0818c85b8b8a1ab4ceeef8d981c8956a633610c54565b61077b5760405162461bcd60e51b815260206004820152603560248201527f457068657265466f6f7462616c6c65724552433732313a206d7573742068617660448201527419481b5a5b9d195c881c9bdb19481d1bc81b5a5b9d605a1b60648201526084016105ac565b6000610786600e5490565b90506107928282610f4b565b6000818152600d6020908152604090912084516107b192860190611efa565b506106e2600e80546001019055565b6107cb335b82611099565b6107e75760405162461bcd60e51b81526004016105ac906124ac565b6106e2838383611190565b6107fc828261133b565b60008281526001602052604090206106e29082610ea3565b600061081f83610b11565b82106108815760405162461bcd60e51b815260206004820152602b60248201527f455243373231456e756d657261626c653a206f776e657220696e646578206f7560448201526a74206f6620626f756e647360a81b60648201526084016105ac565b506001600160a01b03919091166000908152600860209081526040808320938352929052205490565b6108b48282611361565b60008281526001602052604090206106e290826113db565b6108f67f65d7a28e3265b37a6474929f336521b332c1681b933f6cb9f3376673440d862a33610c54565b6109685760405162461bcd60e51b815260206004820152603860248201527f457068657265466f6f7462616c6c65724552433732313a206d7573742068617660448201527f652070617573657220726f6c6520746f20756e7061757365000000000000000060648201526084016105ac565b6109706113f0565b565b6106e283838360405180602001604052806000815250610d51565b610996336107c5565b6109fb5760405162461bcd60e51b815260206004820152603060248201527f4552433732314275726e61626c653a2063616c6c6572206973206e6f74206f7760448201526f1b995c881b9bdc88185c1c1c9bdd995960821b60648201526084016105ac565b610a0481611483565b50565b6000610a12600a5490565b8210610a755760405162461bcd60e51b815260206004820152602c60248201527f455243373231456e756d657261626c653a20676c6f62616c20696e646578206f60448201526b7574206f6620626f756e647360a01b60648201526084016105ac565b600a8281548110610a8857610a886125f5565b90600052602060002001549050919050565b6000818152600460205260408120546001600160a01b03168061049f5760405162461bcd60e51b815260206004820152602960248201527f4552433732313a206f776e657220717565727920666f72206e6f6e657869737460448201526832b73a103a37b5b2b760b91b60648201526084016105ac565b60006001600160a01b038216610b7c5760405162461bcd60e51b815260206004820152602a60248201527f4552433732313a2062616c616e636520717565727920666f7220746865207a65604482015269726f206164647265737360b01b60648201526084016105ac565b506001600160a01b031660009081526005602052604090205490565b610bc27f65d7a28e3265b37a6474929f336521b332c1681b933f6cb9f3376673440d862a33610c54565b610c2d5760405162461bcd60e51b815260206004820152603660248201527f457068657265466f6f7462616c6c65724552433732313a206d75737420686176604482015275652070617573657220726f6c6520746f20706175736560501b60648201526084016105ac565b61097061152a565b6000828152600160205260408120610c4d90836115a5565b9392505050565b6000918252602082815260408084206001600160a01b0393909316845291905290205460ff1690565b6060600380546104b49061258e565b6001600160a01b038216331415610ce55760405162461bcd60e51b815260206004820152601960248201527f4552433732313a20617070726f766520746f2063616c6c65720000000000000060448201526064016105ac565b3360008181526007602090815260408083206001600160a01b03871680855290835292819020805460ff191686151590811790915590519081529192917f17307eab39ab6107e8899845ad3d59bd9653f200f220920489ca2b5937696c31910160405180910390a35050565b610d5b3383611099565b610d775760405162461bcd60e51b81526004016105ac906124ac565b610d83848484846115b1565b50505050565b6000818152600460205260409020546060906001600160a01b0316610e165760405162461bcd60e51b815260206004820152603760248201527f457068657265466f6f7462616c6c65724552433732313a20555249207175657260448201527f7920666f72206e6f6e6578697374656e7420746f6b656e00000000000000000060648201526084016105ac565b604080518082018252601581527468747470733a2f2f697066732e696f2f697066732f60581b6020808301919091526000858152600d82528390209251610e5e9391016122e4565b6040516020818303038152906040529050919050565b600081815260016020526040812061049f906115e4565b6108b482826115ee565b610e9f8282611614565b5050565b6000610c4d836001600160a01b038416611698565b60006001600160e01b0319821663780e9d6360e01b148061049f575061049f826116e7565b600081815260066020526040902080546001600160a01b0319166001600160a01b0384169081179091558190610f1282610a9a565b6001600160a01b03167f8c5be1e5ebec7d5bd14f71427d1e84f3dd0314c0f7b2291e5b200ac8c7c3b92560405160405180910390a45050565b6001600160a01b038216610fa15760405162461bcd60e51b815260206004820181905260248201527f4552433732313a206d696e7420746f20746865207a65726f206164647265737360448201526064016105ac565b6000818152600460205260409020546001600160a01b0316156110065760405162461bcd60e51b815260206004820152601c60248201527f4552433732313a20746f6b656e20616c7265616479206d696e7465640000000060448201526064016105ac565b61101260008383611727565b6001600160a01b038216600090815260056020526040812080546001929061103b9084906124fd565b909155505060008181526004602052604080822080546001600160a01b0319166001600160a01b03861690811790915590518392907fddf252ad1be2c89b69c2b068fc378daa952ba7f163c4a11628f55a4df523b3ef908290a45050565b6000818152600460205260408120546001600160a01b03166111125760405162461bcd60e51b815260206004820152602c60248201527f4552433732313a206f70657261746f7220717565727920666f72206e6f6e657860448201526b34b9ba32b73a103a37b5b2b760a11b60648201526084016105ac565b600061111d83610a9a565b9050806001600160a01b0316846001600160a01b031614806111585750836001600160a01b031661114d84610537565b6001600160a01b0316145b8061118857506001600160a01b0380821660009081526007602090815260408083209388168352929052205460ff165b949350505050565b826001600160a01b03166111a382610a9a565b6001600160a01b03161461120b5760405162461bcd60e51b815260206004820152602960248201527f4552433732313a207472616e73666572206f6620746f6b656e2074686174206960448201526839903737ba1037bbb760b91b60648201526084016105ac565b6001600160a01b03821661126d5760405162461bcd60e51b8152602060048201526024808201527f4552433732313a207472616e7366657220746f20746865207a65726f206164646044820152637265737360e01b60648201526084016105ac565b611278838383611727565b611283600082610edd565b6001600160a01b03831660009081526005602052604081208054600192906112ac908490612534565b90915550506001600160a01b03821660009081526005602052604081208054600192906112da9084906124fd565b909155505060008181526004602052604080822080546001600160a01b0319166001600160a01b0386811691821790925591518493918716917fddf252ad1be2c89b69c2b068fc378daa952ba7f163c4a11628f55a4df523b3ef91a4505050565b6000828152602081905260409020600101546113578133611757565b6106e28383611614565b6001600160a01b03811633146113d15760405162461bcd60e51b815260206004820152602f60248201527f416363657373436f6e74726f6c3a2063616e206f6e6c792072656e6f756e636560448201526e103937b632b9903337b91039b2b63360891b60648201526084016105ac565b610e9f82826117bb565b6000610c4d836001600160a01b038416611820565b600c5460ff166114395760405162461bcd60e51b815260206004820152601460248201527314185d5cd8589b194e881b9bdd081c185d5cd95960621b60448201526064016105ac565b600c805460ff191690557f5db9ee0a495bf2e6ff9c91a7834c1ba4fdd244a5e8aa4e537bd38aeae4b073aa335b6040516001600160a01b03909116815260200160405180910390a1565b600061148e82610a9a565b905061149c81600084611727565b6114a7600083610edd565b6001600160a01b03811660009081526005602052604081208054600192906114d0908490612534565b909155505060008281526004602052604080822080546001600160a01b0319169055518391906001600160a01b038416907fddf252ad1be2c89b69c2b068fc378daa952ba7f163c4a11628f55a4df523b3ef908390a45050565b600c5460ff16156115705760405162461bcd60e51b815260206004820152601060248201526f14185d5cd8589b194e881c185d5cd95960821b60448201526064016105ac565b600c805460ff191660011790557f62e78cea01bee320cd4e420270b5ea74000d11b0c9f74754ebdbfc544b05a2586114663390565b6000610c4d8383611913565b6115bc848484611190565b6115c88484848461193d565b610d835760405162461bcd60e51b81526004016105ac9061245a565b600061049f825490565b60008281526020819052604090206001015461160a8133611757565b6106e283836117bb565b61161e8282610c54565b610e9f576000828152602081815260408083206001600160a01b03851684529091529020805460ff191660011790556116543390565b6001600160a01b0316816001600160a01b0316837f2f8788117e7eff1d82e926ec794901d17c78024a50270940304540a733656f0d60405160405180910390a45050565b60008181526001830160205260408120546116df5750815460018181018455600084815260208082209093018490558454848252828601909352604090209190915561049f565b50600061049f565b60006001600160e01b031982166380ac58cd60e01b148061171857506001600160e01b03198216635b5e139f60e01b145b8061049f575061049f82611a4a565b611732838383611a6f565b6001600160a01b0382166106e2576000818152600d602052604081206106e291611f7e565b6117618282610c54565b610e9f57611779816001600160a01b03166014611ae1565b611784836020611ae1565b604051602001611795929190612395565b60408051601f198184030181529082905262461bcd60e51b82526105ac91600401612447565b6117c58282610c54565b15610e9f576000828152602081815260408083206001600160a01b0385168085529252808320805460ff1916905551339285917ff6391f5c32d9c69d2a47ea670b442974b53935d1edc7fd64eb21e047a839171b9190a45050565b60008181526001830160205260408120548015611909576000611844600183612534565b855490915060009061185890600190612534565b90508181146118bd576000866000018281548110611878576118786125f5565b906000526020600020015490508087600001848154811061189b5761189b6125f5565b6000918252602080832090910192909255918252600188019052604090208390555b85548690806118ce576118ce6125df565b60019003818190600052602060002001600090559055856001016000868152602001908152602001600020600090556001935050505061049f565b600091505061049f565b600082600001828154811061192a5761192a6125f5565b9060005260206000200154905092915050565b60006001600160a01b0384163b15611a3f57604051630a85bd0160e11b81526001600160a01b0385169063150b7a029061198190339089908890889060040161240a565b602060405180830381600087803b15801561199b57600080fd5b505af19250505080156119cb575060408051601f3d908101601f191682019092526119c891810190612242565b60015b611a25573d8080156119f9576040519150601f19603f3d011682016040523d82523d6000602084013e6119fe565b606091505b508051611a1d5760405162461bcd60e51b81526004016105ac9061245a565b805181602001fd5b6001600160e01b031916630a85bd0160e11b149050611188565b506001949350505050565b60006001600160e01b03198216635a05180f60e01b148061049f575061049f82611c7d565b611a7a838383611cb2565b600c5460ff16156106e25760405162461bcd60e51b815260206004820152602b60248201527f4552433732315061757361626c653a20746f6b656e207472616e73666572207760448201526a1a1a5b19481c185d5cd95960aa1b60648201526084016105ac565b60606000611af0836002612515565b611afb9060026124fd565b67ffffffffffffffff811115611b1357611b1361260b565b6040519080825280601f01601f191660200182016040528015611b3d576020820181803683370190505b509050600360fc1b81600081518110611b5857611b586125f5565b60200101906001600160f81b031916908160001a905350600f60fb1b81600181518110611b8757611b876125f5565b60200101906001600160f81b031916908160001a9053506000611bab846002612515565b611bb69060016124fd565b90505b6001811115611c2e576f181899199a1a9b1b9c1cb0b131b232b360811b85600f1660108110611bea57611bea6125f5565b1a60f81b828281518110611c0057611c006125f5565b60200101906001600160f81b031916908160001a90535060049490941c93611c2781612577565b9050611bb9565b508315610c4d5760405162461bcd60e51b815260206004820181905260248201527f537472696e67733a20686578206c656e67746820696e73756666696369656e7460448201526064016105ac565b60006001600160e01b03198216637965db0b60e01b148061049f57506301ffc9a760e01b6001600160e01b031983161461049f565b6001600160a01b038316611d0d57611d0881600a80546000838152600b60205260408120829055600182018355919091527fc65a7bb8d6351c1cf70c95a316cc6a92839c986682d98bc35f958f4883f9d2a80155565b611d30565b816001600160a01b0316836001600160a01b031614611d3057611d308382611d6a565b6001600160a01b038216611d47576106e281611e07565b826001600160a01b0316826001600160a01b0316146106e2576106e28282611eb6565b60006001611d7784610b11565b611d819190612534565b600083815260096020526040902054909150808214611dd4576001600160a01b03841660009081526008602090815260408083208584528252808320548484528184208190558352600990915290208190555b5060009182526009602090815260408084208490556001600160a01b039094168352600881528383209183525290812055565b600a54600090611e1990600190612534565b6000838152600b6020526040812054600a8054939450909284908110611e4157611e416125f5565b9060005260206000200154905080600a8381548110611e6257611e626125f5565b6000918252602080832090910192909255828152600b9091526040808220849055858252812055600a805480611e9a57611e9a6125df565b6001900381819060005260206000200160009055905550505050565b6000611ec183610b11565b6001600160a01b039093166000908152600860209081526040808320868452825280832085905593825260099052919091209190915550565b828054611f069061258e565b90600052602060002090601f016020900481019282611f285760008555611f6e565b82601f10611f4157805160ff1916838001178555611f6e565b82800160010185558215611f6e579182015b82811115611f6e578251825591602001919060010190611f53565b50611f7a929150611fb4565b5090565b508054611f8a9061258e565b6000825580601f10611f9a575050565b601f016020900490600052602060002090810190610a0491905b5b80821115611f7a5760008155600101611fb5565b600067ffffffffffffffff80841115611fe457611fe461260b565b604051601f8501601f19908116603f0116810190828211818310171561200c5761200c61260b565b8160405280935085815286868601111561202557600080fd5b858560208301376000602087830101525050509392505050565b80356001600160a01b038116811461205657600080fd5b919050565b60006020828403121561206d57600080fd5b610c4d8261203f565b6000806040838503121561208957600080fd5b6120928361203f565b91506120a06020840161203f565b90509250929050565b6000806000606084860312156120be57600080fd5b6120c78461203f565b92506120d56020850161203f565b9150604084013590509250925092565b600080600080608085870312156120fb57600080fd5b6121048561203f565b93506121126020860161203f565b925060408501359150606085013567ffffffffffffffff81111561213557600080fd5b8501601f8101871361214657600080fd5b61215587823560208401611fc9565b91505092959194509250565b6000806040838503121561217457600080fd5b61217d8361203f565b91506020830135801515811461219257600080fd5b809150509250929050565b600080604083850312156121b057600080fd5b6121b98361203f565b946020939093013593505050565b6000602082840312156121d957600080fd5b5035919050565b600080604083850312156121f357600080fd5b823591506120a06020840161203f565b6000806040838503121561221657600080fd5b50508035926020909101359150565b60006020828403121561223757600080fd5b8135610c4d81612621565b60006020828403121561225457600080fd5b8151610c4d81612621565b6000806040838503121561227257600080fd5b823567ffffffffffffffff81111561228957600080fd5b8301601f8101851361229a57600080fd5b6122a985823560208401611fc9565b9250506120a06020840161203f565b600081518084526122d081602086016020860161254b565b601f01601f19169290920160200192915050565b6000835160206122f7828583890161254b565b845491840191600090600181811c908083168061231557607f831692505b85831081141561233357634e487b7160e01b85526022600452602485fd5b808015612347576001811461235857612385565b60ff19851688528388019550612385565b60008b81526020902060005b8581101561237d5781548a820152908401908801612364565b505083880195505b50939a9950505050505050505050565b7f416363657373436f6e74726f6c3a206163636f756e74200000000000000000008152600083516123cd81601785016020880161254b565b7001034b99036b4b9b9b4b733903937b6329607d1b60179184019182015283516123fe81602884016020880161254b565b01602801949350505050565b6001600160a01b038581168252841660208201526040810183905260806060820181905260009061243d908301846122b8565b9695505050505050565b602081526000610c4d60208301846122b8565b60208082526032908201527f4552433732313a207472616e7366657220746f206e6f6e20455243373231526560408201527131b2b4bb32b91034b6b83632b6b2b73a32b960711b606082015260800190565b60208082526031908201527f4552433732313a207472616e736665722063616c6c6572206973206e6f74206f6040820152701ddb995c881b9bdc88185c1c1c9bdd9959607a1b606082015260800190565b60008219821115612510576125106125c9565b500190565b600081600019048311821515161561252f5761252f6125c9565b500290565b600082821015612546576125466125c9565b500390565b60005b8381101561256657818101518382015260200161254e565b83811115610d835750506000910152565b600081612586576125866125c9565b506000190190565b600181811c908216806125a257607f821691505b602082108114156125c357634e487b7160e01b600052602260045260246000fd5b50919050565b634e487b7160e01b600052601160045260246000fd5b634e487b7160e01b600052603160045260246000fd5b634e487b7160e01b600052603260045260246000fd5b634e487b7160e01b600052604160045260246000fd5b6001600160e01b031981168114610a0457600080fdfea2646970667358221220f3450856847b65ccc84361a006f247454c6277c11e2276f8136396ecf63605f964736f6c63430008070033",
  "immutableReferences": {},
  "source": "// SPDX-License-Identifier: UNLICENSED\npragma solidity >=0.6.12;\n\nimport \"@openzeppelin/contracts/token/ERC721/ERC721.sol\";\nimport \"@openzeppelin/contracts/token/ERC721/extensions/ERC721Enumerable.sol\";\nimport \"@openzeppelin/contracts/token/ERC721/extensions/ERC721Burnable.sol\";\nimport \"@openzeppelin/contracts/token/ERC721/extensions/ERC721Pausable.sol\";\nimport \"@openzeppelin/contracts/access/AccessControlEnumerable.sol\";\nimport \"@openzeppelin/contracts/utils/Context.sol\";\nimport \"@openzeppelin/contracts/utils/Counters.sol\";\n\ncontract EphereFootballerERC721 is\n  Context,\n  AccessControlEnumerable,\n  ERC721Enumerable,\n  ERC721Burnable,\n  ERC721Pausable\n{\n  using Counters for Counters.Counter;\n  \n  string private constant BASE_TOKEN_URI = \"https://ipfs.io/ipfs/\";\n\n  bytes32 public constant MINTER_ROLE = keccak256(\"MINTER_ROLE\");\n  bytes32 public constant PAUSER_ROLE = keccak256(\"PAUSER_ROLE\");\n\n  mapping(uint256 => string) _cid;\n  Counters.Counter private _tokenIdTracker;\n\n  constructor() ERC721(\"Ephere Football Player\", \"EFP\") {\n    _setupRole(DEFAULT_ADMIN_ROLE, _msgSender());\n    _setupRole(MINTER_ROLE, _msgSender());\n    _setupRole(PAUSER_ROLE, _msgSender());\n  }\n\n  function mint(string memory cid, address to) public virtual {\n    require(hasRole(MINTER_ROLE, _msgSender()), \"EphereFootballerERC721: must have minter role to mint\");\n\n    // We cannot just use balanceOf to create the new tokenId because tokens\n    // can be burned (destroyed), so we need a separate counter.\n    uint256 tokenId = _tokenIdTracker.current();\n    _mint(to, tokenId);\n    _cid[tokenId] = cid;\n    _tokenIdTracker.increment();\n  }\n\n  function tokenURI(uint256 tokenId) public view virtual override returns (string memory) {\n    require(_exists(tokenId), \"EphereFootballerERC721: URI query for nonexistent token\");\n\n    return string(abi.encodePacked(BASE_TOKEN_URI, _cid[tokenId]));\n  }\n\n  function pause() public virtual {\n    require(hasRole(PAUSER_ROLE, _msgSender()), \"EphereFootballerERC721: must have pauser role to pause\");\n    _pause();\n  }\n\n  function unpause() public virtual {\n    require(hasRole(PAUSER_ROLE, _msgSender()), \"EphereFootballerERC721: must have pauser role to unpause\");\n    _unpause();\n  }\n\n  function _beforeTokenTransfer(\n    address from,\n    address to,\n    uint256 tokenId\n  ) internal virtual override(ERC721, ERC721Enumerable, ERC721Pausable) {\n    super._beforeTokenTransfer(from, to, tokenId);\n\n    if (to == address(0)) {\n      delete _cid[tokenId];\n    }\n  }\n\n  function supportsInterface(bytes4 interfaceId)\n    public\n    view\n    virtual\n    override(AccessControlEnumerable, ERC721, ERC721Enumerable)\n    returns (bool)\n  {\n    return super.supportsInterface(interfaceId);\n  }\n}\n",
  "sourcePath": "/Users/agurodriguez/Code/contracts/contracts/EphereFootballerERC721.sol",
  "compiler": {
    "name": "solc",
    "version": "0.8.7+commit.e28d00a7.Emscripten.clang"
  },
  "schemaVersion": "3.3.3",
  "updatedAt": "2021-09-07T21:24:59.222Z",
  "devdoc": {
    "kind": "dev",
    "methods": {
      "approve(address,uint256)": {
        "details": "See {IERC721-approve}."
      },
      "balanceOf(address)": {
        "details": "See {IERC721-balanceOf}."
      },
      "burn(uint256)": {
        "details": "Burns `tokenId`. See {ERC721-_burn}. Requirements: - The caller must own `tokenId` or be an approved operator."
      },
      "getApproved(uint256)": {
        "details": "See {IERC721-getApproved}."
      },
      "getRoleAdmin(bytes32)": {
        "details": "Returns the admin role that controls `role`. See {grantRole} and {revokeRole}. To change a role's admin, use {_setRoleAdmin}."
      },
      "getRoleMember(bytes32,uint256)": {
        "details": "Returns one of the accounts that have `role`. `index` must be a value between 0 and {getRoleMemberCount}, non-inclusive. Role bearers are not sorted in any particular way, and their ordering may change at any point. WARNING: When using {getRoleMember} and {getRoleMemberCount}, make sure you perform all queries on the same block. See the following https://forum.openzeppelin.com/t/iterating-over-elements-on-enumerableset-in-openzeppelin-contracts/2296[forum post] for more information."
      },
      "getRoleMemberCount(bytes32)": {
        "details": "Returns the number of accounts that have `role`. Can be used together with {getRoleMember} to enumerate all bearers of a role."
      },
      "grantRole(bytes32,address)": {
        "details": "Overload {grantRole} to track enumerable memberships"
      },
      "hasRole(bytes32,address)": {
        "details": "Returns `true` if `account` has been granted `role`."
      },
      "isApprovedForAll(address,address)": {
        "details": "See {IERC721-isApprovedForAll}."
      },
      "name()": {
        "details": "See {IERC721Metadata-name}."
      },
      "ownerOf(uint256)": {
        "details": "See {IERC721-ownerOf}."
      },
      "paused()": {
        "details": "Returns true if the contract is paused, and false otherwise."
      },
      "renounceRole(bytes32,address)": {
        "details": "Overload {renounceRole} to track enumerable memberships"
      },
      "revokeRole(bytes32,address)": {
        "details": "Overload {revokeRole} to track enumerable memberships"
      },
      "safeTransferFrom(address,address,uint256)": {
        "details": "See {IERC721-safeTransferFrom}."
      },
      "safeTransferFrom(address,address,uint256,bytes)": {
        "details": "See {IERC721-safeTransferFrom}."
      },
      "setApprovalForAll(address,bool)": {
        "details": "See {IERC721-setApprovalForAll}."
      },
      "symbol()": {
        "details": "See {IERC721Metadata-symbol}."
      },
      "tokenByIndex(uint256)": {
        "details": "See {IERC721Enumerable-tokenByIndex}."
      },
      "tokenOfOwnerByIndex(address,uint256)": {
        "details": "See {IERC721Enumerable-tokenOfOwnerByIndex}."
      },
      "tokenURI(uint256)": {
        "details": "See {IERC721Metadata-tokenURI}."
      },
      "totalSupply()": {
        "details": "See {IERC721Enumerable-totalSupply}."
      },
      "transferFrom(address,address,uint256)": {
        "details": "See {IERC721-transferFrom}."
      }
    },
    "version": 1
  },
  "userdoc": {
    "kind": "user",
    "methods": {},
    "version": 1
  }
}